{
  "address": "0x9fE46736679d2D9a65F0992F2272dE9f3c7fa6e0",
  "abi": [
    {
      "inputs": [],
      "stateMutability": "nonpayable",
      "type": "constructor"
    },
    {
      "anonymous": false,
      "inputs": [
        {
          "indexed": false,
          "internalType": "address",
          "name": "previousAdmin",
          "type": "address"
        },
        {
          "indexed": false,
          "internalType": "address",
          "name": "newAdmin",
          "type": "address"
        }
      ],
      "name": "AdminChanged",
      "type": "event"
    },
    {
      "anonymous": false,
      "inputs": [
        {
          "indexed": true,
          "internalType": "address",
          "name": "owner",
          "type": "address"
        },
        {
          "indexed": true,
          "internalType": "address",
          "name": "approved",
          "type": "address"
        },
        {
          "indexed": true,
          "internalType": "uint256",
          "name": "tokenId",
          "type": "uint256"
        }
      ],
      "name": "Approval",
      "type": "event"
    },
    {
      "anonymous": false,
      "inputs": [
        {
          "indexed": true,
          "internalType": "address",
          "name": "owner",
          "type": "address"
        },
        {
          "indexed": true,
          "internalType": "address",
          "name": "operator",
          "type": "address"
        },
        {
          "indexed": false,
          "internalType": "bool",
          "name": "approved",
          "type": "bool"
        }
      ],
      "name": "ApprovalForAll",
      "type": "event"
    },
    {
      "anonymous": false,
      "inputs": [
        {
          "indexed": true,
          "internalType": "address",
          "name": "beacon",
          "type": "address"
        }
      ],
      "name": "BeaconUpgraded",
      "type": "event"
    },
    {
      "anonymous": false,
      "inputs": [
        {
          "indexed": true,
          "internalType": "address",
          "name": "delegator",
          "type": "address"
        },
        {
          "indexed": true,
          "internalType": "address",
          "name": "fromDelegate",
          "type": "address"
        },
        {
          "indexed": true,
          "internalType": "address",
          "name": "toDelegate",
          "type": "address"
        }
      ],
      "name": "DelegateChanged",
      "type": "event"
    },
    {
      "anonymous": false,
      "inputs": [
        {
          "indexed": true,
          "internalType": "address",
          "name": "delegate",
          "type": "address"
        },
        {
          "indexed": false,
          "internalType": "uint256",
          "name": "previousBalance",
          "type": "uint256"
        },
        {
          "indexed": false,
          "internalType": "uint256",
          "name": "newBalance",
          "type": "uint256"
        }
      ],
      "name": "DelegateVotesChanged",
      "type": "event"
    },
    {
      "anonymous": false,
      "inputs": [
        {
          "indexed": false,
          "internalType": "uint8",
          "name": "version",
          "type": "uint8"
        }
      ],
      "name": "Initialized",
      "type": "event"
    },
    {
      "anonymous": false,
      "inputs": [
        {
          "indexed": false,
          "internalType": "address",
          "name": "account",
          "type": "address"
        }
      ],
      "name": "Paused",
      "type": "event"
    },
    {
      "anonymous": false,
      "inputs": [
        {
          "indexed": true,
          "internalType": "bytes32",
          "name": "role",
          "type": "bytes32"
        },
        {
          "indexed": true,
          "internalType": "bytes32",
          "name": "previousAdminRole",
          "type": "bytes32"
        },
        {
          "indexed": true,
          "internalType": "bytes32",
          "name": "newAdminRole",
          "type": "bytes32"
        }
      ],
      "name": "RoleAdminChanged",
      "type": "event"
    },
    {
      "anonymous": false,
      "inputs": [
        {
          "indexed": true,
          "internalType": "bytes32",
          "name": "role",
          "type": "bytes32"
        },
        {
          "indexed": true,
          "internalType": "address",
          "name": "account",
          "type": "address"
        },
        {
          "indexed": true,
          "internalType": "address",
          "name": "sender",
          "type": "address"
        }
      ],
      "name": "RoleGranted",
      "type": "event"
    },
    {
      "anonymous": false,
      "inputs": [
        {
          "indexed": true,
          "internalType": "bytes32",
          "name": "role",
          "type": "bytes32"
        },
        {
          "indexed": true,
          "internalType": "address",
          "name": "account",
          "type": "address"
        },
        {
          "indexed": true,
          "internalType": "address",
          "name": "sender",
          "type": "address"
        }
      ],
      "name": "RoleRevoked",
      "type": "event"
    },
    {
      "anonymous": false,
      "inputs": [
        {
          "indexed": true,
          "internalType": "address",
          "name": "from",
          "type": "address"
        },
        {
          "indexed": true,
          "internalType": "address",
          "name": "to",
          "type": "address"
        },
        {
          "indexed": true,
          "internalType": "uint256",
          "name": "tokenId",
          "type": "uint256"
        }
      ],
      "name": "Transfer",
      "type": "event"
    },
    {
      "anonymous": false,
      "inputs": [
        {
          "indexed": false,
          "internalType": "address",
          "name": "account",
          "type": "address"
        }
      ],
      "name": "Unpaused",
      "type": "event"
    },
    {
      "anonymous": false,
      "inputs": [
        {
          "indexed": true,
          "internalType": "address",
          "name": "implementation",
          "type": "address"
        }
      ],
      "name": "Upgraded",
      "type": "event"
    },
    {
      "inputs": [],
      "name": "DEFAULT_ADMIN_ROLE",
      "outputs": [
        {
          "internalType": "bytes32",
          "name": "",
          "type": "bytes32"
        }
      ],
      "stateMutability": "view",
      "type": "function"
    },
    {
      "inputs": [],
      "name": "DOMAIN_SEPARATOR",
      "outputs": [
        {
          "internalType": "bytes32",
          "name": "",
          "type": "bytes32"
        }
      ],
      "stateMutability": "view",
      "type": "function"
    },
    {
      "inputs": [],
      "name": "MINTER_ROLE",
      "outputs": [
        {
          "internalType": "bytes32",
          "name": "",
          "type": "bytes32"
        }
      ],
      "stateMutability": "view",
      "type": "function"
    },
    {
      "inputs": [],
      "name": "PAUSER_ROLE",
      "outputs": [
        {
          "internalType": "bytes32",
          "name": "",
          "type": "bytes32"
        }
      ],
      "stateMutability": "view",
      "type": "function"
    },
    {
      "inputs": [],
      "name": "UPGRADER_ROLE",
      "outputs": [
        {
          "internalType": "bytes32",
          "name": "",
          "type": "bytes32"
        }
      ],
      "stateMutability": "view",
      "type": "function"
    },
    {
      "inputs": [
        {
          "internalType": "address",
          "name": "to",
          "type": "address"
        },
        {
          "internalType": "uint256",
          "name": "tokenId",
          "type": "uint256"
        }
      ],
      "name": "approve",
      "outputs": [],
      "stateMutability": "nonpayable",
      "type": "function"
    },
    {
      "inputs": [
        {
          "internalType": "address",
          "name": "owner",
          "type": "address"
        }
      ],
      "name": "balanceOf",
      "outputs": [
        {
          "internalType": "uint256",
          "name": "",
          "type": "uint256"
        }
      ],
      "stateMutability": "view",
      "type": "function"
    },
    {
      "inputs": [
        {
          "internalType": "uint256",
          "name": "tokenId",
          "type": "uint256"
        }
      ],
      "name": "burn",
      "outputs": [],
      "stateMutability": "nonpayable",
      "type": "function"
    },
    {
      "inputs": [
        {
          "internalType": "address",
          "name": "delegatee",
          "type": "address"
        }
      ],
      "name": "delegate",
      "outputs": [],
      "stateMutability": "nonpayable",
      "type": "function"
    },
    {
      "inputs": [
        {
          "internalType": "address",
          "name": "delegatee",
          "type": "address"
        },
        {
          "internalType": "uint256",
          "name": "nonce",
          "type": "uint256"
        },
        {
          "internalType": "uint256",
          "name": "expiry",
          "type": "uint256"
        },
        {
          "internalType": "uint8",
          "name": "v",
          "type": "uint8"
        },
        {
          "internalType": "bytes32",
          "name": "r",
          "type": "bytes32"
        },
        {
          "internalType": "bytes32",
          "name": "s",
          "type": "bytes32"
        }
      ],
      "name": "delegateBySig",
      "outputs": [],
      "stateMutability": "nonpayable",
      "type": "function"
    },
    {
      "inputs": [
        {
          "internalType": "address",
          "name": "account",
          "type": "address"
        }
      ],
      "name": "delegates",
      "outputs": [
        {
          "internalType": "address",
          "name": "",
          "type": "address"
        }
      ],
      "stateMutability": "view",
      "type": "function"
    },
    {
      "inputs": [
        {
          "internalType": "uint256",
          "name": "tokenId",
          "type": "uint256"
        }
      ],
      "name": "getApproved",
      "outputs": [
        {
          "internalType": "address",
          "name": "",
          "type": "address"
        }
      ],
      "stateMutability": "view",
      "type": "function"
    },
    {
      "inputs": [
        {
          "internalType": "uint256",
          "name": "blockNumber",
          "type": "uint256"
        }
      ],
      "name": "getPastTotalSupply",
      "outputs": [
        {
          "internalType": "uint256",
          "name": "",
          "type": "uint256"
        }
      ],
      "stateMutability": "view",
      "type": "function"
    },
    {
      "inputs": [
        {
          "internalType": "address",
          "name": "account",
          "type": "address"
        },
        {
          "internalType": "uint256",
          "name": "blockNumber",
          "type": "uint256"
        }
      ],
      "name": "getPastVotes",
      "outputs": [
        {
          "internalType": "uint256",
          "name": "",
          "type": "uint256"
        }
      ],
      "stateMutability": "view",
      "type": "function"
    },
    {
      "inputs": [
        {
          "internalType": "bytes32",
          "name": "role",
          "type": "bytes32"
        }
      ],
      "name": "getRoleAdmin",
      "outputs": [
        {
          "internalType": "bytes32",
          "name": "",
          "type": "bytes32"
        }
      ],
      "stateMutability": "view",
      "type": "function"
    },
    {
      "inputs": [
        {
          "internalType": "address",
          "name": "account",
          "type": "address"
        }
      ],
      "name": "getVotes",
      "outputs": [
        {
          "internalType": "uint256",
          "name": "",
          "type": "uint256"
        }
      ],
      "stateMutability": "view",
      "type": "function"
    },
    {
      "inputs": [
        {
          "internalType": "bytes32",
          "name": "role",
          "type": "bytes32"
        },
        {
          "internalType": "address",
          "name": "account",
          "type": "address"
        }
      ],
      "name": "grantRole",
      "outputs": [],
      "stateMutability": "nonpayable",
      "type": "function"
    },
    {
      "inputs": [
        {
          "internalType": "bytes32",
          "name": "role",
          "type": "bytes32"
        },
        {
          "internalType": "address",
          "name": "account",
          "type": "address"
        }
      ],
      "name": "hasRole",
      "outputs": [
        {
          "internalType": "bool",
          "name": "",
          "type": "bool"
        }
      ],
      "stateMutability": "view",
      "type": "function"
    },
    {
      "inputs": [],
      "name": "initialize",
      "outputs": [],
      "stateMutability": "nonpayable",
      "type": "function"
    },
    {
      "inputs": [
        {
          "internalType": "address",
          "name": "owner",
          "type": "address"
        },
        {
          "internalType": "address",
          "name": "operator",
          "type": "address"
        }
      ],
      "name": "isApprovedForAll",
      "outputs": [
        {
          "internalType": "bool",
          "name": "",
          "type": "bool"
        }
      ],
      "stateMutability": "view",
      "type": "function"
    },
    {
      "inputs": [],
      "name": "name",
      "outputs": [
        {
          "internalType": "string",
          "name": "",
          "type": "string"
        }
      ],
      "stateMutability": "view",
      "type": "function"
    },
    {
      "inputs": [
        {
          "internalType": "address",
          "name": "owner",
          "type": "address"
        }
      ],
      "name": "nonces",
      "outputs": [
        {
          "internalType": "uint256",
          "name": "",
          "type": "uint256"
        }
      ],
      "stateMutability": "view",
      "type": "function"
    },
    {
      "inputs": [
        {
          "internalType": "uint256",
          "name": "tokenId",
          "type": "uint256"
        }
      ],
      "name": "ownerOf",
      "outputs": [
        {
          "internalType": "address",
          "name": "",
          "type": "address"
        }
      ],
      "stateMutability": "view",
      "type": "function"
    },
    {
      "inputs": [],
      "name": "pause",
      "outputs": [],
      "stateMutability": "nonpayable",
      "type": "function"
    },
    {
      "inputs": [],
      "name": "paused",
      "outputs": [
        {
          "internalType": "bool",
          "name": "",
          "type": "bool"
        }
      ],
      "stateMutability": "view",
      "type": "function"
    },
    {
      "inputs": [],
      "name": "proxiableUUID",
      "outputs": [
        {
          "internalType": "bytes32",
          "name": "",
          "type": "bytes32"
        }
      ],
      "stateMutability": "view",
      "type": "function"
    },
    {
      "inputs": [
        {
          "internalType": "bytes32",
          "name": "role",
          "type": "bytes32"
        },
        {
          "internalType": "address",
          "name": "account",
          "type": "address"
        }
      ],
      "name": "renounceRole",
      "outputs": [],
      "stateMutability": "nonpayable",
      "type": "function"
    },
    {
      "inputs": [
        {
          "internalType": "bytes32",
          "name": "role",
          "type": "bytes32"
        },
        {
          "internalType": "address",
          "name": "account",
          "type": "address"
        }
      ],
      "name": "revokeRole",
      "outputs": [],
      "stateMutability": "nonpayable",
      "type": "function"
    },
    {
      "inputs": [
        {
          "internalType": "address",
          "name": "to",
          "type": "address"
        },
        {
          "internalType": "string",
          "name": "uri",
          "type": "string"
        }
      ],
      "name": "safeMint",
      "outputs": [],
      "stateMutability": "nonpayable",
      "type": "function"
    },
    {
      "inputs": [
        {
          "internalType": "address",
          "name": "from",
          "type": "address"
        },
        {
          "internalType": "address",
          "name": "to",
          "type": "address"
        },
        {
          "internalType": "uint256",
          "name": "tokenId",
          "type": "uint256"
        }
      ],
      "name": "safeTransferFrom",
      "outputs": [],
      "stateMutability": "nonpayable",
      "type": "function"
    },
    {
      "inputs": [
        {
          "internalType": "address",
          "name": "from",
          "type": "address"
        },
        {
          "internalType": "address",
          "name": "to",
          "type": "address"
        },
        {
          "internalType": "uint256",
          "name": "tokenId",
          "type": "uint256"
        },
        {
          "internalType": "bytes",
          "name": "data",
          "type": "bytes"
        }
      ],
      "name": "safeTransferFrom",
      "outputs": [],
      "stateMutability": "nonpayable",
      "type": "function"
    },
    {
      "inputs": [
        {
          "internalType": "address",
          "name": "operator",
          "type": "address"
        },
        {
          "internalType": "bool",
          "name": "approved",
          "type": "bool"
        }
      ],
      "name": "setApprovalForAll",
      "outputs": [],
      "stateMutability": "nonpayable",
      "type": "function"
    },
    {
      "inputs": [
        {
          "internalType": "bytes4",
          "name": "interfaceId",
          "type": "bytes4"
        }
      ],
      "name": "supportsInterface",
      "outputs": [
        {
          "internalType": "bool",
          "name": "",
          "type": "bool"
        }
      ],
      "stateMutability": "view",
      "type": "function"
    },
    {
      "inputs": [],
      "name": "symbol",
      "outputs": [
        {
          "internalType": "string",
          "name": "",
          "type": "string"
        }
      ],
      "stateMutability": "view",
      "type": "function"
    },
    {
      "inputs": [
        {
          "internalType": "uint256",
          "name": "index",
          "type": "uint256"
        }
      ],
      "name": "tokenByIndex",
      "outputs": [
        {
          "internalType": "uint256",
          "name": "",
          "type": "uint256"
        }
      ],
      "stateMutability": "view",
      "type": "function"
    },
    {
      "inputs": [
        {
          "internalType": "address",
          "name": "owner",
          "type": "address"
        },
        {
          "internalType": "uint256",
          "name": "index",
          "type": "uint256"
        }
      ],
      "name": "tokenOfOwnerByIndex",
      "outputs": [
        {
          "internalType": "uint256",
          "name": "",
          "type": "uint256"
        }
      ],
      "stateMutability": "view",
      "type": "function"
    },
    {
      "inputs": [
        {
          "internalType": "uint256",
          "name": "tokenId",
          "type": "uint256"
        }
      ],
      "name": "tokenURI",
      "outputs": [
        {
          "internalType": "string",
          "name": "",
          "type": "string"
        }
      ],
      "stateMutability": "view",
      "type": "function"
    },
    {
      "inputs": [],
      "name": "totalSupply",
      "outputs": [
        {
          "internalType": "uint256",
          "name": "",
          "type": "uint256"
        }
      ],
      "stateMutability": "view",
      "type": "function"
    },
    {
      "inputs": [
        {
          "internalType": "address",
          "name": "from",
          "type": "address"
        },
        {
          "internalType": "address",
          "name": "to",
          "type": "address"
        },
        {
          "internalType": "uint256",
          "name": "tokenId",
          "type": "uint256"
        }
      ],
      "name": "transferFrom",
      "outputs": [],
      "stateMutability": "nonpayable",
      "type": "function"
    },
    {
      "inputs": [],
      "name": "unpause",
      "outputs": [],
      "stateMutability": "nonpayable",
      "type": "function"
    },
    {
      "inputs": [
        {
          "internalType": "address",
          "name": "newImplementation",
          "type": "address"
        }
      ],
      "name": "upgradeTo",
      "outputs": [],
      "stateMutability": "nonpayable",
      "type": "function"
    },
    {
      "inputs": [
        {
          "internalType": "address",
          "name": "newImplementation",
          "type": "address"
        },
        {
          "internalType": "bytes",
          "name": "data",
          "type": "bytes"
        }
      ],
      "name": "upgradeToAndCall",
      "outputs": [],
      "stateMutability": "payable",
      "type": "function"
    }
  ],
  "transactionHash": "0x666d84045b48a1f1ddc38750b3760e2123450649f2c2f1aaf89b988afdaf026a",
  "args": [],
  "numDeployments": 1,
  "solcInputHash": "7a0e8d6c461a3e08b57a40bca980dea4",
  "bytecode": "0x60a0604052306080523480156200001557600080fd5b506200002062000026565b620000e8565b600054610100900460ff1615620000935760405162461bcd60e51b815260206004820152602760248201527f496e697469616c697a61626c653a20636f6e747261637420697320696e697469604482015266616c697a696e6760c81b606482015260840160405180910390fd5b60005460ff9081161015620000e6576000805460ff191660ff9081179091556040519081527f7f26b83ff96e1f2b6a682f133852f6798a09c465da95921460cefb38474024989060200160405180910390a15b565b608051613f746200012060003960008181610b4d01528181610b8d01528181610cc001528181610d000152610e220152613f746000f3fe6080604052600436106102515760003560e01c80635c975abb11610139578063a217fddf116100b6578063d204c45e1161007a578063d204c45e146106cf578063d5391393146106ef578063d547741f14610723578063e63ab1e914610743578063e985e9c514610765578063f72c0d8b146107ae57600080fd5b8063a217fddf1461063a578063a22cb4651461064f578063b88d4fde1461066f578063c3cda5201461068f578063c87b56dd146106af57600080fd5b80638456cb59116100fd5780638456cb59146105b05780638e539e8c146105c557806391d14854146105e557806395d89b41146106055780639ab24eb01461061a57600080fd5b80635c975abb146105235780636352211e1461053b57806370a082311461055b5780637ecebe001461057b5780638129fc1c1461059b57600080fd5b806336568abe116101d257806342966c681161019657806342966c68146104615780634f1ef286146104815780634f6ccce71461049457806352d1902d146104b4578063587cde1e146104c95780635c19a95c1461050357600080fd5b806336568abe146103cc5780633659cfe6146103ec5780633a46b1a81461040c5780633f4ba83a1461042c57806342842e0e1461044157600080fd5b806323b872dd1161021957806323b872dd14610326578063248a9ca3146103465780632f2ff15d146103775780632f745c59146103975780633644e515146103b757600080fd5b806301ffc9a71461025657806306fdde031461028b578063081812fc146102ad578063095ea7b3146102e557806318160ddd14610307575b600080fd5b34801561026257600080fd5b506102766102713660046136af565b6107e2565b60405190151581526020015b60405180910390f35b34801561029757600080fd5b506102a06107f3565b6040516102829190613724565b3480156102b957600080fd5b506102cd6102c8366004613737565b610885565b6040516001600160a01b039091168152602001610282565b3480156102f157600080fd5b5061030561030036600461376c565b6108ac565b005b34801561031357600080fd5b506099545b604051908152602001610282565b34801561033257600080fd5b50610305610341366004613796565b6109c7565b34801561035257600080fd5b50610318610361366004613737565b600090815261012d602052604090206001015490565b34801561038357600080fd5b506103056103923660046137d2565b6109f9565b3480156103a357600080fd5b506103186103b236600461376c565b610a1f565b3480156103c357600080fd5b50610318610ab5565b3480156103d857600080fd5b506103056103e73660046137d2565b610ac4565b3480156103f857600080fd5b506103056104073660046137fe565b610b42565b34801561041857600080fd5b5061031861042736600461376c565b610c22565b34801561043857600080fd5b50610305610c4c565b34801561044d57600080fd5b5061030561045c366004613796565b610c6c565b34801561046d57600080fd5b5061030561047c366004613737565b610c87565b61030561048f3660046138c5565b610cb5565b3480156104a057600080fd5b506103186104af366004613737565b610d82565b3480156104c057600080fd5b50610318610e15565b3480156104d557600080fd5b506102cd6104e43660046137fe565b6001600160a01b0390811660009081526101c560205260409020541690565b34801561050f57600080fd5b5061030561051e3660046137fe565b610ec8565b34801561052f57600080fd5b5060fb5460ff16610276565b34801561054757600080fd5b506102cd610556366004613737565b610ed3565b34801561056757600080fd5b506103186105763660046137fe565b610f33565b34801561058757600080fd5b506103186105963660046137fe565b610fb9565b3480156105a757600080fd5b50610305610fd8565b3480156105bc57600080fd5b50610305611213565b3480156105d157600080fd5b506103186105e0366004613737565b611233565b3480156105f157600080fd5b506102766106003660046137d2565b611290565b34801561061157600080fd5b506102a06112bc565b34801561062657600080fd5b506103186106353660046137fe565b6112cb565b34801561064657600080fd5b50610318600081565b34801561065b57600080fd5b5061030561066a366004613913565b6112ed565b34801561067b57600080fd5b5061030561068a36600461394f565b6112f8565b34801561069b57600080fd5b506103056106aa3660046139b7565b611330565b3480156106bb57600080fd5b506102a06106ca366004613737565b61145d565b3480156106db57600080fd5b506103056106ea366004613a17565b611468565b3480156106fb57600080fd5b506103187f9f2df0fed2c77648de5860a4cc508cd0818c85b8b8a1ab4ceeef8d981c8956a681565b34801561072f57600080fd5b5061030561073e3660046137d2565b6114c3565b34801561074f57600080fd5b50610318600080516020613ef883398151915281565b34801561077157600080fd5b50610276610780366004613a6f565b6001600160a01b039182166000908152606a6020908152604080832093909416825291909152205460ff1690565b3480156107ba57600080fd5b506103187f189ab7a9244df0848122154315af71fe140f3db0fe014031783b0946b8c9d2e381565b60006107ed826114e9565b92915050565b60606065805461080290613a99565b80601f016020809104026020016040519081016040528092919081815260200182805461082e90613a99565b801561087b5780601f106108505761010080835404028352916020019161087b565b820191906000526020600020905b81548152906001019060200180831161085e57829003601f168201915b5050505050905090565b60006108908261150e565b506000908152606960205260409020546001600160a01b031690565b60006108b782610ed3565b9050806001600160a01b0316836001600160a01b0316141561092a5760405162461bcd60e51b815260206004820152602160248201527f4552433732313a20617070726f76616c20746f2063757272656e74206f776e656044820152603960f91b60648201526084015b60405180910390fd5b336001600160a01b038216148061094657506109468133610780565b6109b85760405162461bcd60e51b815260206004820152603e60248201527f4552433732313a20617070726f76652063616c6c6572206973206e6f7420746f60448201527f6b656e206f776e6572206e6f7220617070726f76656420666f7220616c6c00006064820152608401610921565b6109c2838361156d565b505050565b6109d2335b826115db565b6109ee5760405162461bcd60e51b815260040161092190613ace565b6109c283838361165a565b600082815261012d6020526040902060010154610a1581611807565b6109c28383611811565b6000610a2a83610f33565b8210610a8c5760405162461bcd60e51b815260206004820152602b60248201527f455243373231456e756d657261626c653a206f776e657220696e646578206f7560448201526a74206f6620626f756e647360a81b6064820152608401610921565b506001600160a01b03919091166000908152609760209081526040808320938352929052205490565b6000610abf611898565b905090565b6001600160a01b0381163314610b345760405162461bcd60e51b815260206004820152602f60248201527f416363657373436f6e74726f6c3a2063616e206f6e6c792072656e6f756e636560448201526e103937b632b9903337b91039b2b63360891b6064820152608401610921565b610b3e8282611915565b5050565b306001600160a01b037f0000000000000000000000000000000000000000000000000000000000000000161415610b8b5760405162461bcd60e51b815260040161092190613b1c565b7f00000000000000000000000000000000000000000000000000000000000000006001600160a01b0316610bd4600080516020613ed8833981519152546001600160a01b031690565b6001600160a01b031614610bfa5760405162461bcd60e51b815260040161092190613b68565b610c038161197d565b60408051600080825260208201909252610c1f918391906119a7565b50565b6001600160a01b03821660009081526101c660205260408120610c459083611b21565b9392505050565b600080516020613ef8833981519152610c6481611807565b610c1f611c30565b6109c2838383604051806020016040528060008152506112f8565b610c90336109cc565b610cac5760405162461bcd60e51b815260040161092190613ace565b610c1f81611c82565b306001600160a01b037f0000000000000000000000000000000000000000000000000000000000000000161415610cfe5760405162461bcd60e51b815260040161092190613b1c565b7f00000000000000000000000000000000000000000000000000000000000000006001600160a01b0316610d47600080516020613ed8833981519152546001600160a01b031690565b6001600160a01b031614610d6d5760405162461bcd60e51b815260040161092190613b68565b610d768261197d565b610b3e828260016119a7565b6000610d8d60995490565b8210610df05760405162461bcd60e51b815260206004820152602c60248201527f455243373231456e756d657261626c653a20676c6f62616c20696e646578206f60448201526b7574206f6620626f756e647360a01b6064820152608401610921565b60998281548110610e0357610e03613bb4565b90600052602060002001549050919050565b6000306001600160a01b037f00000000000000000000000000000000000000000000000000000000000000001614610eb55760405162461bcd60e51b815260206004820152603860248201527f555550535570677261646561626c653a206d757374206e6f742062652063616c60448201527f6c6564207468726f7567682064656c656761746563616c6c00000000000000006064820152608401610921565b50600080516020613ed883398151915290565b33610b3e8183611c8b565b6000818152606760205260408120546001600160a01b0316806107ed5760405162461bcd60e51b8152602060048201526018602482015277115490cdcc8c4e881a5b9d985b1a59081d1bdad95b88125160421b6044820152606401610921565b60006001600160a01b038216610f9d5760405162461bcd60e51b815260206004820152602960248201527f4552433732313a2061646472657373207a65726f206973206e6f7420612076616044820152683634b21037bbb732b960b91b6064820152608401610921565b506001600160a01b031660009081526068602052604090205490565b6001600160a01b03811660009081526101c860205260408120546107ed565b600054610100900460ff1615808015610ff85750600054600160ff909116105b806110125750303b158015611012575060005460ff166001145b6110755760405162461bcd60e51b815260206004820152602e60248201527f496e697469616c697a61626c653a20636f6e747261637420697320616c72656160448201526d191e481a5b9a5d1a585b1a5e995960921b6064820152608401610921565b6000805460ff191660011790558015611098576000805461ff0019166101001790555b6110db60405180604001604052806006815260200165135a5b9a525160d21b8152506040518060400160405280600381526020016213525160ea1b815250611cfe565b6110e3611d2f565b6110eb611d2f565b6110f3611d58565b6110fb611d2f565b611103611d2f565b61114460405180604001604052806006815260200165135a5b9a525160d21b815250604051806040016040528060018152602001603160f81b815250611d87565b61114c611d2f565b611154611d2f565b61115f600033611811565b611177600080516020613ef883398151915233611811565b6111a17f9f2df0fed2c77648de5860a4cc508cd0818c85b8b8a1ab4ceeef8d981c8956a633611811565b6111cb7f189ab7a9244df0848122154315af71fe140f3db0fe014031783b0946b8c9d2e333611811565b8015610c1f576000805461ff0019169055604051600181527f7f26b83ff96e1f2b6a682f133852f6798a09c465da95921460cefb38474024989060200160405180910390a150565b600080516020613ef883398151915261122b81611807565b610c1f611db8565b60004382106112845760405162461bcd60e51b815260206004820152601a60248201527f566f7465733a20626c6f636b206e6f7420796574206d696e65640000000000006044820152606401610921565b6107ed6101c783611b21565b600091825261012d602090815260408084206001600160a01b0393909316845291905290205460ff1690565b60606066805461080290613a99565b6001600160a01b03811660009081526101c6602052604081206107ed90611df5565b610b3e338383611e51565b61130233836115db565b61131e5760405162461bcd60e51b815260040161092190613ace565b61132a84848484611f20565b50505050565b834211156113805760405162461bcd60e51b815260206004820152601860248201527f566f7465733a207369676e6174757265206578706972656400000000000000006044820152606401610921565b604080517fe48329057bfd03d55e49b547132e39cffd9c1820ad7b9d4c5307691425d15adf60208201526001600160a01b0388169181019190915260608101869052608081018590526000906113fa906113f29060a00160405160208183030381529060405280519060200120611f53565b858585611fa1565b905061140581611fc9565b861461144a5760405162461bcd60e51b8152602060048201526014602482015273566f7465733a20696e76616c6964206e6f6e636560601b6044820152606401610921565b6114548188611c8b565b50505050505050565b60606107ed82611ff2565b7f9f2df0fed2c77648de5860a4cc508cd0818c85b8b8a1ab4ceeef8d981c8956a661149281611807565b600061149e61028d5490565b90506114af61028d80546001019055565b6114b984826120ee565b61132a8184612108565b600082815261012d60205260409020600101546114df81611807565b6109c28383611915565b60006001600160e01b03198216637965db0b60e01b14806107ed57506107ed826121a2565b6000818152606760205260409020546001600160a01b0316610c1f5760405162461bcd60e51b8152602060048201526018602482015277115490cdcc8c4e881a5b9d985b1a59081d1bdad95b88125160421b6044820152606401610921565b600081815260696020526040902080546001600160a01b0319166001600160a01b03841690811790915581906115a282610ed3565b6001600160a01b03167f8c5be1e5ebec7d5bd14f71427d1e84f3dd0314c0f7b2291e5b200ac8c7c3b92560405160405180910390a45050565b6000806115e783610ed3565b9050806001600160a01b0316846001600160a01b0316148061162e57506001600160a01b038082166000908152606a602090815260408083209388168352929052205460ff165b806116525750836001600160a01b031661164784610885565b6001600160a01b0316145b949350505050565b826001600160a01b031661166d82610ed3565b6001600160a01b0316146116d15760405162461bcd60e51b815260206004820152602560248201527f4552433732313a207472616e736665722066726f6d20696e636f72726563742060448201526437bbb732b960d91b6064820152608401610921565b6001600160a01b0382166117335760405162461bcd60e51b8152602060048201526024808201527f4552433732313a207472616e7366657220746f20746865207a65726f206164646044820152637265737360e01b6064820152608401610921565b61173e8383836121c7565b61174960008261156d565b6001600160a01b0383166000908152606860205260408120805460019290611772908490613be0565b90915550506001600160a01b03821660009081526068602052604081208054600192906117a0908490613bf7565b909155505060008181526067602052604080822080546001600160a01b0319166001600160a01b0386811691821790925591518493918716917fddf252ad1be2c89b69c2b068fc378daa952ba7f163c4a11628f55a4df523b3ef91a46109c28383836121da565b610c1f81336121e5565b61181b8282611290565b610b3e57600082815261012d602090815260408083206001600160a01b03851684529091529020805460ff191660011790556118543390565b6001600160a01b0316816001600160a01b0316837f2f8788117e7eff1d82e926ec794901d17c78024a50270940304540a733656f0d60405160405180910390a45050565b6000610abf7f8b73c3c69bb8fe3d512ecc4cf759cc79239f7b179b0ffacaa9a75d522b39400f6118c86101915490565b610192546040805160208101859052908101839052606081018290524660808201523060a082015260009060c0016040516020818303038152906040528051906020012090509392505050565b61191f8282611290565b15610b3e57600082815261012d602090815260408083206001600160a01b0385168085529252808320805460ff1916905551339285917ff6391f5c32d9c69d2a47ea670b442974b53935d1edc7fd64eb21e047a839171b9190a45050565b7f189ab7a9244df0848122154315af71fe140f3db0fe014031783b0946b8c9d2e3610b3e81611807565b7f4910fdfa16fed3260ed0e7147f7cc6da11a60208b5b9406d12a635614ffd91435460ff16156119da576109c283612249565b826001600160a01b03166352d1902d6040518163ffffffff1660e01b815260040160206040518083038186803b158015611a1357600080fd5b505afa925050508015611a43575060408051601f3d908101601f19168201909252611a4091810190613c0f565b60015b611aa65760405162461bcd60e51b815260206004820152602e60248201527f45524331393637557067726164653a206e657720696d706c656d656e7461746960448201526d6f6e206973206e6f74205555505360901b6064820152608401610921565b600080516020613ed88339815191528114611b155760405162461bcd60e51b815260206004820152602960248201527f45524331393637557067726164653a20756e737570706f727465642070726f786044820152681a58589b195555525160ba1b6064820152608401610921565b506109c28383836122e5565b6000438210611b725760405162461bcd60e51b815260206004820181905260248201527f436865636b706f696e74733a20626c6f636b206e6f7420796574206d696e65646044820152606401610921565b825460005b81811015611bd7576000611b8b828461230a565b905084866000018281548110611ba357611ba3613bb4565b60009182526020909120015463ffffffff161115611bc357809250611bd1565b611bce816001613bf7565b91505b50611b77565b8115611c1b5784611be9600184613be0565b81548110611bf957611bf9613bb4565b60009182526020909120015464010000000090046001600160e01b0316611c1e565b60005b6001600160e01b031695945050505050565b611c38612325565b60fb805460ff191690557f5db9ee0a495bf2e6ff9c91a7834c1ba4fdd244a5e8aa4e537bd38aeae4b073aa335b6040516001600160a01b03909116815260200160405180910390a1565b610c1f8161236e565b6001600160a01b0382811660008181526101c5602052604080822080548686166001600160a01b0319821681179092559151919094169392849290917f3134e8a2e6d97e929a7e54011ea5485d7d196dd5f0ba4d4ef95803e8e3fc257f9190a46109c28183611cf9866123ae565b6123b9565b600054610100900460ff16611d255760405162461bcd60e51b815260040161092190613c28565b610b3e82826124f8565b600054610100900460ff16611d565760405162461bcd60e51b815260040161092190613c28565b565b600054610100900460ff16611d7f5760405162461bcd60e51b815260040161092190613c28565b611d56612546565b600054610100900460ff16611dae5760405162461bcd60e51b815260040161092190613c28565b610b3e8282612579565b611dc06125bc565b60fb805460ff191660011790557f62e78cea01bee320cd4e420270b5ea74000d11b0c9f74754ebdbfc544b05a258611c653390565b80546000908015611e3e5782611e0c600183613be0565b81548110611e1c57611e1c613bb4565b60009182526020909120015464010000000090046001600160e01b0316611e41565b60005b6001600160e01b03169392505050565b816001600160a01b0316836001600160a01b03161415611eb35760405162461bcd60e51b815260206004820152601960248201527f4552433732313a20617070726f766520746f2063616c6c6572000000000000006044820152606401610921565b6001600160a01b038381166000818152606a6020908152604080832094871680845294825291829020805460ff191686151590811790915591519182527f17307eab39ab6107e8899845ad3d59bd9653f200f220920489ca2b5937696c31910160405180910390a3505050565b611f2b84848461165a565b611f3784848484612602565b61132a5760405162461bcd60e51b815260040161092190613c73565b60006107ed611f60611898565b8360405161190160f01b6020820152602281018390526042810182905260009060620160405160208183030381529060405280519060200120905092915050565b6000806000611fb28787878761270c565b91509150611fbf816127f9565b5095945050505050565b6001600160a01b03811660009081526101c8602052604090208054600181018255905b50919050565b6060611ffd8261150e565b600082815260c960205260408120805461201690613a99565b80601f016020809104026020016040519081016040528092919081815260200182805461204290613a99565b801561208f5780601f106120645761010080835404028352916020019161208f565b820191906000526020600020905b81548152906001019060200180831161207257829003601f168201915b5050505050905060006120a06129b4565b90508051600014156120b3575092915050565b8151156120e55780826040516020016120cd929190613cc5565b60405160208183030381529060405292505050919050565b611652846129d4565b610b3e828260405180602001604052806000815250612a3a565b6000828152606760205260409020546001600160a01b03166121835760405162461bcd60e51b815260206004820152602e60248201527f45524337323155524953746f726167653a2055524920736574206f66206e6f6e60448201526d32bc34b9ba32b73a103a37b5b2b760911b6064820152608401610921565b600082815260c96020908152604090912082516109c2928401906135ce565b60006001600160e01b0319821663780e9d6360e01b14806107ed57506107ed82612a6d565b6121cf6125bc565b6109c2838383612abd565b6109c2838383612b75565b6121ef8282611290565b610b3e57612207816001600160a01b03166014612b81565b612212836020612b81565b604051602001612223929190613cf4565b60408051601f198184030181529082905262461bcd60e51b825261092191600401613724565b6001600160a01b0381163b6122b65760405162461bcd60e51b815260206004820152602d60248201527f455243313936373a206e657720696d706c656d656e746174696f6e206973206e60448201526c1bdd08184818dbdb9d1c9858dd609a1b6064820152608401610921565b600080516020613ed883398151915280546001600160a01b0319166001600160a01b0392909216919091179055565b6122ee83612d1d565b6000825111806122fb5750805b156109c25761132a8383612d5d565b60006123196002848418613d7f565b610c4590848416613bf7565b60fb5460ff16611d565760405162461bcd60e51b815260206004820152601460248201527314185d5cd8589b194e881b9bdd081c185d5cd95960621b6044820152606401610921565b61237781612e51565b600081815260c960205260409020805461239090613a99565b159050610c1f57600081815260c960205260408120610c1f9161364e565b60006107ed82610f33565b816001600160a01b0316836001600160a01b0316141580156123db5750600081115b156109c2576001600160a01b0383161561246a576001600160a01b03831660009081526101c660205260408120819061241790612f0085612f0c565b91509150846001600160a01b03167fdec2bacdd2f05b59de34da9b523dff8be42e5e38e818c82fdb0bae774387a724838360405161245f929190918252602082015260400190565b60405180910390a250505b6001600160a01b038216156109c2576001600160a01b03821660009081526101c66020526040812081906124a190612f3a85612f0c565b91509150836001600160a01b03167fdec2bacdd2f05b59de34da9b523dff8be42e5e38e818c82fdb0bae774387a72483836040516124e9929190918252602082015260400190565b60405180910390a25050505050565b600054610100900460ff1661251f5760405162461bcd60e51b815260040161092190613c28565b81516125329060659060208501906135ce565b5080516109c29060669060208401906135ce565b600054610100900460ff1661256d5760405162461bcd60e51b815260040161092190613c28565b60fb805460ff19169055565b600054610100900460ff166125a05760405162461bcd60e51b815260040161092190613c28565b8151602092830120815191909201206101919190915561019255565b60fb5460ff1615611d565760405162461bcd60e51b815260206004820152601060248201526f14185d5cd8589b194e881c185d5cd95960821b6044820152606401610921565b60006001600160a01b0384163b1561270457604051630a85bd0160e11b81526001600160a01b0385169063150b7a0290612646903390899088908890600401613d93565b602060405180830381600087803b15801561266057600080fd5b505af1925050508015612690575060408051601f3d908101601f1916820190925261268d91810190613dd0565b60015b6126ea573d8080156126be576040519150601f19603f3d011682016040523d82523d6000602084013e6126c3565b606091505b5080516126e25760405162461bcd60e51b815260040161092190613c73565b805181602001fd5b6001600160e01b031916630a85bd0160e11b149050611652565b506001611652565b6000807f7fffffffffffffffffffffffffffffff5d576e7357a4501ddfe92f46681b20a083111561274357506000905060036127f0565b8460ff16601b1415801561275b57508460ff16601c14155b1561276c57506000905060046127f0565b6040805160008082526020820180845289905260ff881692820192909252606081018690526080810185905260019060a0016020604051602081039080840390855afa1580156127c0573d6000803e3d6000fd5b5050604051601f1901519150506001600160a01b0381166127e9576000600192509250506127f0565b9150600090505b94509492505050565b600081600481111561280d5761280d613ded565b14156128165750565b600181600481111561282a5761282a613ded565b14156128785760405162461bcd60e51b815260206004820152601860248201527f45434453413a20696e76616c6964207369676e617475726500000000000000006044820152606401610921565b600281600481111561288c5761288c613ded565b14156128da5760405162461bcd60e51b815260206004820152601f60248201527f45434453413a20696e76616c6964207369676e6174757265206c656e677468006044820152606401610921565b60038160048111156128ee576128ee613ded565b14156129475760405162461bcd60e51b815260206004820152602260248201527f45434453413a20696e76616c6964207369676e6174757265202773272076616c604482015261756560f01b6064820152608401610921565b600481600481111561295b5761295b613ded565b1415610c1f5760405162461bcd60e51b815260206004820152602260248201527f45434453413a20696e76616c6964207369676e6174757265202776272076616c604482015261756560f01b6064820152608401610921565b60606040518060600160405280603d8152602001613e9b603d9139905090565b60606129df8261150e565b60006129e96129b4565b90506000815111612a095760405180602001604052806000815250610c45565b80612a1384612f46565b604051602001612a24929190613cc5565b6040516020818303038152906040529392505050565b612a448383613044565b612a516000848484612602565b6109c25760405162461bcd60e51b815260040161092190613c73565b60006001600160e01b031982166380ac58cd60e01b1480612a9e57506001600160e01b03198216635b5e139f60e01b145b806107ed57506301ffc9a760e01b6001600160e01b03198316146107ed565b6001600160a01b038316612b1857612b1381609980546000838152609a60205260408120829055600182018355919091527f72a152ddfb8e864297c917af52ea6c1c68aead0fee1a62673fcc7e0c94979d000155565b612b3b565b816001600160a01b0316836001600160a01b031614612b3b57612b3b838261319a565b6001600160a01b038216612b52576109c281613237565b826001600160a01b0316826001600160a01b0316146109c2576109c282826132e6565b6109c28383600161332a565b60606000612b90836002613e03565b612b9b906002613bf7565b67ffffffffffffffff811115612bb357612bb3613819565b6040519080825280601f01601f191660200182016040528015612bdd576020820181803683370190505b509050600360fc1b81600081518110612bf857612bf8613bb4565b60200101906001600160f81b031916908160001a905350600f60fb1b81600181518110612c2757612c27613bb4565b60200101906001600160f81b031916908160001a9053506000612c4b846002613e03565b612c56906001613bf7565b90505b6001811115612cce576f181899199a1a9b1b9c1cb0b131b232b360811b85600f1660108110612c8a57612c8a613bb4565b1a60f81b828281518110612ca057612ca0613bb4565b60200101906001600160f81b031916908160001a90535060049490941c93612cc781613e22565b9050612c59565b508315610c455760405162461bcd60e51b815260206004820181905260248201527f537472696e67733a20686578206c656e67746820696e73756666696369656e746044820152606401610921565b612d2681612249565b6040516001600160a01b038216907fbc7cd75a20ee27fd9adebab32041f755214dbc6bffa90cc0225b39da2e5c2d3b90600090a250565b60606001600160a01b0383163b612dc55760405162461bcd60e51b815260206004820152602660248201527f416464726573733a2064656c65676174652063616c6c20746f206e6f6e2d636f6044820152651b9d1c9858dd60d21b6064820152608401610921565b600080846001600160a01b031684604051612de09190613e39565b600060405180830381855af49150503d8060008114612e1b576040519150601f19603f3d011682016040523d82523d6000602084013e612e20565b606091505b5091509150612e488282604051806060016040528060278152602001613f186027913961339d565b95945050505050565b6000612e5c82610ed3565b9050612e6a816000846121c7565b612e7560008361156d565b6001600160a01b0381166000908152606860205260408120805460019290612e9e908490613be0565b909155505060008281526067602052604080822080546001600160a01b0319169055518391906001600160a01b038416907fddf252ad1be2c89b69c2b068fc378daa952ba7f163c4a11628f55a4df523b3ef908390a4610b3e816000846121da565b6000610c458284613be0565b600080612f2e85612f29612f1f88611df5565b868863ffffffff16565b6133d6565b91509150935093915050565b6000610c458284613bf7565b606081612f6a5750506040805180820190915260018152600360fc1b602082015290565b8160005b8115612f945780612f7e81613e55565b9150612f8d9050600a83613d7f565b9150612f6e565b60008167ffffffffffffffff811115612faf57612faf613819565b6040519080825280601f01601f191660200182016040528015612fd9576020820181803683370190505b5090505b841561165257612fee600183613be0565b9150612ffb600a86613e70565b613006906030613bf7565b60f81b81838151811061301b5761301b613bb4565b60200101906001600160f81b031916908160001a90535061303d600a86613d7f565b9450612fdd565b6001600160a01b03821661309a5760405162461bcd60e51b815260206004820181905260248201527f4552433732313a206d696e7420746f20746865207a65726f20616464726573736044820152606401610921565b6000818152606760205260409020546001600160a01b0316156130ff5760405162461bcd60e51b815260206004820152601c60248201527f4552433732313a20746f6b656e20616c7265616479206d696e746564000000006044820152606401610921565b61310b600083836121c7565b6001600160a01b0382166000908152606860205260408120805460019290613134908490613bf7565b909155505060008181526067602052604080822080546001600160a01b0319166001600160a01b03861690811790915590518392907fddf252ad1be2c89b69c2b068fc378daa952ba7f163c4a11628f55a4df523b3ef908290a4610b3e600083836121da565b600060016131a784610f33565b6131b19190613be0565b600083815260986020526040902054909150808214613204576001600160a01b03841660009081526097602090815260408083208584528252808320548484528184208190558352609890915290208190555b5060009182526098602090815260408084208490556001600160a01b039094168352609781528383209183525290812055565b60995460009061324990600190613be0565b6000838152609a60205260408120546099805493945090928490811061327157613271613bb4565b90600052602060002001549050806099838154811061329257613292613bb4565b6000918252602080832090910192909255828152609a909152604080822084905585825281205560998054806132ca576132ca613e84565b6001900381819060005260206000200160009055905550505050565b60006132f183610f33565b6001600160a01b039093166000908152609760209081526040808320868452825280832085905593825260989052919091209190915550565b6001600160a01b03831661334a576133476101c7612f3a83612f0c565b50505b6001600160a01b03821661336a576133676101c7612f0083612f0c565b50505b6001600160a01b0383811660009081526101c560205260408082205485841683529120546109c2929182169116836123b9565b606083156133ac575081610c45565b8251156133bc5782518084602001fd5b8160405162461bcd60e51b81526004016109219190613724565b81546000908190816133e786611df5565b905060008211801561342557504386613401600185613be0565b8154811061341157613411613bb4565b60009182526020909120015463ffffffff16145b1561348557613433856134fc565b8661343f600185613be0565b8154811061344f5761344f613bb4565b9060005260206000200160000160046101000a8154816001600160e01b0302191690836001600160e01b031602179055506134f3565b85600001604051806040016040528061349d43613569565b63ffffffff1681526020016134b1886134fc565b6001600160e01b0390811690915282546001810184556000938452602093849020835194909301519091166401000000000263ffffffff909316929092179101555b95939450505050565b60006001600160e01b038211156135655760405162461bcd60e51b815260206004820152602760248201527f53616665436173743a2076616c756520646f65736e27742066697420696e20326044820152663234206269747360c81b6064820152608401610921565b5090565b600063ffffffff8211156135655760405162461bcd60e51b815260206004820152602660248201527f53616665436173743a2076616c756520646f65736e27742066697420696e203360448201526532206269747360d01b6064820152608401610921565b8280546135da90613a99565b90600052602060002090601f0160209004810192826135fc5760008555613642565b82601f1061361557805160ff1916838001178555613642565b82800160010185558215613642579182015b82811115613642578251825591602001919060010190613627565b50613565929150613684565b50805461365a90613a99565b6000825580601f1061366a575050565b601f016020900490600052602060002090810190610c1f91905b5b808211156135655760008155600101613685565b6001600160e01b031981168114610c1f57600080fd5b6000602082840312156136c157600080fd5b8135610c4581613699565b60005b838110156136e75781810151838201526020016136cf565b8381111561132a5750506000910152565b600081518084526137108160208601602086016136cc565b601f01601f19169290920160200192915050565b602081526000610c4560208301846136f8565b60006020828403121561374957600080fd5b5035919050565b80356001600160a01b038116811461376757600080fd5b919050565b6000806040838503121561377f57600080fd5b61378883613750565b946020939093013593505050565b6000806000606084860312156137ab57600080fd5b6137b484613750565b92506137c260208501613750565b9150604084013590509250925092565b600080604083850312156137e557600080fd5b823591506137f560208401613750565b90509250929050565b60006020828403121561381057600080fd5b610c4582613750565b634e487b7160e01b600052604160045260246000fd5b600067ffffffffffffffff8084111561384a5761384a613819565b604051601f8501601f19908116603f0116810190828211818310171561387257613872613819565b8160405280935085815286868601111561388b57600080fd5b858560208301376000602087830101525050509392505050565b600082601f8301126138b657600080fd5b610c458383356020850161382f565b600080604083850312156138d857600080fd5b6138e183613750565b9150602083013567ffffffffffffffff8111156138fd57600080fd5b613909858286016138a5565b9150509250929050565b6000806040838503121561392657600080fd5b61392f83613750565b91506020830135801515811461394457600080fd5b809150509250929050565b6000806000806080858703121561396557600080fd5b61396e85613750565b935061397c60208601613750565b925060408501359150606085013567ffffffffffffffff81111561399f57600080fd5b6139ab878288016138a5565b91505092959194509250565b60008060008060008060c087890312156139d057600080fd5b6139d987613750565b95506020870135945060408701359350606087013560ff811681146139fd57600080fd5b9598949750929560808101359460a0909101359350915050565b60008060408385031215613a2a57600080fd5b613a3383613750565b9150602083013567ffffffffffffffff811115613a4f57600080fd5b8301601f81018513613a6057600080fd5b6139098582356020840161382f565b60008060408385031215613a8257600080fd5b613a8b83613750565b91506137f560208401613750565b600181811c90821680613aad57607f821691505b60208210811415611fec57634e487b7160e01b600052602260045260246000fd5b6020808252602e908201527f4552433732313a2063616c6c6572206973206e6f7420746f6b656e206f776e6560408201526d1c881b9bdc88185c1c1c9bdd995960921b606082015260800190565b6020808252602c908201527f46756e6374696f6e206d7573742062652063616c6c6564207468726f7567682060408201526b19195b1959d85d1958d85b1b60a21b606082015260800190565b6020808252602c908201527f46756e6374696f6e206d7573742062652063616c6c6564207468726f7567682060408201526b6163746976652070726f787960a01b606082015260800190565b634e487b7160e01b600052603260045260246000fd5b634e487b7160e01b600052601160045260246000fd5b600082821015613bf257613bf2613bca565b500390565b60008219821115613c0a57613c0a613bca565b500190565b600060208284031215613c2157600080fd5b5051919050565b6020808252602b908201527f496e697469616c697a61626c653a20636f6e7472616374206973206e6f74206960408201526a6e697469616c697a696e6760a81b606082015260800190565b60208082526032908201527f4552433732313a207472616e7366657220746f206e6f6e20455243373231526560408201527131b2b4bb32b91034b6b83632b6b2b73a32b960711b606082015260800190565b60008351613cd78184602088016136cc565b835190830190613ceb8183602088016136cc565b01949350505050565b7f416363657373436f6e74726f6c3a206163636f756e7420000000000000000000815260008351613d2c8160178501602088016136cc565b7001034b99036b4b9b9b4b733903937b6329607d1b6017918401918201528351613d5d8160288401602088016136cc565b01602801949350505050565b634e487b7160e01b600052601260045260246000fd5b600082613d8e57613d8e613d69565b500490565b6001600160a01b0385811682528416602082015260408101839052608060608201819052600090613dc6908301846136f8565b9695505050505050565b600060208284031215613de257600080fd5b8151610c4581613699565b634e487b7160e01b600052602160045260246000fd5b6000816000190483118215151615613e1d57613e1d613bca565b500290565b600081613e3157613e31613bca565b506000190190565b60008251613e4b8184602087016136cc565b9190910192915050565b6000600019821415613e6957613e69613bca565b5060010190565b600082613e7f57613e7f613d69565b500690565b634e487b7160e01b600052603160045260246000fdfe697066733a2f2f516d6344325050616948794b375a346e364a4a54436e6f7353777272504b4b7a45524176574a6334696d45446a752f4d696e6949442f360894a13ba1a3210667c828492db98dca3e2076cc3735a920a3ca505d382bbc65d7a28e3265b37a6474929f336521b332c1681b933f6cb9f3376673440d862a416464726573733a206c6f772d6c6576656c2064656c65676174652063616c6c206661696c6564a2646970667358221220962d2b70db0776b9044696a49c32391ca18530e4e0fcb30097d72ec0e9988b7c64736f6c63430008090033",
  "devdoc": {
    "custom:security-contact": "john@johnwhitton.com",
    "kind": "dev",
    "methods": {
      "DOMAIN_SEPARATOR()": {
        "details": "Returns the contract's {EIP712} domain separator."
      },
      "approve(address,uint256)": {
        "details": "See {IERC721-approve}."
      },
      "balanceOf(address)": {
        "details": "See {IERC721-balanceOf}."
      },
      "burn(uint256)": {
        "details": "Burns `tokenId`. See {ERC721-_burn}. Requirements: - The caller must own `tokenId` or be an approved operator."
      },
      "constructor": {
        "custom:oz-upgrades-unsafe-allow": "constructor"
      },
      "delegate(address)": {
        "details": "Delegates votes from the sender to `delegatee`."
      },
      "delegateBySig(address,uint256,uint256,uint8,bytes32,bytes32)": {
        "details": "Delegates votes from signer to `delegatee`."
      },
      "delegates(address)": {
        "details": "Returns the delegate that `account` has chosen."
      },
      "getApproved(uint256)": {
        "details": "See {IERC721-getApproved}."
      },
      "getPastTotalSupply(uint256)": {
        "details": "Returns the total supply of votes available at the end of a past block (`blockNumber`). NOTE: This value is the sum of all available votes, which is not necessarily the sum of all delegated votes. Votes that have not been delegated are still part of total supply, even though they would not participate in a vote. Requirements: - `blockNumber` must have been already mined"
      },
      "getPastVotes(address,uint256)": {
        "details": "Returns the amount of votes that `account` had at the end of a past block (`blockNumber`). Requirements: - `blockNumber` must have been already mined"
      },
      "getRoleAdmin(bytes32)": {
        "details": "Returns the admin role that controls `role`. See {grantRole} and {revokeRole}. To change a role's admin, use {_setRoleAdmin}."
      },
      "getVotes(address)": {
        "details": "Returns the current amount of votes that `account` has."
      },
      "grantRole(bytes32,address)": {
        "details": "Grants `role` to `account`. If `account` had not been already granted `role`, emits a {RoleGranted} event. Requirements: - the caller must have ``role``'s admin role. May emit a {RoleGranted} event."
      },
      "hasRole(bytes32,address)": {
        "details": "Returns `true` if `account` has been granted `role`."
      },
      "isApprovedForAll(address,address)": {
        "details": "See {IERC721-isApprovedForAll}."
      },
      "name()": {
        "details": "See {IERC721Metadata-name}."
      },
      "nonces(address)": {
        "details": "Returns an address nonce."
      },
      "ownerOf(uint256)": {
        "details": "See {IERC721-ownerOf}."
      },
      "paused()": {
        "details": "Returns true if the contract is paused, and false otherwise."
      },
      "proxiableUUID()": {
        "details": "Implementation of the ERC1822 {proxiableUUID} function. This returns the storage slot used by the implementation. It is used to validate that the this implementation remains valid after an upgrade. IMPORTANT: A proxy pointing at a proxiable contract should not be considered proxiable itself, because this risks bricking a proxy that upgrades to it, by delegating to itself until out of gas. Thus it is critical that this function revert if invoked through a proxy. This is guaranteed by the `notDelegated` modifier."
      },
      "renounceRole(bytes32,address)": {
        "details": "Revokes `role` from the calling account. Roles are often managed via {grantRole} and {revokeRole}: this function's purpose is to provide a mechanism for accounts to lose their privileges if they are compromised (such as when a trusted device is misplaced). If the calling account had been revoked `role`, emits a {RoleRevoked} event. Requirements: - the caller must be `account`. May emit a {RoleRevoked} event."
      },
      "revokeRole(bytes32,address)": {
        "details": "Revokes `role` from `account`. If `account` had been granted `role`, emits a {RoleRevoked} event. Requirements: - the caller must have ``role``'s admin role. May emit a {RoleRevoked} event."
      },
      "safeTransferFrom(address,address,uint256)": {
        "details": "See {IERC721-safeTransferFrom}."
      },
      "safeTransferFrom(address,address,uint256,bytes)": {
        "details": "See {IERC721-safeTransferFrom}."
      },
      "setApprovalForAll(address,bool)": {
        "details": "See {IERC721-setApprovalForAll}."
      },
      "symbol()": {
        "details": "See {IERC721Metadata-symbol}."
      },
      "tokenByIndex(uint256)": {
        "details": "See {IERC721Enumerable-tokenByIndex}."
      },
      "tokenOfOwnerByIndex(address,uint256)": {
        "details": "See {IERC721Enumerable-tokenOfOwnerByIndex}."
      },
      "totalSupply()": {
        "details": "See {IERC721Enumerable-totalSupply}."
      },
      "transferFrom(address,address,uint256)": {
        "details": "See {IERC721-transferFrom}."
      },
      "upgradeTo(address)": {
        "details": "Upgrade the implementation of the proxy to `newImplementation`. Calls {_authorizeUpgrade}. Emits an {Upgraded} event."
      },
      "upgradeToAndCall(address,bytes)": {
        "details": "Upgrade the implementation of the proxy to `newImplementation`, and subsequently execute the function call encoded in `data`. Calls {_authorizeUpgrade}. Emits an {Upgraded} event."
      }
    },
    "version": 1
  },
  "userdoc": {
    "kind": "user",
    "methods": {},
    "version": 1
  },
  "storageLayout": {
    "storage": [
      {
        "astId": 1530,
        "contract": "contracts/nft/MiniID.sol:MiniID",
        "label": "_initialized",
        "offset": 0,
        "slot": "0",
        "type": "t_uint8"
      },
      {
        "astId": 1533,
        "contract": "contracts/nft/MiniID.sol:MiniID",
        "label": "_initializing",
        "offset": 1,
        "slot": "0",
        "type": "t_bool"
      },
      {
        "astId": 4162,
        "contract": "contracts/nft/MiniID.sol:MiniID",
        "label": "__gap",
        "offset": 0,
        "slot": "1",
        "type": "t_array(t_uint256)50_storage"
      },
      {
        "astId": 5104,
        "contract": "contracts/nft/MiniID.sol:MiniID",
        "label": "__gap",
        "offset": 0,
        "slot": "51",
        "type": "t_array(t_uint256)50_storage"
      },
      {
        "astId": 1966,
        "contract": "contracts/nft/MiniID.sol:MiniID",
        "label": "_name",
        "offset": 0,
        "slot": "101",
        "type": "t_string_storage"
      },
      {
        "astId": 1968,
        "contract": "contracts/nft/MiniID.sol:MiniID",
        "label": "_symbol",
        "offset": 0,
        "slot": "102",
        "type": "t_string_storage"
      },
      {
        "astId": 1972,
        "contract": "contracts/nft/MiniID.sol:MiniID",
        "label": "_owners",
        "offset": 0,
        "slot": "103",
        "type": "t_mapping(t_uint256,t_address)"
      },
      {
        "astId": 1976,
        "contract": "contracts/nft/MiniID.sol:MiniID",
        "label": "_balances",
        "offset": 0,
        "slot": "104",
        "type": "t_mapping(t_address,t_uint256)"
      },
      {
        "astId": 1980,
        "contract": "contracts/nft/MiniID.sol:MiniID",
        "label": "_tokenApprovals",
        "offset": 0,
        "slot": "105",
        "type": "t_mapping(t_uint256,t_address)"
      },
      {
        "astId": 1986,
        "contract": "contracts/nft/MiniID.sol:MiniID",
        "label": "_operatorApprovals",
        "offset": 0,
        "slot": "106",
        "type": "t_mapping(t_address,t_mapping(t_address,t_bool))"
      },
      {
        "astId": 2828,
        "contract": "contracts/nft/MiniID.sol:MiniID",
        "label": "__gap",
        "offset": 0,
        "slot": "107",
        "type": "t_array(t_uint256)44_storage"
      },
      {
        "astId": 3043,
        "contract": "contracts/nft/MiniID.sol:MiniID",
        "label": "_ownedTokens",
        "offset": 0,
        "slot": "151",
        "type": "t_mapping(t_address,t_mapping(t_uint256,t_uint256))"
      },
      {
        "astId": 3047,
        "contract": "contracts/nft/MiniID.sol:MiniID",
        "label": "_ownedTokensIndex",
        "offset": 0,
        "slot": "152",
        "type": "t_mapping(t_uint256,t_uint256)"
      },
      {
        "astId": 3050,
        "contract": "contracts/nft/MiniID.sol:MiniID",
        "label": "_allTokens",
        "offset": 0,
        "slot": "153",
        "type": "t_array(t_uint256)dyn_storage"
      },
      {
        "astId": 3054,
        "contract": "contracts/nft/MiniID.sol:MiniID",
        "label": "_allTokensIndex",
        "offset": 0,
        "slot": "154",
        "type": "t_mapping(t_uint256,t_uint256)"
      },
      {
        "astId": 3370,
        "contract": "contracts/nft/MiniID.sol:MiniID",
        "label": "__gap",
        "offset": 0,
        "slot": "155",
        "type": "t_array(t_uint256)46_storage"
      },
      {
        "astId": 3399,
        "contract": "contracts/nft/MiniID.sol:MiniID",
        "label": "_tokenURIs",
        "offset": 0,
        "slot": "201",
        "type": "t_mapping(t_uint256,t_string_storage)"
      },
      {
        "astId": 3515,
        "contract": "contracts/nft/MiniID.sol:MiniID",
        "label": "__gap",
        "offset": 0,
        "slot": "202",
        "type": "t_array(t_uint256)49_storage"
      },
      {
        "astId": 1831,
        "contract": "contracts/nft/MiniID.sol:MiniID",
        "label": "_paused",
        "offset": 0,
        "slot": "251",
        "type": "t_bool"
      },
      {
        "astId": 1936,
        "contract": "contracts/nft/MiniID.sol:MiniID",
        "label": "__gap",
        "offset": 0,
        "slot": "252",
        "type": "t_array(t_uint256)49_storage"
      },
      {
        "astId": 184,
        "contract": "contracts/nft/MiniID.sol:MiniID",
        "label": "_roles",
        "offset": 0,
        "slot": "301",
        "type": "t_mapping(t_bytes32,t_struct(RoleData)179_storage)"
      },
      {
        "astId": 483,
        "contract": "contracts/nft/MiniID.sol:MiniID",
        "label": "__gap",
        "offset": 0,
        "slot": "302",
        "type": "t_array(t_uint256)49_storage"
      },
      {
        "astId": 3012,
        "contract": "contracts/nft/MiniID.sol:MiniID",
        "label": "__gap",
        "offset": 0,
        "slot": "351",
        "type": "t_array(t_uint256)50_storage"
      },
      {
        "astId": 4920,
        "contract": "contracts/nft/MiniID.sol:MiniID",
        "label": "_HASHED_NAME",
        "offset": 0,
        "slot": "401",
        "type": "t_bytes32"
      },
      {
        "astId": 4922,
        "contract": "contracts/nft/MiniID.sol:MiniID",
        "label": "_HASHED_VERSION",
        "offset": 0,
        "slot": "402",
        "type": "t_bytes32"
      },
      {
        "astId": 5060,
        "contract": "contracts/nft/MiniID.sol:MiniID",
        "label": "__gap",
        "offset": 0,
        "slot": "403",
        "type": "t_array(t_uint256)50_storage"
      },
      {
        "astId": 706,
        "contract": "contracts/nft/MiniID.sol:MiniID",
        "label": "_delegation",
        "offset": 0,
        "slot": "453",
        "type": "t_mapping(t_address,t_address)"
      },
      {
        "astId": 711,
        "contract": "contracts/nft/MiniID.sol:MiniID",
        "label": "_delegateCheckpoints",
        "offset": 0,
        "slot": "454",
        "type": "t_mapping(t_address,t_struct(History)3902_storage)"
      },
      {
        "astId": 714,
        "contract": "contracts/nft/MiniID.sol:MiniID",
        "label": "_totalCheckpoints",
        "offset": 0,
        "slot": "455",
        "type": "t_struct(History)3902_storage"
      },
      {
        "astId": 719,
        "contract": "contracts/nft/MiniID.sol:MiniID",
        "label": "_nonces",
        "offset": 0,
        "slot": "456",
        "type": "t_mapping(t_address,t_struct(Counter)4169_storage)"
      },
      {
        "astId": 1133,
        "contract": "contracts/nft/MiniID.sol:MiniID",
        "label": "__gap",
        "offset": 0,
        "slot": "457",
        "type": "t_array(t_uint256)46_storage"
      },
      {
        "astId": 3643,
        "contract": "contracts/nft/MiniID.sol:MiniID",
        "label": "__gap",
        "offset": 0,
        "slot": "503",
        "type": "t_array(t_uint256)50_storage"
      },
      {
        "astId": 1512,
        "contract": "contracts/nft/MiniID.sol:MiniID",
        "label": "__gap",
        "offset": 0,
        "slot": "553",
        "type": "t_array(t_uint256)50_storage"
      },
      {
        "astId": 1809,
        "contract": "contracts/nft/MiniID.sol:MiniID",
        "label": "__gap",
        "offset": 0,
        "slot": "603",
        "type": "t_array(t_uint256)50_storage"
      },
      {
        "astId": 17911,
        "contract": "contracts/nft/MiniID.sol:MiniID",
        "label": "_tokenIdCounter",
        "offset": 0,
        "slot": "653",
        "type": "t_struct(Counter)4169_storage"
      }
    ],
    "types": {
      "t_address": {
        "encoding": "inplace",
        "label": "address",
        "numberOfBytes": "20"
      },
      "t_array(t_struct(Checkpoint)3897_storage)dyn_storage": {
        "base": "t_struct(Checkpoint)3897_storage",
        "encoding": "dynamic_array",
        "label": "struct CheckpointsUpgradeable.Checkpoint[]",
        "numberOfBytes": "32"
      },
      "t_array(t_uint256)44_storage": {
        "base": "t_uint256",
        "encoding": "inplace",
        "label": "uint256[44]",
        "numberOfBytes": "1408"
      },
      "t_array(t_uint256)46_storage": {
        "base": "t_uint256",
        "encoding": "inplace",
        "label": "uint256[46]",
        "numberOfBytes": "1472"
      },
      "t_array(t_uint256)49_storage": {
        "base": "t_uint256",
        "encoding": "inplace",
        "label": "uint256[49]",
        "numberOfBytes": "1568"
      },
      "t_array(t_uint256)50_storage": {
        "base": "t_uint256",
        "encoding": "inplace",
        "label": "uint256[50]",
        "numberOfBytes": "1600"
      },
      "t_array(t_uint256)dyn_storage": {
        "base": "t_uint256",
        "encoding": "dynamic_array",
        "label": "uint256[]",
        "numberOfBytes": "32"
      },
      "t_bool": {
        "encoding": "inplace",
        "label": "bool",
        "numberOfBytes": "1"
      },
      "t_bytes32": {
        "encoding": "inplace",
        "label": "bytes32",
        "numberOfBytes": "32"
      },
      "t_mapping(t_address,t_address)": {
        "encoding": "mapping",
        "key": "t_address",
        "label": "mapping(address => address)",
        "numberOfBytes": "32",
        "value": "t_address"
      },
      "t_mapping(t_address,t_bool)": {
        "encoding": "mapping",
        "key": "t_address",
        "label": "mapping(address => bool)",
        "numberOfBytes": "32",
        "value": "t_bool"
      },
      "t_mapping(t_address,t_mapping(t_address,t_bool))": {
        "encoding": "mapping",
        "key": "t_address",
        "label": "mapping(address => mapping(address => bool))",
        "numberOfBytes": "32",
        "value": "t_mapping(t_address,t_bool)"
      },
      "t_mapping(t_address,t_mapping(t_uint256,t_uint256))": {
        "encoding": "mapping",
        "key": "t_address",
        "label": "mapping(address => mapping(uint256 => uint256))",
        "numberOfBytes": "32",
        "value": "t_mapping(t_uint256,t_uint256)"
      },
      "t_mapping(t_address,t_struct(Counter)4169_storage)": {
        "encoding": "mapping",
        "key": "t_address",
        "label": "mapping(address => struct CountersUpgradeable.Counter)",
        "numberOfBytes": "32",
        "value": "t_struct(Counter)4169_storage"
      },
      "t_mapping(t_address,t_struct(History)3902_storage)": {
        "encoding": "mapping",
        "key": "t_address",
        "label": "mapping(address => struct CheckpointsUpgradeable.History)",
        "numberOfBytes": "32",
        "value": "t_struct(History)3902_storage"
      },
      "t_mapping(t_address,t_uint256)": {
        "encoding": "mapping",
        "key": "t_address",
        "label": "mapping(address => uint256)",
        "numberOfBytes": "32",
        "value": "t_uint256"
      },
      "t_mapping(t_bytes32,t_struct(RoleData)179_storage)": {
        "encoding": "mapping",
        "key": "t_bytes32",
        "label": "mapping(bytes32 => struct AccessControlUpgradeable.RoleData)",
        "numberOfBytes": "32",
        "value": "t_struct(RoleData)179_storage"
      },
      "t_mapping(t_uint256,t_address)": {
        "encoding": "mapping",
        "key": "t_uint256",
        "label": "mapping(uint256 => address)",
        "numberOfBytes": "32",
        "value": "t_address"
      },
      "t_mapping(t_uint256,t_string_storage)": {
        "encoding": "mapping",
        "key": "t_uint256",
        "label": "mapping(uint256 => string)",
        "numberOfBytes": "32",
        "value": "t_string_storage"
      },
      "t_mapping(t_uint256,t_uint256)": {
        "encoding": "mapping",
        "key": "t_uint256",
        "label": "mapping(uint256 => uint256)",
        "numberOfBytes": "32",
        "value": "t_uint256"
      },
      "t_string_storage": {
        "encoding": "bytes",
        "label": "string",
        "numberOfBytes": "32"
      },
      "t_struct(Checkpoint)3897_storage": {
        "encoding": "inplace",
        "label": "struct CheckpointsUpgradeable.Checkpoint",
        "members": [
          {
            "astId": 3894,
            "contract": "contracts/nft/MiniID.sol:MiniID",
            "label": "_blockNumber",
            "offset": 0,
            "slot": "0",
            "type": "t_uint32"
          },
          {
            "astId": 3896,
            "contract": "contracts/nft/MiniID.sol:MiniID",
            "label": "_value",
            "offset": 4,
            "slot": "0",
            "type": "t_uint224"
          }
        ],
        "numberOfBytes": "32"
      },
      "t_struct(Counter)4169_storage": {
        "encoding": "inplace",
        "label": "struct CountersUpgradeable.Counter",
        "members": [
          {
            "astId": 4168,
            "contract": "contracts/nft/MiniID.sol:MiniID",
            "label": "_value",
            "offset": 0,
            "slot": "0",
            "type": "t_uint256"
          }
        ],
        "numberOfBytes": "32"
      },
      "t_struct(History)3902_storage": {
        "encoding": "inplace",
        "label": "struct CheckpointsUpgradeable.History",
        "members": [
          {
            "astId": 3901,
            "contract": "contracts/nft/MiniID.sol:MiniID",
            "label": "_checkpoints",
            "offset": 0,
            "slot": "0",
            "type": "t_array(t_struct(Checkpoint)3897_storage)dyn_storage"
          }
        ],
        "numberOfBytes": "32"
      },
      "t_struct(RoleData)179_storage": {
        "encoding": "inplace",
        "label": "struct AccessControlUpgradeable.RoleData",
        "members": [
          {
            "astId": 176,
            "contract": "contracts/nft/MiniID.sol:MiniID",
            "label": "members",
            "offset": 0,
            "slot": "0",
            "type": "t_mapping(t_address,t_bool)"
          },
          {
            "astId": 178,
            "contract": "contracts/nft/MiniID.sol:MiniID",
            "label": "adminRole",
            "offset": 0,
            "slot": "1",
            "type": "t_bytes32"
          }
        ],
        "numberOfBytes": "64"
      },
      "t_uint224": {
        "encoding": "inplace",
        "label": "uint224",
        "numberOfBytes": "28"
      },
      "t_uint256": {
        "encoding": "inplace",
        "label": "uint256",
        "numberOfBytes": "32"
      },
      "t_uint32": {
        "encoding": "inplace",
        "label": "uint32",
        "numberOfBytes": "4"
      },
      "t_uint8": {
        "encoding": "inplace",
        "label": "uint8",
        "numberOfBytes": "1"
      }
    }
  }
}