{
  "address": "0x5FC8d32690cc91D4c39d9d3abcBD16989F875707",
  "abi": [
    {
      "inputs": [
        {
          "internalType": "address",
          "name": "from",
          "type": "address"
        },
        {
          "internalType": "address",
          "name": "to",
          "type": "address"
        },
        {
          "internalType": "uint256",
          "name": "amount",
          "type": "uint256"
        },
        {
          "internalType": "uint256",
          "name": "balance",
          "type": "uint256"
        },
        {
          "internalType": "uint256",
          "name": "allowance",
          "type": "uint256"
        },
        {
          "internalType": "string",
          "name": "reason",
          "type": "string"
        }
      ],
      "name": "SendFailed",
      "type": "error"
    },
    {
      "inputs": [
        {
          "internalType": "uint256",
          "name": "amount",
          "type": "uint256"
        },
        {
          "internalType": "enum Enums.TokenType",
          "name": "tokenType",
          "type": "uint8"
        },
        {
          "internalType": "uint256",
          "name": "tokenId",
          "type": "uint256"
        },
        {
          "internalType": "address",
          "name": "tokenAddress",
          "type": "address"
        },
        {
          "internalType": "address",
          "name": "from",
          "type": "address"
        },
        {
          "internalType": "address",
          "name": "to",
          "type": "address"
        },
        {
          "internalType": "string",
          "name": "reason",
          "type": "string"
        }
      ],
      "name": "TransferFailed",
      "type": "error"
    },
    {
      "inputs": [
        {
          "internalType": "address",
          "name": "user",
          "type": "address"
        },
        {
          "internalType": "uint256",
          "name": "amount",
          "type": "uint256"
        },
        {
          "internalType": "uint256",
          "name": "balance",
          "type": "uint256"
        },
        {
          "internalType": "string",
          "name": "reason",
          "type": "string"
        }
      ],
      "name": "WithdrawalFailed",
      "type": "error"
    },
    {
      "anonymous": false,
      "inputs": [
        {
          "indexed": true,
          "internalType": "address",
          "name": "owner",
          "type": "address"
        },
        {
          "indexed": true,
          "internalType": "address",
          "name": "spender",
          "type": "address"
        },
        {
          "indexed": false,
          "internalType": "uint256",
          "name": "allowance",
          "type": "uint256"
        }
      ],
      "name": "Approval",
      "type": "event"
    },
    {
      "anonymous": false,
      "inputs": [
        {
          "indexed": true,
          "internalType": "address",
          "name": "user",
          "type": "address"
        },
        {
          "indexed": false,
          "internalType": "uint256",
          "name": "amount",
          "type": "uint256"
        },
        {
          "indexed": false,
          "internalType": "uint256",
          "name": "balance",
          "type": "uint256"
        }
      ],
      "name": "DepositSuccessful",
      "type": "event"
    },
    {
      "anonymous": false,
      "inputs": [
        {
          "indexed": false,
          "internalType": "uint256",
          "name": "newGlobalUserAuthLimit",
          "type": "uint256"
        }
      ],
      "name": "GlobalUserAuthLimitChanged",
      "type": "event"
    },
    {
      "anonymous": false,
      "inputs": [
        {
          "indexed": false,
          "internalType": "uint256",
          "name": "newGlobalUserLimit",
          "type": "uint256"
        }
      ],
      "name": "GlobalUserLimitChanged",
      "type": "event"
    },
    {
      "anonymous": false,
      "inputs": [
        {
          "indexed": false,
          "internalType": "uint8",
          "name": "version",
          "type": "uint8"
        }
      ],
      "name": "Initialized",
      "type": "event"
    },
    {
      "anonymous": false,
      "inputs": [
        {
          "indexed": false,
          "internalType": "uint256",
          "name": "newThreshold",
          "type": "uint256"
        }
      ],
      "name": "OperatorThresholdChanged",
      "type": "event"
    },
    {
      "anonymous": false,
      "inputs": [
        {
          "indexed": false,
          "internalType": "address[]",
          "name": "operators",
          "type": "address[]"
        }
      ],
      "name": "OperatorsAdded",
      "type": "event"
    },
    {
      "anonymous": false,
      "inputs": [
        {
          "indexed": false,
          "internalType": "address[]",
          "name": "operators",
          "type": "address[]"
        }
      ],
      "name": "OperatorsRemoved",
      "type": "event"
    },
    {
      "anonymous": false,
      "inputs": [
        {
          "indexed": false,
          "internalType": "address",
          "name": "account",
          "type": "address"
        }
      ],
      "name": "Paused",
      "type": "event"
    },
    {
      "anonymous": false,
      "inputs": [
        {
          "indexed": true,
          "internalType": "bytes32",
          "name": "role",
          "type": "bytes32"
        },
        {
          "indexed": true,
          "internalType": "bytes32",
          "name": "previousAdminRole",
          "type": "bytes32"
        },
        {
          "indexed": true,
          "internalType": "bytes32",
          "name": "newAdminRole",
          "type": "bytes32"
        }
      ],
      "name": "RoleAdminChanged",
      "type": "event"
    },
    {
      "anonymous": false,
      "inputs": [
        {
          "indexed": true,
          "internalType": "bytes32",
          "name": "role",
          "type": "bytes32"
        },
        {
          "indexed": true,
          "internalType": "address",
          "name": "account",
          "type": "address"
        },
        {
          "indexed": true,
          "internalType": "address",
          "name": "sender",
          "type": "address"
        }
      ],
      "name": "RoleGranted",
      "type": "event"
    },
    {
      "anonymous": false,
      "inputs": [
        {
          "indexed": true,
          "internalType": "bytes32",
          "name": "role",
          "type": "bytes32"
        },
        {
          "indexed": true,
          "internalType": "address",
          "name": "account",
          "type": "address"
        },
        {
          "indexed": true,
          "internalType": "address",
          "name": "sender",
          "type": "address"
        }
      ],
      "name": "RoleRevoked",
      "type": "event"
    },
    {
      "anonymous": false,
      "inputs": [
        {
          "indexed": true,
          "internalType": "address",
          "name": "from",
          "type": "address"
        },
        {
          "indexed": true,
          "internalType": "address",
          "name": "to",
          "type": "address"
        },
        {
          "indexed": false,
          "internalType": "uint256",
          "name": "amount",
          "type": "uint256"
        },
        {
          "indexed": false,
          "internalType": "uint256",
          "name": "newBalance",
          "type": "uint256"
        },
        {
          "indexed": false,
          "internalType": "uint256",
          "name": "newAllowance",
          "type": "uint256"
        }
      ],
      "name": "SendSuccessful",
      "type": "event"
    },
    {
      "anonymous": false,
      "inputs": [
        {
          "indexed": false,
          "internalType": "uint256",
          "name": "amount",
          "type": "uint256"
        },
        {
          "indexed": false,
          "internalType": "enum Enums.TokenType",
          "name": "tokenType",
          "type": "uint8"
        },
        {
          "indexed": false,
          "internalType": "uint256",
          "name": "tokenId",
          "type": "uint256"
        },
        {
          "indexed": false,
          "internalType": "address",
          "name": "tokenAddress",
          "type": "address"
        },
        {
          "indexed": true,
          "internalType": "address",
          "name": "from",
          "type": "address"
        },
        {
          "indexed": true,
          "internalType": "address",
          "name": "to",
          "type": "address"
        }
      ],
      "name": "TransferSuccessful",
      "type": "event"
    },
    {
      "anonymous": false,
      "inputs": [
        {
          "indexed": false,
          "internalType": "address",
          "name": "account",
          "type": "address"
        }
      ],
      "name": "Unpaused",
      "type": "event"
    },
    {
      "anonymous": false,
      "inputs": [
        {
          "indexed": true,
          "internalType": "address",
          "name": "user",
          "type": "address"
        },
        {
          "indexed": false,
          "internalType": "uint256",
          "name": "amount",
          "type": "uint256"
        },
        {
          "indexed": false,
          "internalType": "uint256",
          "name": "balance",
          "type": "uint256"
        }
      ],
      "name": "WithdrawalSuccessful",
      "type": "event"
    },
    {
      "inputs": [],
      "name": "DEFAULT_ADMIN_ROLE",
      "outputs": [
        {
          "internalType": "bytes32",
          "name": "",
          "type": "bytes32"
        }
      ],
      "stateMutability": "view",
      "type": "function"
    },
    {
      "inputs": [],
      "name": "OPERATOR_ROLE",
      "outputs": [
        {
          "internalType": "bytes32",
          "name": "",
          "type": "bytes32"
        }
      ],
      "stateMutability": "view",
      "type": "function"
    },
    {
      "inputs": [
        {
          "internalType": "address[]",
          "name": "operatorAddresses",
          "type": "address[]"
        }
      ],
      "name": "adminAddOperators",
      "outputs": [],
      "stateMutability": "nonpayable",
      "type": "function"
    },
    {
      "inputs": [
        {
          "internalType": "uint256",
          "name": "newGlobalUserAuthLimit",
          "type": "uint256"
        }
      ],
      "name": "adminChangeGlobalUserAuthLimit",
      "outputs": [],
      "stateMutability": "nonpayable",
      "type": "function"
    },
    {
      "inputs": [
        {
          "internalType": "uint256",
          "name": "newGlobalUserLimit",
          "type": "uint256"
        }
      ],
      "name": "adminChangeGlobalUserLimit",
      "outputs": [],
      "stateMutability": "nonpayable",
      "type": "function"
    },
    {
      "inputs": [
        {
          "internalType": "uint256",
          "name": "newThreshold",
          "type": "uint256"
        }
      ],
      "name": "adminChangeOperatorThreshold",
      "outputs": [],
      "stateMutability": "nonpayable",
      "type": "function"
    },
    {
      "inputs": [],
      "name": "adminPauseMiniWallet",
      "outputs": [],
      "stateMutability": "nonpayable",
      "type": "function"
    },
    {
      "inputs": [
        {
          "internalType": "address[]",
          "name": "operatorAddresses",
          "type": "address[]"
        }
      ],
      "name": "adminRemoveOperators",
      "outputs": [],
      "stateMutability": "nonpayable",
      "type": "function"
    },
    {
      "inputs": [],
      "name": "adminUnpauseMiniWallet",
      "outputs": [],
      "stateMutability": "nonpayable",
      "type": "function"
    },
    {
      "inputs": [
        {
          "internalType": "address",
          "name": "owner",
          "type": "address"
        },
        {
          "internalType": "address",
          "name": "spender",
          "type": "address"
        }
      ],
      "name": "allowance",
      "outputs": [
        {
          "internalType": "uint256",
          "name": "",
          "type": "uint256"
        }
      ],
      "stateMutability": "view",
      "type": "function"
    },
    {
      "inputs": [
        {
          "internalType": "address",
          "name": "spender",
          "type": "address"
        },
        {
          "internalType": "uint256",
          "name": "amount",
          "type": "uint256"
        }
      ],
      "name": "approve",
      "outputs": [
        {
          "internalType": "bool",
          "name": "",
          "type": "bool"
        }
      ],
      "stateMutability": "payable",
      "type": "function"
    },
    {
      "inputs": [],
      "name": "deposit",
      "outputs": [],
      "stateMutability": "payable",
      "type": "function"
    },
    {
      "inputs": [
        {
          "internalType": "bytes32",
          "name": "role",
          "type": "bytes32"
        }
      ],
      "name": "getRoleAdmin",
      "outputs": [
        {
          "internalType": "bytes32",
          "name": "",
          "type": "bytes32"
        }
      ],
      "stateMutability": "view",
      "type": "function"
    },
    {
      "inputs": [
        {
          "internalType": "bytes32",
          "name": "role",
          "type": "bytes32"
        },
        {
          "internalType": "uint256",
          "name": "index",
          "type": "uint256"
        }
      ],
      "name": "getRoleMember",
      "outputs": [
        {
          "internalType": "address",
          "name": "",
          "type": "address"
        }
      ],
      "stateMutability": "view",
      "type": "function"
    },
    {
      "inputs": [
        {
          "internalType": "bytes32",
          "name": "role",
          "type": "bytes32"
        }
      ],
      "name": "getRoleMemberCount",
      "outputs": [
        {
          "internalType": "uint256",
          "name": "",
          "type": "uint256"
        }
      ],
      "stateMutability": "view",
      "type": "function"
    },
    {
      "inputs": [],
      "name": "globalUserAuthLimit",
      "outputs": [
        {
          "internalType": "uint256",
          "name": "",
          "type": "uint256"
        }
      ],
      "stateMutability": "view",
      "type": "function"
    },
    {
      "inputs": [],
      "name": "globalUserLimit",
      "outputs": [
        {
          "internalType": "uint256",
          "name": "",
          "type": "uint256"
        }
      ],
      "stateMutability": "view",
      "type": "function"
    },
    {
      "inputs": [
        {
          "internalType": "bytes32",
          "name": "role",
          "type": "bytes32"
        },
        {
          "internalType": "address",
          "name": "account",
          "type": "address"
        }
      ],
      "name": "grantRole",
      "outputs": [],
      "stateMutability": "nonpayable",
      "type": "function"
    },
    {
      "inputs": [
        {
          "internalType": "bytes32",
          "name": "role",
          "type": "bytes32"
        },
        {
          "internalType": "address",
          "name": "account",
          "type": "address"
        }
      ],
      "name": "hasRole",
      "outputs": [
        {
          "internalType": "bool",
          "name": "",
          "type": "bool"
        }
      ],
      "stateMutability": "view",
      "type": "function"
    },
    {
      "inputs": [
        {
          "internalType": "uint8",
          "name": "initialOperatorThreshold",
          "type": "uint8"
        },
        {
          "internalType": "address[]",
          "name": "initialOperators",
          "type": "address[]"
        },
        {
          "internalType": "uint256",
          "name": "globalUserLimit_",
          "type": "uint256"
        },
        {
          "internalType": "uint256",
          "name": "globalUserAuthLimit_",
          "type": "uint256"
        }
      ],
      "name": "initialize",
      "outputs": [],
      "stateMutability": "nonpayable",
      "type": "function"
    },
    {
      "inputs": [],
      "name": "operatorThreshold",
      "outputs": [
        {
          "internalType": "uint8",
          "name": "",
          "type": "uint8"
        }
      ],
      "stateMutability": "view",
      "type": "function"
    },
    {
      "inputs": [],
      "name": "paused",
      "outputs": [
        {
          "internalType": "bool",
          "name": "",
          "type": "bool"
        }
      ],
      "stateMutability": "view",
      "type": "function"
    },
    {
      "inputs": [
        {
          "internalType": "address",
          "name": "newAdmin",
          "type": "address"
        }
      ],
      "name": "renounceAdmin",
      "outputs": [],
      "stateMutability": "nonpayable",
      "type": "function"
    },
    {
      "inputs": [
        {
          "internalType": "bytes32",
          "name": "role",
          "type": "bytes32"
        },
        {
          "internalType": "address",
          "name": "account",
          "type": "address"
        }
      ],
      "name": "renounceRole",
      "outputs": [],
      "stateMutability": "nonpayable",
      "type": "function"
    },
    {
      "inputs": [
        {
          "internalType": "bytes32",
          "name": "role",
          "type": "bytes32"
        },
        {
          "internalType": "address",
          "name": "account",
          "type": "address"
        }
      ],
      "name": "revokeRole",
      "outputs": [],
      "stateMutability": "nonpayable",
      "type": "function"
    },
    {
      "inputs": [
        {
          "internalType": "uint256",
          "name": "amount",
          "type": "uint256"
        },
        {
          "internalType": "address",
          "name": "from",
          "type": "address"
        },
        {
          "internalType": "address",
          "name": "to",
          "type": "address"
        }
      ],
      "name": "send",
      "outputs": [],
      "stateMutability": "nonpayable",
      "type": "function"
    },
    {
      "inputs": [
        {
          "internalType": "bytes4",
          "name": "interfaceId",
          "type": "bytes4"
        }
      ],
      "name": "supportsInterface",
      "outputs": [
        {
          "internalType": "bool",
          "name": "",
          "type": "bool"
        }
      ],
      "stateMutability": "view",
      "type": "function"
    },
    {
      "inputs": [
        {
          "internalType": "uint256",
          "name": "amount",
          "type": "uint256"
        },
        {
          "internalType": "enum Enums.TokenType",
          "name": "tokenType",
          "type": "uint8"
        },
        {
          "internalType": "uint256",
          "name": "tokenId",
          "type": "uint256"
        },
        {
          "internalType": "address",
          "name": "tokenAddress",
          "type": "address"
        },
        {
          "internalType": "address",
          "name": "from",
          "type": "address"
        },
        {
          "internalType": "address",
          "name": "to",
          "type": "address"
        }
      ],
      "name": "transfer",
      "outputs": [],
      "stateMutability": "nonpayable",
      "type": "function"
    },
    {
      "inputs": [
        {
          "internalType": "address",
          "name": "",
          "type": "address"
        }
      ],
      "name": "userBalances",
      "outputs": [
        {
          "internalType": "uint256",
          "name": "",
          "type": "uint256"
        }
      ],
      "stateMutability": "view",
      "type": "function"
    },
    {
      "inputs": [
        {
          "internalType": "uint256",
          "name": "amount",
          "type": "uint256"
        }
      ],
      "name": "withdraw",
      "outputs": [],
      "stateMutability": "nonpayable",
      "type": "function"
    }
  ],
  "transactionHash": "0x2d2a1533df05c7d9f73faef27380737692d8f7998488bb1237e002445b0e88c0",
  "args": [],
  "numDeployments": 2,
  "solcInputHash": "4cdff60770a15df294dde2f4d13af3f7",
  "bytecode": "0x608060405234801561001057600080fd5b50612483806100206000396000f3fe6080604052600436106101cd5760003560e01c806378226fe7116100f7578063bcca7b1d11610095578063dd62ed3e11610064578063dd62ed3e14610514578063e24814d61461055a578063e2b0df8f14610585578063f5b541a61461059b57600080fd5b8063bcca7b1d146104ac578063ca15c873146104cc578063d0e30db0146104ec578063d547741f146104f457600080fd5b806391d14854116100d157806391d1485414610437578063a19ba03614610457578063a217fddf14610477578063b4d89a071461048c57600080fd5b806378226fe7146103ca57806379c0fb6e146103df5780639010d07c146103ff57600080fd5b80632752a46e1161016f5780633d0594d41161013e5780633d0594d41461035c578063562c2d1d1461037c5780635c975abb146103925780635e1fab0f146103aa57600080fd5b80632752a46e146102dc5780632e1a7d4d146102fc5780632f2ff15d1461031c57806336568abe1461033c57600080fd5b80630c8a263c116101ab5780630c8a263c146102315780631322a2a514610251578063248a9ca31461027157806326224c64146102af57600080fd5b806301ffc9a7146101d25780630227c93614610207578063095ea7b31461021e575b600080fd5b3480156101de57600080fd5b506101f26101ed366004611d93565b6105bd565b60405190151581526020015b60405180910390f35b34801561021357600080fd5b5061021c6105e8565b005b6101f261022c366004611dd9565b610622565b34801561023d57600080fd5b5061021c61024c366004611e03565b6107ce565b34801561025d57600080fd5b5061021c61026c366004611e68565b610846565b34801561027d57600080fd5b506102a161028c366004611e03565b60009081526097602052604090206001015490565b6040519081526020016101fe565b3480156102bb57600080fd5b506102a16102ca366004611eaa565b60fd6020526000908152604090205481565b3480156102e857600080fd5b5061021c6102f7366004611e68565b610968565b34801561030857600080fd5b5061021c610317366004611e03565b610ae5565b34801561032857600080fd5b5061021c610337366004611ec5565b610c13565b34801561034857600080fd5b5061021c610357366004611ec5565b610c3d565b34801561036857600080fd5b5061021c610377366004611ef1565b610cbb565b34801561038857600080fd5b506102a160fb5481565b34801561039e57600080fd5b5060335460ff166101f2565b3480156103b657600080fd5b5061021c6103c5366004611eaa565b610f9e565b3480156103d657600080fd5b5061021c61102e565b3480156103eb57600080fd5b5061021c6103fa366004611e03565b61105d565b34801561040b57600080fd5b5061041f61041a366004611f2d565b6110b9565b6040516001600160a01b0390911681526020016101fe565b34801561044357600080fd5b506101f2610452366004611ec5565b6110d8565b34801561046357600080fd5b5061021c610472366004611e03565b611103565b34801561048357600080fd5b506102a1600081565b34801561049857600080fd5b5061021c6104a7366004611f4f565b61115f565b3480156104b857600080fd5b5061021c6104c7366004611fbc565b6112e7565b3480156104d857600080fd5b506102a16104e7366004611e03565b6115c0565b61021c6115d7565b34801561050057600080fd5b5061021c61050f366004611ec5565b6116cf565b34801561052057600080fd5b506102a161052f366004612028565b6001600160a01b03918216600090815260fe6020908152604080832093909416825291909152205490565b34801561056657600080fd5b5060ff8054610573911681565b60405160ff90911681526020016101fe565b34801561059157600080fd5b506102a160fc5481565b3480156105a757600080fd5b506102a160008051602061242e83398151915281565b60006001600160e01b03198216635a05180f60e01b14806105e257506105e2826116f4565b92915050565b6105f36000336110d8565b6106185760405162461bcd60e51b815260040161060f90612052565b60405180910390fd5b610620611729565b565b600061062c611783565b338061068c5760405162461bcd60e51b815260206004820152602960248201527f4d696e6957616c6c65743a20617070726f76652066726f6d20746865207a65726044820152686f206164647265737360b81b606482015260840161060f565b6001600160a01b0384166106f25760405162461bcd60e51b815260206004820152602760248201527f4d696e6957616c6c65743a20617070726f766520746f20746865207a65726f206044820152666164647265737360c81b606482015260840161060f565b60fb5483111561075a5760405162461bcd60e51b815260206004820152602d60248201527f4d696e6957616c6c65743a20617070726f76652067726561746572207468616e60448201526c0819db1bd8985b081b1a5b5a5d609a1b606482015260840161060f565b3415610768576107686115d7565b6001600160a01b03818116600081815260fe602090815260408083209489168084529482529182902087905590518681527f8c5be1e5ebec7d5bd14f71427d1e84f3dd0314c0f7b2291e5b200ac8c7c3b925910160405180910390a35060019392505050565b6107d96000336110d8565b6107f55760405162461bcd60e51b815260040161060f90612052565b6107fe816117c9565b60ff805460ff19169181169190911790556040518181527fdd30dc35fb86c568de39420f82e371835e8392fdbf6828c67e685a87f115a910906020015b60405180910390a150565b6108516000336110d8565b61086d5760405162461bcd60e51b815260040161060f90612052565b60005b8181101561092a57600083838381811061088c5761088c612089565b90506020020160208101906108a19190611eaa565b90506108bb60008051602061242e833981519152826110d8565b6108ff5760405162461bcd60e51b81526020600482015260156024820152743932b6b7bb34b733903737b716b7b832b930ba37b960591b604482015260640161060f565b61091760008051602061242e833981519152826116cf565b5080610922816120b5565b915050610870565b507fd045926746dab8a5acf225487f413b986460165cf50f6052689a2e471198e059828260405161095c9291906120d0565b60405180910390a15050565b6109736000336110d8565b61098f5760405162461bcd60e51b815260040161060f90612052565b60005b81811015610ab35760008383838181106109ae576109ae612089565b90506020020160208101906109c39190611eaa565b90506109dd60008051602061242e833981519152826110d8565b15610a2a5760405162461bcd60e51b815260206004820152601960248201527f616c726561647920686173206f70657261746f7220726f6c6500000000000000604482015260640161060f565b60ff805416610a4660008051602061242e8339815191526115c0565b10610a885760405162461bcd60e51b8152602060048201526012602482015271746f6f206d616e79206f70657261746f727360701b604482015260640161060f565b610aa060008051602061242e83398151915282610c13565b5080610aab816120b5565b915050610992565b507f4c022f03c292dfa42133bfa9f90bbf55089da679c2df97df205f337c12ab7b7c828260405161095c9291906120d0565b610aed611783565b33600090815260fd602052604090205481610b06578091505b80821115610b795760405163993995bb60e01b8152336004820152602481018390526044810182905260806064820152602560848201527f496e73756666696369656e74206c6f636b65642066756e647320746f2077697460a482015264686472617760d81b60c482015260e40161060f565b6000610b85838361211c565b33600081815260fd602052604080822084905551929350909185156108fc0291869190818181858888f19350505050158015610bc5573d6000803e3d6000fd5b5033600081815260fd6020908152604091829020548251878152918201527ffb59733a8f0bd43414922fb86c6ffdd090e44935074086318980ca89221acc56910160405180910390a2505050565b600082815260976020526040902060010154610c2e81611820565b610c38838361182a565b505050565b6001600160a01b0381163314610cad5760405162461bcd60e51b815260206004820152602f60248201527f416363657373436f6e74726f6c3a2063616e206f6e6c792072656e6f756e636560448201526e103937b632b9903337b91039b2b63360891b606482015260840161060f565b610cb7828261184c565b5050565b610cd360008051602061242e833981519152336110d8565b610cef5760405162461bcd60e51b815260040161060f90612133565b610cf7611783565b6001600160a01b03828116600090815260fd602090815260408083205460fe835281842094861684529390915290205484610da257604051630e05486f60e41b81526001600160a01b0380861660048301528416602482015260448101869052606481018390526084810182905260c060a4820152601a60c48201527f53656e6420616d6f756e742063616e6e6f7420657175616c203000000000000060e48201526101040161060f565b81851115610e2b57604051630e05486f60e41b81526001600160a01b0380861660048301528416602482015260448101869052606481018390526084810182905260c060a4820152602160c48201527f496e73756666696369656e74206c6f636b65642066756e647320746f2073656e60e4820152601960fa1b6101048201526101240161060f565b80851115610eb657604051630e05486f60e41b81526001600160a01b0380861660048301528416602482015260448101869052606481018390526084810182905260c060a4820152602360c48201527f496e73756666696369656e7420617070726f7665642066756e647320746f207360e482015262195b9960ea1b6101048201526101240161060f565b6000610ec2868461211c565b6001600160a01b038616600090815260fd60205260408120829055909150610eea878461211c565b6001600160a01b03808816600090815260fe60209081526040808320938a168084529390915280822084905551929350909189156108fc02918a9190818181858888f19350505050158015610f43573d6000803e3d6000fd5b5060408051888152602081018490529081018290526001600160a01b0380871691908816907f097db31093a1dfbc4fca0de24d2ea0d787b2de44c5fce71552714981745334e29060600160405180910390a350505050505050565b610fa96000336110d8565b610fc55760405162461bcd60e51b815260040161060f90612052565b336001600160a01b03821614156110155760405162461bcd60e51b815260206004820152601460248201527331b0b73737ba103932b737bab731b29039b2b63360611b604482015260640161060f565b611020600082610c13565b61102b600033610c3d565b50565b6110396000336110d8565b6110555760405162461bcd60e51b815260040161060f90612052565b61062061186e565b6110686000336110d8565b6110845760405162461bcd60e51b815260040161060f90612052565b60fb8190556040518181527fec0d2c2f3a2fec7d9ce81f6f984ece08f0cdf867116717553c179253c65dca009060200161083b565b600082815260c9602052604081206110d190836118a7565b9392505050565b60009182526097602090815260408084206001600160a01b0393909316845291905290205460ff1690565b61110e6000336110d8565b61112a5760405162461bcd60e51b815260040161060f90612052565b60fc8190556040518181527f0595560a63185cdb6922ec5f6b5279ada789aeea2ab360c554dfc94c0b19cc309060200161083b565b600054610100900460ff161580801561117f5750600054600160ff909116105b806111995750303b158015611199575060005460ff166001145b6111fc5760405162461bcd60e51b815260206004820152602e60248201527f496e697469616c697a61626c653a20636f6e747261637420697320616c72656160448201526d191e481a5b9a5d1a585b1a5e995960921b606482015260840161060f565b6000805460ff19166001179055801561121f576000805461ff0019166101001790555b61122a6000336118b3565b60ff805460ff191687821617905560005b8481101561128e5761127c60008051602061242e83398151915287878481811061126757611267612089565b90506020020160208101906103379190611eaa565b80611286816120b5565b91505061123b565b5060fc83905560fb82905580156112df576000805461ff0019169055604051600181527f7f26b83ff96e1f2b6a682f133852f6798a09c465da95921460cefb38474024989060200160405180910390a15b505050505050565b6112ff60008051602061242e833981519152336110d8565b61131b5760405162461bcd60e51b815260040161060f90612133565b611323611783565b600085600381111561133757611337612174565b1415611454576040516323b872dd60e01b81526001600160a01b038381166004830152828116602483015260448201889052600091908516906323b872dd90606401602060405180830381600087803b15801561139357600080fd5b505af11580156113a7573d6000803e3d6000fd5b505050506040513d601f19601f820116820180604052508101906113cb919061218a565b9050801561142957816001600160a01b0316836001600160a01b03167ff63704c7d7c4d784274859e7e55c97f42913ac076b3a2efcb8c56a042f78db388989898960405161141c94939291906121ce565b60405180910390a361144e565b8686868686866040516332ee88b960e11b815260040161060f96959493929190612202565b506112df565b600185600381111561146857611468612174565b141561152f57604051632142170760e11b81526001600160a01b0383811660048301528281166024830152604482018690528416906342842e0e906064015b600060405180830381600087803b1580156114c157600080fd5b505af11580156114d5573d6000803e3d6000fd5b50505050806001600160a01b0316826001600160a01b03167ff63704c7d7c4d784274859e7e55c97f42913ac076b3a2efcb8c56a042f78db388888888860405161152294939291906121ce565b60405180910390a36112df565b600285600381111561154357611543612174565b141561159b57604051637921219560e11b81526001600160a01b0383811660048301528281166024830152604482018690526064820188905260a06084830152600060a483015284169063f242432a9060c4016114a7565b8585858585856040516332ee88b960e11b815260040161060f96959493929190612271565b600081815260c9602052604081206105e2906118bd565b6115df611783565b60fc5433600090815260fd60205260409020546115fd9034906122db565b11156116615760405162461bcd60e51b815260206004820152602d60248201527f4d696e6957616c6c65743a206465706f7369742067726561746572207468616e60448201526c0819db1bd8985b081b1a5b5a5d609a1b606482015260840161060f565b33600090815260fd6020526040812080543492906116809084906122db565b909155505033600081815260fd6020908152604091829020548251348152918201527f61bb8b82654398e0bdd4e0d489b5e9104b6840211fd89f7264264c96589051fd910160405180910390a2565b6000828152609760205260409020600101546116ea81611820565b610c38838361184c565b60006001600160e01b03198216637965db0b60e01b14806105e257506301ffc9a760e01b6001600160e01b03198316146105e2565b611731611783565b6033805460ff191660011790557f62e78cea01bee320cd4e420270b5ea74000d11b0c9f74754ebdbfc544b05a2586117663390565b6040516001600160a01b03909116815260200160405180910390a1565b60335460ff16156106205760405162461bcd60e51b815260206004820152601060248201526f14185d5cd8589b194e881c185d5cd95960821b604482015260640161060f565b6000610100821061181c5760405162461bcd60e51b815260206004820152601c60248201527f76616c756520646f6573206e6f742066697420696e2038206269747300000000604482015260640161060f565b5090565b61102b81336118c7565b611834828261192b565b600082815260c960205260409020610c3890826119b1565b61185682826119c6565b600082815260c960205260409020610c389082611a2d565b611876611a42565b6033805460ff191690557f5db9ee0a495bf2e6ff9c91a7834c1ba4fdd244a5e8aa4e537bd38aeae4b073aa33611766565b60006110d18383611a8b565b610cb7828261182a565b60006105e2825490565b6118d182826110d8565b610cb7576118e9816001600160a01b03166014611ab5565b6118f4836020611ab5565b604051602001611905929190612323565b60408051601f198184030181529082905262461bcd60e51b825261060f91600401612398565b61193582826110d8565b610cb75760008281526097602090815260408083206001600160a01b03851684529091529020805460ff1916600117905561196d3390565b6001600160a01b0316816001600160a01b0316837f2f8788117e7eff1d82e926ec794901d17c78024a50270940304540a733656f0d60405160405180910390a45050565b60006110d1836001600160a01b038416611c51565b6119d082826110d8565b15610cb75760008281526097602090815260408083206001600160a01b0385168085529252808320805460ff1916905551339285917ff6391f5c32d9c69d2a47ea670b442974b53935d1edc7fd64eb21e047a839171b9190a45050565b60006110d1836001600160a01b038416611ca0565b60335460ff166106205760405162461bcd60e51b815260206004820152601460248201527314185d5cd8589b194e881b9bdd081c185d5cd95960621b604482015260640161060f565b6000826000018281548110611aa257611aa2612089565b9060005260206000200154905092915050565b60606000611ac48360026123cb565b611acf9060026122db565b67ffffffffffffffff811115611ae757611ae76123ea565b6040519080825280601f01601f191660200182016040528015611b11576020820181803683370190505b509050600360fc1b81600081518110611b2c57611b2c612089565b60200101906001600160f81b031916908160001a905350600f60fb1b81600181518110611b5b57611b5b612089565b60200101906001600160f81b031916908160001a9053506000611b7f8460026123cb565b611b8a9060016122db565b90505b6001811115611c02576f181899199a1a9b1b9c1cb0b131b232b360811b85600f1660108110611bbe57611bbe612089565b1a60f81b828281518110611bd457611bd4612089565b60200101906001600160f81b031916908160001a90535060049490941c93611bfb81612400565b9050611b8d565b5083156110d15760405162461bcd60e51b815260206004820181905260248201527f537472696e67733a20686578206c656e67746820696e73756666696369656e74604482015260640161060f565b6000818152600183016020526040812054611c98575081546001818101845560008481526020808220909301849055845484825282860190935260409020919091556105e2565b5060006105e2565b60008181526001830160205260408120548015611d89576000611cc460018361211c565b8554909150600090611cd89060019061211c565b9050818114611d3d576000866000018281548110611cf857611cf8612089565b9060005260206000200154905080876000018481548110611d1b57611d1b612089565b6000918252602080832090910192909255918252600188019052604090208390555b8554869080611d4e57611d4e612417565b6001900381819060005260206000200160009055905585600101600086815260200190815260200160002060009055600193505050506105e2565b60009150506105e2565b600060208284031215611da557600080fd5b81356001600160e01b0319811681146110d157600080fd5b80356001600160a01b0381168114611dd457600080fd5b919050565b60008060408385031215611dec57600080fd5b611df583611dbd565b946020939093013593505050565b600060208284031215611e1557600080fd5b5035919050565b60008083601f840112611e2e57600080fd5b50813567ffffffffffffffff811115611e4657600080fd5b6020830191508360208260051b8501011115611e6157600080fd5b9250929050565b60008060208385031215611e7b57600080fd5b823567ffffffffffffffff811115611e9257600080fd5b611e9e85828601611e1c565b90969095509350505050565b600060208284031215611ebc57600080fd5b6110d182611dbd565b60008060408385031215611ed857600080fd5b82359150611ee860208401611dbd565b90509250929050565b600080600060608486031215611f0657600080fd5b83359250611f1660208501611dbd565b9150611f2460408501611dbd565b90509250925092565b60008060408385031215611f4057600080fd5b50508035926020909101359150565b600080600080600060808688031215611f6757600080fd5b853560ff81168114611f7857600080fd5b9450602086013567ffffffffffffffff811115611f9457600080fd5b611fa088828901611e1c565b9699909850959660408101359660609091013595509350505050565b60008060008060008060c08789031215611fd557600080fd5b86359550602087013560048110611feb57600080fd5b94506040870135935061200060608801611dbd565b925061200e60808801611dbd565b915061201c60a08801611dbd565b90509295509295509295565b6000806040838503121561203b57600080fd5b61204483611dbd565b9150611ee860208401611dbd565b6020808252601e908201527f73656e64657220646f65736e277420686176652061646d696e20726f6c650000604082015260600190565b634e487b7160e01b600052603260045260246000fd5b634e487b7160e01b600052601160045260246000fd5b60006000198214156120c9576120c961209f565b5060010190565b60208082528181018390526000908460408401835b86811015612111576001600160a01b036120fe84611dbd565b16825291830191908301906001016120e5565b509695505050505050565b60008282101561212e5761212e61209f565b500390565b60208082526021908201527f73656e64657220646f65736e27742068617665206f70657261746f7220726f6c6040820152606560f81b606082015260800190565b634e487b7160e01b600052602160045260246000fd5b60006020828403121561219c57600080fd5b815180151581146110d157600080fd5b600481106121ca57634e487b7160e01b600052602160045260246000fd5b9052565b848152608081016121e260208301866121ac565b60408201939093526001600160a01b039190911660609091015292915050565b86815261221260208201876121ac565b60408101949094526001600160a01b03928316606085015290821660808401521660a082015260e060c08201819052601690820152754552433230207472616e73666572206661696c75726560501b6101008201526101200192915050565b86815261228160208201876121ac565b60408101949094526001600160a01b03928316606085015290821660808401521660a082015260e060c0820181905260119082015270496e76616c696420746f6b656e5479706560781b6101008201526101200192915050565b600082198211156122ee576122ee61209f565b500190565b60005b8381101561230e5781810151838201526020016122f6565b8381111561231d576000848401525b50505050565b7f416363657373436f6e74726f6c3a206163636f756e742000000000000000000081526000835161235b8160178501602088016122f3565b7001034b99036b4b9b9b4b733903937b6329607d1b601791840191820152835161238c8160288401602088016122f3565b01602801949350505050565b60208152600082518060208401526123b78160408501602087016122f3565b601f01601f19169190910160400192915050565b60008160001904831182151516156123e5576123e561209f565b500290565b634e487b7160e01b600052604160045260246000fd5b60008161240f5761240f61209f565b506000190190565b634e487b7160e01b600052603160045260246000fdfe97667070c54ef182b0f5858b034beac1b6f3089aa2d3188bb1e8929f4fa9b929a26469706673582212205118ec511ac2263c86ce90677ff14a2fc4677f049766df4373bf29c9c63c1c0664736f6c63430008090033",
  "devdoc": {
    "errors": {
      "SendFailed(address,address,uint256,uint256,uint256,string)": [
        {
          "details": "Emitted when attempting to send native tokens by the operator on behalf of the `from` account to the `to` account fails e.g. if they have insufficient native tokens locked or insufficient funds approved for the to account",
          "params": {
            "allowance": "The updated allowance of native tokens which can be transferred by the MiniWallet Operator to the spender",
            "amount": "The amount of native token sent",
            "balance": "The updated balance of native tokens held by the MiniWallet contract on behalf of the user",
            "from": "The sender of the native token",
            "reason": "The reason the Send Failed",
            "to": "The recipient of the native token"
          }
        }
      ],
      "TransferFailed(uint256,uint8,uint256,address,address,address,string)": [
        {
          "details": "Emitted when an attempt to transfer tokens (ERC20, ERC721, ERC1155) by the operator on behalf of the `from` account to the `to` account fails",
          "params": {
            "amount": "The amount of the token sent",
            "from": "The sender of the token",
            "reason": "The reason for the failure",
            "to": "The recipient of the token",
            "tokenAddress": "the address of the token contract",
            "tokenType": "an enumerated value indicating the type of token being sent"
          }
        }
      ],
      "WithdrawalFailed(address,uint256,uint256,string)": [
        {
          "details": "Emitted when an attempt by a `user` to withdraw native tokens `amount` fails `balance` is the users balance held and `reason` gives the reason for failure. e.g. `Insufficient Locked Funds to Withdraw`.",
          "params": {
            "amount": "The amount of native tokens requested to withdraw",
            "balance": "The users balance of native tokens held by the MiniWallet contract",
            "user": "The user attempting to withdraw the native token"
          }
        }
      ]
    },
    "kind": "dev",
    "methods": {
      "adminAddOperators(address[])": {
        "details": "`adminAddOperators` adds some new operators (can only be called by admin)",
        "params": {
          "operatorAddresses": "The addresses of the new operators"
        }
      },
      "adminChangeGlobalUserAuthLimit(uint256)": {
        "details": "`adminChangeGlobalUserAuthLimit` updates the global limit for the amount of Native Tokens a user can authorize per recipient This value is checked when creating allowances. This function can only be called by an administrator",
        "params": {
          "newGlobalUserAuthLimit": "updated Global User Auth Limit"
        }
      },
      "adminChangeGlobalUserLimit(uint256)": {
        "details": "`adminChangeGlobalUserLimit` updates the global limit for the amount of Native Tokens a user can hold in the MiniWallet Contract. This value is checked when depositing funds. This function can only be called by the administrator.",
        "params": {
          "newGlobalUserLimit": "The updated global limit."
        }
      },
      "adminChangeOperatorThreshold(uint256)": {
        "details": "`adminChangeOperatorThreshold` updates the maximum number of allowed operators",
        "params": {
          "newThreshold": "The updated maximum number of operators"
        }
      },
      "adminPauseMiniWallet()": {
        "details": "`adminPauseMiniWallet` pauses the `MiniWallet` contract"
      },
      "adminRemoveOperators(address[])": {
        "details": "`adminRemoveOperators` removes an operator (can only be called by admin)",
        "params": {
          "operatorAddresses": "The addresses of the operators to be removed"
        }
      },
      "adminUnpauseMiniWallet()": {
        "details": "`adminUnpauseMiniWallet` unpauses the `MiniWallet` contract"
      },
      "allowance(address,address)": {
        "details": "`allowance` returns the number of tokens the `owner` has allowed the `operator` to send to the user.",
        "params": {
          "owner": "The owner of the native tokens",
          "spender": "The recipient of the native tokens"
        },
        "returns": {
          "_0": "Number of tokens allowed"
        }
      },
      "approve(address,uint256)": {
        "details": "`approve` approves an amount of native tokens that the operator is allowed to send on behalf of the `msg.sender` to the `spender`. The amount needs to be less than the `globalUserAuthLimit` and the `owner` and `spender` cannot be the zero address. Also if funds are sent they are deposited to the users account, if the value and the users current balance exceeds the `globalUserLimit` the transaction is rejected.",
        "params": {
          "amount": "The amount of native tokens approved.",
          "spender": "The approved recipient of the native tokens."
        },
        "returns": {
          "_0": "true if the amount is approved"
        }
      },
      "deposit()": {
        "details": "`deposit` allows a user to deposit funds to the `MiniWallet` contract. It uses `msg.sender` to determine the user and the `msg.value` to determine the amount to deposit. The `amount` deposited needs to be less than or equal to the `globalUserLimit`"
      },
      "getRoleAdmin(bytes32)": {
        "details": "Returns the admin role that controls `role`. See {grantRole} and {revokeRole}. To change a role's admin, use {_setRoleAdmin}."
      },
      "getRoleMember(bytes32,uint256)": {
        "details": "Returns one of the accounts that have `role`. `index` must be a value between 0 and {getRoleMemberCount}, non-inclusive. Role bearers are not sorted in any particular way, and their ordering may change at any point. WARNING: When using {getRoleMember} and {getRoleMemberCount}, make sure you perform all queries on the same block. See the following https://forum.openzeppelin.com/t/iterating-over-elements-on-enumerableset-in-openzeppelin-contracts/2296[forum post] for more information."
      },
      "getRoleMemberCount(bytes32)": {
        "details": "Returns the number of accounts that have `role`. Can be used together with {getRoleMember} to enumerate all bearers of a role."
      },
      "grantRole(bytes32,address)": {
        "details": "Grants `role` to `account`. If `account` had not been already granted `role`, emits a {RoleGranted} event. Requirements: - the caller must have ``role``'s admin role. May emit a {RoleGranted} event."
      },
      "hasRole(bytes32,address)": {
        "details": "Returns `true` if `account` has been granted `role`."
      },
      "initialize(uint8,address[],uint256,uint256)": {
        "details": "`initialize` initializes the MiniWallet contract. It should be called directly after the deploy. It is used instead of a `constructor` as the `MiniWallet` is upgradeable. The `msg.sender` is granted the `DEFAULT_ADMIN_ROLE`.",
        "params": {
          "globalUserAuthLimit_": "The initial limit of how many native tokens a user can approve for a recipient",
          "globalUserLimit_": "The initial limit of how many native tokens a user can deposit",
          "initialOperatorThreshold": "The initial maximum number of operators allowed",
          "initialOperators": "The address of the initial operators (each will be granted the `OPERATOR_ROLE`)"
        }
      },
      "paused()": {
        "details": "Returns true if the contract is paused, and false otherwise."
      },
      "renounceAdmin(address)": {
        "details": "`renounceAdmin` can only be called by the current administrator It creates a new administrator and renounce the administrator role from the `msg.sender`",
        "params": {
          "newAdmin": "the new administrator"
        }
      },
      "renounceRole(bytes32,address)": {
        "details": "Revokes `role` from the calling account. Roles are often managed via {grantRole} and {revokeRole}: this function's purpose is to provide a mechanism for accounts to lose their privileges if they are compromised (such as when a trusted device is misplaced). If the calling account had been revoked `role`, emits a {RoleRevoked} event. Requirements: - the caller must be `account`. May emit a {RoleRevoked} event."
      },
      "revokeRole(bytes32,address)": {
        "details": "Revokes `role` from `account`. If `account` had been granted `role`, emits a {RoleRevoked} event. Requirements: - the caller must have ``role``'s admin role. May emit a {RoleRevoked} event."
      },
      "send(uint256,address,address)": {
        "details": "`send` is called by an `operator` to send native tokens on behalf of the user. It checks the approved amount for the from and to combination and decreases the approved amount by the amount sent.",
        "params": {
          "amount": "The amount of native tokens to send.",
          "from": "The account on whose behalf the operator is sending the native tokens from",
          "to": "The recipient of the native tokens."
        }
      },
      "supportsInterface(bytes4)": {
        "details": "See {IERC165-supportsInterface}."
      },
      "transfer(uint256,uint8,uint256,address,address,address)": {
        "details": "`transfer` transfers tokens (ERC20, ERC721, ERC1155). The user account must have previously approved the `MiniWallet` contract to send the funds.",
        "params": {
          "amount": "The amount of the token sent",
          "from": "The sender of the token",
          "to": "The recipient of the token",
          "tokenAddress": "the address of the token contract",
          "tokenType": "an enumerated value indicating the type of token being sent"
        }
      },
      "withdraw(uint256)": {
        "details": "`withdraw` withdraws an `amount` of native tokens (previously deposited by the user) and transfers them back to the user. `msg.sender` is used to determine the user. If a zero amount is passed then all the native tokens held for that user are withdrawn.",
        "params": {
          "amount": "The amount of native tokens to withdraw (zero means withdraw all tokens held for the user)"
        }
      }
    },
    "version": 1
  },
  "userdoc": {
    "kind": "user",
    "methods": {},
    "version": 1
  },
  "storageLayout": {
    "storage": [
      {
        "astId": 1530,
        "contract": "contracts/MiniWallet_v2.sol:MiniWallet_v2",
        "label": "_initialized",
        "offset": 0,
        "slot": "0",
        "type": "t_uint8"
      },
      {
        "astId": 1533,
        "contract": "contracts/MiniWallet_v2.sol:MiniWallet_v2",
        "label": "_initializing",
        "offset": 1,
        "slot": "0",
        "type": "t_bool"
      },
      {
        "astId": 4162,
        "contract": "contracts/MiniWallet_v2.sol:MiniWallet_v2",
        "label": "__gap",
        "offset": 0,
        "slot": "1",
        "type": "t_array(t_uint256)50_storage"
      },
      {
        "astId": 1831,
        "contract": "contracts/MiniWallet_v2.sol:MiniWallet_v2",
        "label": "_paused",
        "offset": 0,
        "slot": "51",
        "type": "t_bool"
      },
      {
        "astId": 1936,
        "contract": "contracts/MiniWallet_v2.sol:MiniWallet_v2",
        "label": "__gap",
        "offset": 0,
        "slot": "52",
        "type": "t_array(t_uint256)49_storage"
      },
      {
        "astId": 5104,
        "contract": "contracts/MiniWallet_v2.sol:MiniWallet_v2",
        "label": "__gap",
        "offset": 0,
        "slot": "101",
        "type": "t_array(t_uint256)50_storage"
      },
      {
        "astId": 184,
        "contract": "contracts/MiniWallet_v2.sol:MiniWallet_v2",
        "label": "_roles",
        "offset": 0,
        "slot": "151",
        "type": "t_mapping(t_bytes32,t_struct(RoleData)179_storage)"
      },
      {
        "astId": 483,
        "contract": "contracts/MiniWallet_v2.sol:MiniWallet_v2",
        "label": "__gap",
        "offset": 0,
        "slot": "152",
        "type": "t_array(t_uint256)49_storage"
      },
      {
        "astId": 33,
        "contract": "contracts/MiniWallet_v2.sol:MiniWallet_v2",
        "label": "_roleMembers",
        "offset": 0,
        "slot": "201",
        "type": "t_mapping(t_bytes32,t_struct(AddressSet)8096_storage)"
      },
      {
        "astId": 143,
        "contract": "contracts/MiniWallet_v2.sol:MiniWallet_v2",
        "label": "__gap",
        "offset": 0,
        "slot": "202",
        "type": "t_array(t_uint256)49_storage"
      },
      {
        "astId": 12719,
        "contract": "contracts/MiniWallet_v2.sol:MiniWallet_v2",
        "label": "globalUserAuthLimit",
        "offset": 0,
        "slot": "251",
        "type": "t_uint256"
      },
      {
        "astId": 12722,
        "contract": "contracts/MiniWallet_v2.sol:MiniWallet_v2",
        "label": "globalUserLimit",
        "offset": 0,
        "slot": "252",
        "type": "t_uint256"
      },
      {
        "astId": 12727,
        "contract": "contracts/MiniWallet_v2.sol:MiniWallet_v2",
        "label": "userBalances",
        "offset": 0,
        "slot": "253",
        "type": "t_mapping(t_address,t_uint256)"
      },
      {
        "astId": 12734,
        "contract": "contracts/MiniWallet_v2.sol:MiniWallet_v2",
        "label": "_allowances",
        "offset": 0,
        "slot": "254",
        "type": "t_mapping(t_address,t_mapping(t_address,t_uint256))"
      },
      {
        "astId": 12737,
        "contract": "contracts/MiniWallet_v2.sol:MiniWallet_v2",
        "label": "operatorThreshold",
        "offset": 0,
        "slot": "255",
        "type": "t_uint8"
      }
    ],
    "types": {
      "t_address": {
        "encoding": "inplace",
        "label": "address",
        "numberOfBytes": "20"
      },
      "t_array(t_bytes32)dyn_storage": {
        "base": "t_bytes32",
        "encoding": "dynamic_array",
        "label": "bytes32[]",
        "numberOfBytes": "32"
      },
      "t_array(t_uint256)49_storage": {
        "base": "t_uint256",
        "encoding": "inplace",
        "label": "uint256[49]",
        "numberOfBytes": "1568"
      },
      "t_array(t_uint256)50_storage": {
        "base": "t_uint256",
        "encoding": "inplace",
        "label": "uint256[50]",
        "numberOfBytes": "1600"
      },
      "t_bool": {
        "encoding": "inplace",
        "label": "bool",
        "numberOfBytes": "1"
      },
      "t_bytes32": {
        "encoding": "inplace",
        "label": "bytes32",
        "numberOfBytes": "32"
      },
      "t_mapping(t_address,t_bool)": {
        "encoding": "mapping",
        "key": "t_address",
        "label": "mapping(address => bool)",
        "numberOfBytes": "32",
        "value": "t_bool"
      },
      "t_mapping(t_address,t_mapping(t_address,t_uint256))": {
        "encoding": "mapping",
        "key": "t_address",
        "label": "mapping(address => mapping(address => uint256))",
        "numberOfBytes": "32",
        "value": "t_mapping(t_address,t_uint256)"
      },
      "t_mapping(t_address,t_uint256)": {
        "encoding": "mapping",
        "key": "t_address",
        "label": "mapping(address => uint256)",
        "numberOfBytes": "32",
        "value": "t_uint256"
      },
      "t_mapping(t_bytes32,t_struct(AddressSet)8096_storage)": {
        "encoding": "mapping",
        "key": "t_bytes32",
        "label": "mapping(bytes32 => struct EnumerableSetUpgradeable.AddressSet)",
        "numberOfBytes": "32",
        "value": "t_struct(AddressSet)8096_storage"
      },
      "t_mapping(t_bytes32,t_struct(RoleData)179_storage)": {
        "encoding": "mapping",
        "key": "t_bytes32",
        "label": "mapping(bytes32 => struct AccessControlUpgradeable.RoleData)",
        "numberOfBytes": "32",
        "value": "t_struct(RoleData)179_storage"
      },
      "t_mapping(t_bytes32,t_uint256)": {
        "encoding": "mapping",
        "key": "t_bytes32",
        "label": "mapping(bytes32 => uint256)",
        "numberOfBytes": "32",
        "value": "t_uint256"
      },
      "t_struct(AddressSet)8096_storage": {
        "encoding": "inplace",
        "label": "struct EnumerableSetUpgradeable.AddressSet",
        "members": [
          {
            "astId": 8095,
            "contract": "contracts/MiniWallet_v2.sol:MiniWallet_v2",
            "label": "_inner",
            "offset": 0,
            "slot": "0",
            "type": "t_struct(Set)7795_storage"
          }
        ],
        "numberOfBytes": "64"
      },
      "t_struct(RoleData)179_storage": {
        "encoding": "inplace",
        "label": "struct AccessControlUpgradeable.RoleData",
        "members": [
          {
            "astId": 176,
            "contract": "contracts/MiniWallet_v2.sol:MiniWallet_v2",
            "label": "members",
            "offset": 0,
            "slot": "0",
            "type": "t_mapping(t_address,t_bool)"
          },
          {
            "astId": 178,
            "contract": "contracts/MiniWallet_v2.sol:MiniWallet_v2",
            "label": "adminRole",
            "offset": 0,
            "slot": "1",
            "type": "t_bytes32"
          }
        ],
        "numberOfBytes": "64"
      },
      "t_struct(Set)7795_storage": {
        "encoding": "inplace",
        "label": "struct EnumerableSetUpgradeable.Set",
        "members": [
          {
            "astId": 7790,
            "contract": "contracts/MiniWallet_v2.sol:MiniWallet_v2",
            "label": "_values",
            "offset": 0,
            "slot": "0",
            "type": "t_array(t_bytes32)dyn_storage"
          },
          {
            "astId": 7794,
            "contract": "contracts/MiniWallet_v2.sol:MiniWallet_v2",
            "label": "_indexes",
            "offset": 0,
            "slot": "1",
            "type": "t_mapping(t_bytes32,t_uint256)"
          }
        ],
        "numberOfBytes": "64"
      },
      "t_uint256": {
        "encoding": "inplace",
        "label": "uint256",
        "numberOfBytes": "32"
      },
      "t_uint8": {
        "encoding": "inplace",
        "label": "uint8",
        "numberOfBytes": "1"
      }
    }
  }
}