{
  "address": "0xB7f8BC63BbcaD18155201308C8f3540b07f84F5e",
  "abi": [
    {
      "inputs": [
        {
          "internalType": "bool",
          "name": "_saleIsActive",
          "type": "bool"
        },
        {
          "internalType": "bool",
          "name": "_metadataFrozen",
          "type": "bool"
        },
        {
          "internalType": "uint256",
          "name": "_mintPrice",
          "type": "uint256"
        },
        {
          "internalType": "uint256",
          "name": "_maxPerMint",
          "type": "uint256"
        },
        {
          "internalType": "uint256",
          "name": "_standardTokenId",
          "type": "uint256"
        },
        {
          "internalType": "uint256",
          "name": "_rareTokenId",
          "type": "uint256"
        },
        {
          "internalType": "uint256",
          "name": "_exchangeRatio",
          "type": "uint256"
        },
        {
          "internalType": "uint256",
          "name": "_rareProbabilityPercentage",
          "type": "uint256"
        },
        {
          "internalType": "bytes32",
          "name": "_salt",
          "type": "bytes32"
        },
        {
          "internalType": "string",
          "name": "_baseUri",
          "type": "string"
        },
        {
          "internalType": "string",
          "name": "_contractUri",
          "type": "string"
        }
      ],
      "stateMutability": "nonpayable",
      "type": "constructor"
    },
    {
      "anonymous": false,
      "inputs": [
        {
          "indexed": true,
          "internalType": "address",
          "name": "account",
          "type": "address"
        },
        {
          "indexed": true,
          "internalType": "address",
          "name": "operator",
          "type": "address"
        },
        {
          "indexed": false,
          "internalType": "bool",
          "name": "approved",
          "type": "bool"
        }
      ],
      "name": "ApprovalForAll",
      "type": "event"
    },
    {
      "anonymous": false,
      "inputs": [
        {
          "indexed": false,
          "internalType": "uint256",
          "name": "standardTokenId",
          "type": "uint256"
        },
        {
          "indexed": false,
          "internalType": "uint256",
          "name": "numStandardTokens",
          "type": "uint256"
        },
        {
          "indexed": false,
          "internalType": "uint256",
          "name": "rareTokenId",
          "type": "uint256"
        },
        {
          "indexed": false,
          "internalType": "uint256",
          "name": "numRareTokens",
          "type": "uint256"
        },
        {
          "indexed": false,
          "internalType": "address",
          "name": "initialOwner",
          "type": "address"
        }
      ],
      "name": "Mini1155Mint",
      "type": "event"
    },
    {
      "anonymous": false,
      "inputs": [
        {
          "indexed": false,
          "internalType": "uint256",
          "name": "tokenId",
          "type": "uint256"
        },
        {
          "indexed": false,
          "internalType": "uint256",
          "name": "numTokens",
          "type": "uint256"
        },
        {
          "indexed": false,
          "internalType": "address",
          "name": "initialOwner",
          "type": "address"
        }
      ],
      "name": "Mini1155MintCommunity",
      "type": "event"
    },
    {
      "anonymous": false,
      "inputs": [
        {
          "indexed": false,
          "internalType": "uint256",
          "name": "id",
          "type": "uint256"
        },
        {
          "indexed": false,
          "internalType": "address",
          "name": "from",
          "type": "address"
        },
        {
          "indexed": false,
          "internalType": "address",
          "name": "to",
          "type": "address"
        },
        {
          "indexed": false,
          "internalType": "address",
          "name": "operator",
          "type": "address"
        }
      ],
      "name": "Mini1155Transfer",
      "type": "event"
    },
    {
      "anonymous": false,
      "inputs": [
        {
          "indexed": true,
          "internalType": "address",
          "name": "previousOwner",
          "type": "address"
        },
        {
          "indexed": true,
          "internalType": "address",
          "name": "newOwner",
          "type": "address"
        }
      ],
      "name": "OwnershipTransferred",
      "type": "event"
    },
    {
      "anonymous": false,
      "inputs": [
        {
          "indexed": false,
          "internalType": "address",
          "name": "account",
          "type": "address"
        }
      ],
      "name": "Paused",
      "type": "event"
    },
    {
      "anonymous": false,
      "inputs": [
        {
          "indexed": false,
          "internalType": "uint256",
          "name": "tokenId",
          "type": "uint256"
        },
        {
          "components": [
            {
              "internalType": "address payable",
              "name": "account",
              "type": "address"
            },
            {
              "internalType": "uint96",
              "name": "value",
              "type": "uint96"
            }
          ],
          "indexed": false,
          "internalType": "struct LibPart.Part[]",
          "name": "royalties",
          "type": "tuple[]"
        }
      ],
      "name": "RoyaltiesSet",
      "type": "event"
    },
    {
      "anonymous": false,
      "inputs": [
        {
          "indexed": false,
          "internalType": "string",
          "name": "baseUri",
          "type": "string"
        }
      ],
      "name": "SetBaseUri",
      "type": "event"
    },
    {
      "anonymous": false,
      "inputs": [
        {
          "indexed": true,
          "internalType": "address",
          "name": "operator",
          "type": "address"
        },
        {
          "indexed": true,
          "internalType": "address",
          "name": "from",
          "type": "address"
        },
        {
          "indexed": true,
          "internalType": "address",
          "name": "to",
          "type": "address"
        },
        {
          "indexed": false,
          "internalType": "uint256[]",
          "name": "ids",
          "type": "uint256[]"
        },
        {
          "indexed": false,
          "internalType": "uint256[]",
          "name": "values",
          "type": "uint256[]"
        }
      ],
      "name": "TransferBatch",
      "type": "event"
    },
    {
      "anonymous": false,
      "inputs": [
        {
          "indexed": true,
          "internalType": "address",
          "name": "operator",
          "type": "address"
        },
        {
          "indexed": true,
          "internalType": "address",
          "name": "from",
          "type": "address"
        },
        {
          "indexed": true,
          "internalType": "address",
          "name": "to",
          "type": "address"
        },
        {
          "indexed": false,
          "internalType": "uint256",
          "name": "id",
          "type": "uint256"
        },
        {
          "indexed": false,
          "internalType": "uint256",
          "name": "value",
          "type": "uint256"
        }
      ],
      "name": "TransferSingle",
      "type": "event"
    },
    {
      "anonymous": false,
      "inputs": [
        {
          "indexed": false,
          "internalType": "string",
          "name": "value",
          "type": "string"
        },
        {
          "indexed": true,
          "internalType": "uint256",
          "name": "id",
          "type": "uint256"
        }
      ],
      "name": "URI",
      "type": "event"
    },
    {
      "anonymous": false,
      "inputs": [
        {
          "indexed": false,
          "internalType": "address",
          "name": "account",
          "type": "address"
        }
      ],
      "name": "Unpaused",
      "type": "event"
    },
    {
      "inputs": [
        {
          "internalType": "address",
          "name": "account",
          "type": "address"
        },
        {
          "internalType": "uint256",
          "name": "id",
          "type": "uint256"
        }
      ],
      "name": "balanceOf",
      "outputs": [
        {
          "internalType": "uint256",
          "name": "",
          "type": "uint256"
        }
      ],
      "stateMutability": "view",
      "type": "function"
    },
    {
      "inputs": [
        {
          "internalType": "address[]",
          "name": "accounts",
          "type": "address[]"
        },
        {
          "internalType": "uint256[]",
          "name": "ids",
          "type": "uint256[]"
        }
      ],
      "name": "balanceOfBatch",
      "outputs": [
        {
          "internalType": "uint256[]",
          "name": "",
          "type": "uint256[]"
        }
      ],
      "stateMutability": "view",
      "type": "function"
    },
    {
      "inputs": [],
      "name": "baseUri",
      "outputs": [
        {
          "internalType": "string",
          "name": "",
          "type": "string"
        }
      ],
      "stateMutability": "view",
      "type": "function"
    },
    {
      "inputs": [
        {
          "internalType": "address",
          "name": "_address",
          "type": "address"
        },
        {
          "internalType": "uint256",
          "name": "_tokenId",
          "type": "uint256"
        },
        {
          "internalType": "uint256",
          "name": "_amount",
          "type": "uint256"
        }
      ],
      "name": "burn",
      "outputs": [],
      "stateMutability": "nonpayable",
      "type": "function"
    },
    {
      "inputs": [
        {
          "internalType": "address",
          "name": "_address",
          "type": "address"
        },
        {
          "internalType": "uint256[]",
          "name": "_tokenIds",
          "type": "uint256[]"
        },
        {
          "internalType": "uint256[]",
          "name": "_amounts",
          "type": "uint256[]"
        }
      ],
      "name": "burnBatch",
      "outputs": [],
      "stateMutability": "nonpayable",
      "type": "function"
    },
    {
      "inputs": [],
      "name": "contractURI",
      "outputs": [
        {
          "internalType": "string",
          "name": "",
          "type": "string"
        }
      ],
      "stateMutability": "view",
      "type": "function"
    },
    {
      "inputs": [],
      "name": "exchange",
      "outputs": [],
      "stateMutability": "nonpayable",
      "type": "function"
    },
    {
      "inputs": [],
      "name": "exchangeRatio",
      "outputs": [
        {
          "internalType": "uint256",
          "name": "",
          "type": "uint256"
        }
      ],
      "stateMutability": "view",
      "type": "function"
    },
    {
      "inputs": [
        {
          "internalType": "uint256",
          "name": "id",
          "type": "uint256"
        }
      ],
      "name": "exists",
      "outputs": [
        {
          "internalType": "bool",
          "name": "",
          "type": "bool"
        }
      ],
      "stateMutability": "view",
      "type": "function"
    },
    {
      "inputs": [],
      "name": "freezeMetadata",
      "outputs": [],
      "stateMutability": "nonpayable",
      "type": "function"
    },
    {
      "inputs": [
        {
          "internalType": "uint256",
          "name": "id",
          "type": "uint256"
        }
      ],
      "name": "getRaribleV2Royalties",
      "outputs": [
        {
          "components": [
            {
              "internalType": "address payable",
              "name": "account",
              "type": "address"
            },
            {
              "internalType": "uint96",
              "name": "value",
              "type": "uint96"
            }
          ],
          "internalType": "struct LibPart.Part[]",
          "name": "",
          "type": "tuple[]"
        }
      ],
      "stateMutability": "view",
      "type": "function"
    },
    {
      "inputs": [
        {
          "internalType": "address",
          "name": "account",
          "type": "address"
        },
        {
          "internalType": "address",
          "name": "operator",
          "type": "address"
        }
      ],
      "name": "isApprovedForAll",
      "outputs": [
        {
          "internalType": "bool",
          "name": "",
          "type": "bool"
        }
      ],
      "stateMutability": "view",
      "type": "function"
    },
    {
      "inputs": [],
      "name": "maxPerMint",
      "outputs": [
        {
          "internalType": "uint256",
          "name": "",
          "type": "uint256"
        }
      ],
      "stateMutability": "view",
      "type": "function"
    },
    {
      "inputs": [
        {
          "internalType": "uint256",
          "name": "",
          "type": "uint256"
        }
      ],
      "name": "maxPersonalCap",
      "outputs": [
        {
          "internalType": "uint256",
          "name": "",
          "type": "uint256"
        }
      ],
      "stateMutability": "view",
      "type": "function"
    },
    {
      "inputs": [
        {
          "internalType": "uint256",
          "name": "",
          "type": "uint256"
        }
      ],
      "name": "maxSupply",
      "outputs": [
        {
          "internalType": "uint256",
          "name": "",
          "type": "uint256"
        }
      ],
      "stateMutability": "view",
      "type": "function"
    },
    {
      "inputs": [],
      "name": "metadataFrozen",
      "outputs": [
        {
          "internalType": "bool",
          "name": "",
          "type": "bool"
        }
      ],
      "stateMutability": "view",
      "type": "function"
    },
    {
      "inputs": [
        {
          "internalType": "uint256",
          "name": "",
          "type": "uint256"
        }
      ],
      "name": "metadataUris",
      "outputs": [
        {
          "internalType": "string",
          "name": "",
          "type": "string"
        }
      ],
      "stateMutability": "view",
      "type": "function"
    },
    {
      "inputs": [
        {
          "internalType": "uint256",
          "name": "_amount",
          "type": "uint256"
        }
      ],
      "name": "mint",
      "outputs": [],
      "stateMutability": "payable",
      "type": "function"
    },
    {
      "inputs": [
        {
          "internalType": "address",
          "name": "_to",
          "type": "address"
        },
        {
          "internalType": "uint256",
          "name": "_tokenId",
          "type": "uint256"
        },
        {
          "internalType": "uint256",
          "name": "_numberOfTokens",
          "type": "uint256"
        }
      ],
      "name": "mintAsOwner",
      "outputs": [],
      "stateMutability": "nonpayable",
      "type": "function"
    },
    {
      "inputs": [],
      "name": "mintPrice",
      "outputs": [
        {
          "internalType": "uint256",
          "name": "",
          "type": "uint256"
        }
      ],
      "stateMutability": "view",
      "type": "function"
    },
    {
      "inputs": [],
      "name": "name",
      "outputs": [
        {
          "internalType": "string",
          "name": "",
          "type": "string"
        }
      ],
      "stateMutability": "view",
      "type": "function"
    },
    {
      "inputs": [],
      "name": "owner",
      "outputs": [
        {
          "internalType": "address",
          "name": "",
          "type": "address"
        }
      ],
      "stateMutability": "view",
      "type": "function"
    },
    {
      "inputs": [],
      "name": "pause",
      "outputs": [],
      "stateMutability": "nonpayable",
      "type": "function"
    },
    {
      "inputs": [],
      "name": "paused",
      "outputs": [
        {
          "internalType": "bool",
          "name": "",
          "type": "bool"
        }
      ],
      "stateMutability": "view",
      "type": "function"
    },
    {
      "inputs": [],
      "name": "rareProbabilityPercentage",
      "outputs": [
        {
          "internalType": "uint256",
          "name": "",
          "type": "uint256"
        }
      ],
      "stateMutability": "view",
      "type": "function"
    },
    {
      "inputs": [],
      "name": "rareTokenId",
      "outputs": [
        {
          "internalType": "uint256",
          "name": "",
          "type": "uint256"
        }
      ],
      "stateMutability": "view",
      "type": "function"
    },
    {
      "inputs": [],
      "name": "renounceOwnership",
      "outputs": [],
      "stateMutability": "nonpayable",
      "type": "function"
    },
    {
      "inputs": [],
      "name": "revenueAccount",
      "outputs": [
        {
          "internalType": "address",
          "name": "",
          "type": "address"
        }
      ],
      "stateMutability": "view",
      "type": "function"
    },
    {
      "inputs": [
        {
          "internalType": "uint256",
          "name": "",
          "type": "uint256"
        },
        {
          "internalType": "uint256",
          "name": "",
          "type": "uint256"
        }
      ],
      "name": "royalties",
      "outputs": [
        {
          "internalType": "address payable",
          "name": "account",
          "type": "address"
        },
        {
          "internalType": "uint96",
          "name": "value",
          "type": "uint96"
        }
      ],
      "stateMutability": "view",
      "type": "function"
    },
    {
      "inputs": [
        {
          "internalType": "uint256",
          "name": "_tokenId",
          "type": "uint256"
        },
        {
          "internalType": "uint256",
          "name": "_salePrice",
          "type": "uint256"
        }
      ],
      "name": "royaltyInfo",
      "outputs": [
        {
          "internalType": "address",
          "name": "receiver",
          "type": "address"
        },
        {
          "internalType": "uint256",
          "name": "royaltyAmount",
          "type": "uint256"
        }
      ],
      "stateMutability": "view",
      "type": "function"
    },
    {
      "inputs": [
        {
          "internalType": "address",
          "name": "from",
          "type": "address"
        },
        {
          "internalType": "address",
          "name": "to",
          "type": "address"
        },
        {
          "internalType": "uint256[]",
          "name": "ids",
          "type": "uint256[]"
        },
        {
          "internalType": "uint256[]",
          "name": "amounts",
          "type": "uint256[]"
        },
        {
          "internalType": "bytes",
          "name": "data",
          "type": "bytes"
        }
      ],
      "name": "safeBatchTransferFrom",
      "outputs": [],
      "stateMutability": "nonpayable",
      "type": "function"
    },
    {
      "inputs": [
        {
          "internalType": "address",
          "name": "from",
          "type": "address"
        },
        {
          "internalType": "address",
          "name": "to",
          "type": "address"
        },
        {
          "internalType": "uint256",
          "name": "id",
          "type": "uint256"
        },
        {
          "internalType": "uint256",
          "name": "amount",
          "type": "uint256"
        },
        {
          "internalType": "bytes",
          "name": "data",
          "type": "bytes"
        }
      ],
      "name": "safeTransferFrom",
      "outputs": [],
      "stateMutability": "nonpayable",
      "type": "function"
    },
    {
      "inputs": [],
      "name": "saleIsActive",
      "outputs": [
        {
          "internalType": "bool",
          "name": "",
          "type": "bool"
        }
      ],
      "stateMutability": "view",
      "type": "function"
    },
    {
      "inputs": [],
      "name": "saleStarted",
      "outputs": [
        {
          "internalType": "bool",
          "name": "",
          "type": "bool"
        }
      ],
      "stateMutability": "view",
      "type": "function"
    },
    {
      "inputs": [],
      "name": "salt",
      "outputs": [
        {
          "internalType": "bytes32",
          "name": "",
          "type": "bytes32"
        }
      ],
      "stateMutability": "view",
      "type": "function"
    },
    {
      "inputs": [
        {
          "internalType": "address",
          "name": "operator",
          "type": "address"
        },
        {
          "internalType": "bool",
          "name": "approved",
          "type": "bool"
        }
      ],
      "name": "setApprovalForAll",
      "outputs": [],
      "stateMutability": "nonpayable",
      "type": "function"
    },
    {
      "inputs": [
        {
          "internalType": "string",
          "name": "_baseUri",
          "type": "string"
        }
      ],
      "name": "setBaseUri",
      "outputs": [],
      "stateMutability": "nonpayable",
      "type": "function"
    },
    {
      "inputs": [
        {
          "internalType": "string",
          "name": "uri_",
          "type": "string"
        }
      ],
      "name": "setContractUri",
      "outputs": [],
      "stateMutability": "nonpayable",
      "type": "function"
    },
    {
      "inputs": [
        {
          "internalType": "uint256",
          "name": "_exchangeRatio",
          "type": "uint256"
        }
      ],
      "name": "setExchangeRatio",
      "outputs": [],
      "stateMutability": "nonpayable",
      "type": "function"
    },
    {
      "inputs": [
        {
          "internalType": "uint256",
          "name": "_maxPerMint",
          "type": "uint256"
        }
      ],
      "name": "setMaxPerMint",
      "outputs": [],
      "stateMutability": "nonpayable",
      "type": "function"
    },
    {
      "inputs": [
        {
          "internalType": "uint256",
          "name": "_tokenId",
          "type": "uint256"
        },
        {
          "internalType": "uint256",
          "name": "_cap",
          "type": "uint256"
        }
      ],
      "name": "setMaxPersonalCap",
      "outputs": [],
      "stateMutability": "nonpayable",
      "type": "function"
    },
    {
      "inputs": [
        {
          "internalType": "uint256",
          "name": "_tokenId",
          "type": "uint256"
        },
        {
          "internalType": "uint256",
          "name": "_cap",
          "type": "uint256"
        }
      ],
      "name": "setMaxSupply",
      "outputs": [],
      "stateMutability": "nonpayable",
      "type": "function"
    },
    {
      "inputs": [
        {
          "internalType": "uint256",
          "name": "_mintPrice",
          "type": "uint256"
        }
      ],
      "name": "setMintPrice",
      "outputs": [],
      "stateMutability": "nonpayable",
      "type": "function"
    },
    {
      "inputs": [
        {
          "internalType": "string",
          "name": "name_",
          "type": "string"
        },
        {
          "internalType": "string",
          "name": "symbol_",
          "type": "string"
        }
      ],
      "name": "setNameSymbol",
      "outputs": [],
      "stateMutability": "nonpayable",
      "type": "function"
    },
    {
      "inputs": [
        {
          "internalType": "uint256",
          "name": "_rareProbabilityPercentage",
          "type": "uint256"
        }
      ],
      "name": "setRareProbabilityPercentage",
      "outputs": [],
      "stateMutability": "nonpayable",
      "type": "function"
    },
    {
      "inputs": [
        {
          "internalType": "uint256",
          "name": "_tokenId",
          "type": "uint256"
        }
      ],
      "name": "setRareTokenId",
      "outputs": [],
      "stateMutability": "nonpayable",
      "type": "function"
    },
    {
      "inputs": [
        {
          "internalType": "address",
          "name": "account",
          "type": "address"
        }
      ],
      "name": "setRevenueAccount",
      "outputs": [],
      "stateMutability": "nonpayable",
      "type": "function"
    },
    {
      "inputs": [
        {
          "internalType": "uint256",
          "name": "_tokenId",
          "type": "uint256"
        },
        {
          "internalType": "address payable",
          "name": "_royaltiesReceipientAddress",
          "type": "address"
        },
        {
          "internalType": "uint96",
          "name": "_percentageBasisPoints",
          "type": "uint96"
        }
      ],
      "name": "setRoyalties",
      "outputs": [],
      "stateMutability": "nonpayable",
      "type": "function"
    },
    {
      "inputs": [
        {
          "internalType": "bytes32",
          "name": "_salt",
          "type": "bytes32"
        }
      ],
      "name": "setSalt",
      "outputs": [],
      "stateMutability": "nonpayable",
      "type": "function"
    },
    {
      "inputs": [
        {
          "internalType": "uint256",
          "name": "_tokenId",
          "type": "uint256"
        }
      ],
      "name": "setStandardTokenId",
      "outputs": [],
      "stateMutability": "nonpayable",
      "type": "function"
    },
    {
      "inputs": [
        {
          "internalType": "string",
          "name": "newuri",
          "type": "string"
        }
      ],
      "name": "setURI",
      "outputs": [],
      "stateMutability": "nonpayable",
      "type": "function"
    },
    {
      "inputs": [
        {
          "internalType": "uint256",
          "name": "id",
          "type": "uint256"
        },
        {
          "internalType": "string",
          "name": "uri_",
          "type": "string"
        }
      ],
      "name": "setUri",
      "outputs": [],
      "stateMutability": "nonpayable",
      "type": "function"
    },
    {
      "inputs": [],
      "name": "standardTokenId",
      "outputs": [
        {
          "internalType": "uint256",
          "name": "",
          "type": "uint256"
        }
      ],
      "stateMutability": "view",
      "type": "function"
    },
    {
      "inputs": [
        {
          "internalType": "bytes4",
          "name": "interfaceId",
          "type": "bytes4"
        }
      ],
      "name": "supportsInterface",
      "outputs": [
        {
          "internalType": "bool",
          "name": "",
          "type": "bool"
        }
      ],
      "stateMutability": "view",
      "type": "function"
    },
    {
      "inputs": [],
      "name": "symbol",
      "outputs": [
        {
          "internalType": "string",
          "name": "",
          "type": "string"
        }
      ],
      "stateMutability": "view",
      "type": "function"
    },
    {
      "inputs": [],
      "name": "toggleSaleState",
      "outputs": [],
      "stateMutability": "nonpayable",
      "type": "function"
    },
    {
      "inputs": [
        {
          "internalType": "uint256",
          "name": "id",
          "type": "uint256"
        }
      ],
      "name": "totalSupply",
      "outputs": [
        {
          "internalType": "uint256",
          "name": "",
          "type": "uint256"
        }
      ],
      "stateMutability": "view",
      "type": "function"
    },
    {
      "inputs": [
        {
          "internalType": "address",
          "name": "newOwner",
          "type": "address"
        }
      ],
      "name": "transferOwnership",
      "outputs": [],
      "stateMutability": "nonpayable",
      "type": "function"
    },
    {
      "inputs": [],
      "name": "unpause",
      "outputs": [],
      "stateMutability": "nonpayable",
      "type": "function"
    },
    {
      "inputs": [
        {
          "internalType": "uint256",
          "name": "id",
          "type": "uint256"
        }
      ],
      "name": "uri",
      "outputs": [
        {
          "internalType": "string",
          "name": "",
          "type": "string"
        }
      ],
      "stateMutability": "view",
      "type": "function"
    },
    {
      "inputs": [
        {
          "internalType": "uint256",
          "name": "amount",
          "type": "uint256"
        },
        {
          "internalType": "bool",
          "name": "shouldUseRevenueAccount",
          "type": "bool"
        }
      ],
      "name": "withdraw",
      "outputs": [],
      "stateMutability": "nonpayable",
      "type": "function"
    },
    {
      "stateMutability": "payable",
      "type": "receive"
    }
  ],
  "transactionHash": "0x2ef91534688beb3cad67fc3378bfcf8a7f138f7dbd3d6f9beeb86489bb716f8e",
  "args": [
    false,
    false,
    "42000000000000000",
    "10",
    "1",
    "1",
    "0",
    "1",
    "0x3100000000000000000000000000000000000000000000000000000000000000",
    "ipfs://QmZ1iHDogTnoEVSFPo1yYYYuPzLhTWuA9pd77C9b5h6cot/Mini1155",
    "ipfs://QmZ1iHDogTnoEVSFPo1yYYYuPzLhTWuA9pd77C9b5h6cot/Mini1155/contract.json"
  ],
  "numDeployments": 1,
  "solcInputHash": "948ad940fb71d4798da908931ec53346",
  "bytecode": "0x60806040523480156200001157600080fd5b5060405162004121380380620041218339810160408190526200003491620002ec565b816200004081620000f8565b506200004c3362000111565b6003805460ff60a01b191690556012805460ff19168c151590811790915560ff161562000083576012805461ff0019166101001790555b6012805462ff00001916620100008c1515021790556009899055600a889055600b879055600c869055600d859055600e84905560088390558051620000d090600690602084019062000163565b508151620000e690600790602085019062000163565b50505050505050505050505062000404565b80516200010d90600290602084019062000163565b5050565b600380546001600160a01b038381166001600160a01b0319831681179093556040519116919082907f8be0079c531659141344cd1fd0a4f28419497f9722a3daafe3b4186f6b6457e090600090a35050565b8280546200017190620003c7565b90600052602060002090601f016020900481019282620001955760008555620001e0565b82601f10620001b057805160ff1916838001178555620001e0565b82800160010185558215620001e0579182015b82811115620001e0578251825591602001919060010190620001c3565b50620001ee929150620001f2565b5090565b5b80821115620001ee5760008155600101620001f3565b805180151581146200021a57600080fd5b919050565b634e487b7160e01b600052604160045260246000fd5b600082601f8301126200024757600080fd5b81516001600160401b03808211156200026457620002646200021f565b604051601f8301601f19908116603f011681019082821181831017156200028f576200028f6200021f565b81604052838152602092508683858801011115620002ac57600080fd5b600091505b83821015620002d05785820183015181830184015290820190620002b1565b83821115620002e25760008385830101525b9695505050505050565b60008060008060008060008060008060006101608c8e0312156200030f57600080fd5b6200031a8c62000209565b9a506200032a60208d0162000209565b995060408c0151985060608c0151975060808c0151965060a08c0151955060c08c0151945060e08c015193506101008c015192506101208c015160018060401b038111156200037857600080fd5b620003868e828f0162000235565b6101408e015190935090506001600160401b03811115620003a657600080fd5b620003b48e828f0162000235565b9150509295989b509295989b9093969950565b600181811c90821680620003dc57607f821691505b60208210811415620003fe57634e487b7160e01b600052602260045260246000fd5b50919050565b613d0d80620004146000396000f3fe6080604052600436106103a55760003560e01c8063857aa89a116101e7578063cb5dcaec1161010d578063eb8d2444116100a0578063f4a0a5281161006f578063f4a0a52814610b0b578063f5298aca14610b2b578063f5dc7d5614610b4b578063fb3cc6c214610b6b57600080fd5b8063eb8d244414610a91578063edb2625514610aab578063f242432a14610acb578063f2fde38b14610aeb57600080fd5b8063daaeec86116100dc578063daaeec86146109fe578063db6242c314610a13578063e8a3d48514610a33578063e985e9c514610a4857600080fd5b8063cb5dcaec1461099e578063ccb4807b146109b4578063d111515d146109d4578063d2f7265a146109e957600080fd5b8063a0712d6811610185578063b4d7dbed11610154578063b4d7dbed14610918578063bd85b0391461092e578063bfa0b1331461095b578063cad96cca1461097157600080fd5b8063a0712d68146108a5578063a0bcfc7f146108b8578063a22cb465146108d8578063a65b9926146108f857600080fd5b80638924af74116101c15780638924af74146108025780638da5cb5b1461084957806395d89b411461087b5780639abc83201461089057600080fd5b8063857aa89a1461079f578063857c2985146107bf578063869f7594146107d557600080fd5b80634006ccc5116102cc5780635c975abb1161026a578063715018a611610239578063715018a614610735578063782f08ae1461074a5780637c7810801461076a5780638456cb591461078a57600080fd5b80635c975abb146106c0578063611ef44f146106df5780636817c76c146106ff5780636b20c4541461071557600080fd5b80634f558e79116102a65780634f558e791461063c578063504334c21461066b578063507e094f1461068b5780635c474f9e146106a157600080fd5b80634006ccc5146105d95780634798b851146105ef5780634e1273f41461060f57600080fd5b80632591003311610344578063311aaef511610313578063311aaef51461055757806337da577c1461058457806338d07436146105a45780633f4ba83a146105c457600080fd5b806325910033146104b85780632a55205a146104d85780632eb2c2d61461051757806330027f3b1461053757600080fd5b8063064c6b3811610380578063064c6b381461043657806306fdde03146104565780630e89341c14610478578063143094db1461049857600080fd5b8062fdd58e146103b157806301ffc9a7146103e457806302fe53051461041457600080fd5b366103ac57005b600080fd5b3480156103bd57600080fd5b506103d16103cc366004612f52565b610b8b565b6040519081526020015b60405180910390f35b3480156103f057600080fd5b506104046103ff366004612f94565b610c21565b60405190151581526020016103db565b34801561042057600080fd5b5061043461042f36600461306d565b610c9d565b005b34801561044257600080fd5b506104346104513660046130a9565b610cb1565b34801561046257600080fd5b5061046b610ccb565b6040516103db9190613123565b34801561048457600080fd5b5061046b610493366004613136565b610d59565b3480156104a457600080fd5b506104346104b336600461314f565b610e4e565b3480156104c457600080fd5b506104346104d3366004613136565b610f0a565b3480156104e457600080fd5b506104f86104f33660046130a9565b610f17565b604080516001600160a01b0390931683526020830191909152016103db565b34801561052357600080fd5b50610434610532366004613231565b61101d565b34801561054357600080fd5b506104346105523660046132de565b611069565b34801561056357600080fd5b506103d1610572366004613136565b60146020526000908152604090205481565b34801561059057600080fd5b5061043461059f3660046130a9565b611093565b3480156105b057600080fd5b506104346105bf366004613310565b6110ad565b3480156105d057600080fd5b50610434611192565b3480156105e557600080fd5b506103d1600d5481565b3480156105fb57600080fd5b5061043461060a366004613136565b6111a4565b34801561061b57600080fd5b5061062f61062a36600461333c565b6111b1565b6040516103db9190613443565b34801561064857600080fd5b50610404610657366004613136565b600090815260046020526040902054151590565b34801561067757600080fd5b50610434610686366004613456565b6112da565b34801561069757600080fd5b506103d1600a5481565b3480156106ad57600080fd5b5060125461040490610100900460ff1681565b3480156106cc57600080fd5b50600354600160a01b900460ff16610404565b3480156106eb57600080fd5b506104346106fa366004613136565b61130e565b34801561070b57600080fd5b506103d160095481565b34801561072157600080fd5b506104346107303660046134af565b61131b565b34801561074157600080fd5b5061043461132e565b34801561075657600080fd5b50610434610765366004613524565b611340565b34801561077657600080fd5b50610434610785366004613136565b611390565b34801561079657600080fd5b5061043461139d565b3480156107ab57600080fd5b506104346107ba366004613136565b6113ad565b3480156107cb57600080fd5b506103d1600b5481565b3480156107e157600080fd5b506103d16107f0366004613136565b60136020526000908152604090205481565b34801561080e57600080fd5b5061082261081d3660046130a9565b6113ba565b604080516001600160a01b0390931683526001600160601b039091166020830152016103db565b34801561085557600080fd5b506003546001600160a01b03165b6040516001600160a01b0390911681526020016103db565b34801561088757600080fd5b5061046b611403565b34801561089c57600080fd5b5061046b611410565b6104346108b3366004613136565b61141d565b3480156108c457600080fd5b506104346108d336600461306d565b611842565b3480156108e457600080fd5b506104346108f3366004613560565b6118c2565b34801561090457600080fd5b5061046b610913366004613136565b6118d1565b34801561092457600080fd5b506103d1600c5481565b34801561093a57600080fd5b506103d1610949366004613136565b60009081526004602052604090205490565b34801561096757600080fd5b506103d160085481565b34801561097d57600080fd5b5061099161098c366004613136565b6118ea565b6040516103db91906135d9565b3480156109aa57600080fd5b506103d1600e5481565b3480156109c057600080fd5b506104346109cf36600461306d565b611979565b3480156109e057600080fd5b506104346119bd565b3480156109f557600080fd5b50610434611a01565b348015610a0a57600080fd5b50610434611ad9565b348015610a1f57600080fd5b50610434610a2e366004613136565b611b21565b348015610a3f57600080fd5b5061046b611b2e565b348015610a5457600080fd5b50610404610a633660046135ec565b6001600160a01b03918216600090815260016020908152604080832093909416825291909152205460ff1690565b348015610a9d57600080fd5b506012546104049060ff1681565b348015610ab757600080fd5b50610434610ac6366004613625565b611b3b565b348015610ad757600080fd5b50610434610ae636600461365a565b611c6d565b348015610af757600080fd5b50610434610b063660046132de565b611cb2565b348015610b1757600080fd5b50610434610b26366004613136565b611d28565b348015610b3757600080fd5b50610434610b46366004613625565b611d35565b348015610b5757600080fd5b50600f54610863906001600160a01b031681565b348015610b7757600080fd5b506012546104049062010000900460ff1681565b60006001600160a01b038316610bfb5760405162461bcd60e51b815260206004820152602a60248201527f455243313135353a2061646472657373207a65726f206973206e6f742061207660448201526930b634b21037bbb732b960b11b60648201526084015b60405180910390fd5b506000908152602081815260408083206001600160a01b03949094168352929052205490565b60006001600160e01b031982166306fdde0360e01b1480610c5257506001600160e01b031982166395d89b4160e01b145b80610c6d57506001600160e01b03198216631131d2f360e21b145b80610c8857506001600160e01b0319821663152a902d60e11b145b80610c975750610c9782611d48565b92915050565b610ca5611d98565b610cae81611df2565b50565b610cb9611d98565b60009182526014602052604090912055565b60108054610cd8906136c2565b80601f0160208091040260200160405190810160405280929190818152602001828054610d04906136c2565b8015610d515780601f10610d2657610100808354040283529160200191610d51565b820191906000526020600020905b815481529060010190602001808311610d3457829003601f168201915b505050505081565b6000818152601560205260409020805460609190610d76906136c2565b15159050610db0576007610d8983611e05565b604051602001610d9a9291906136fd565b6040516020818303038152906040529050919050565b60008281526015602052604090208054610dc9906136c2565b80601f0160208091040260200160405190810160405280929190818152602001828054610df5906136c2565b8015610e425780601f10610e1757610100808354040283529160200191610e42565b820191906000526020600020905b815481529060010190602001808311610e2557829003601f168201915b50505050509050919050565b610e56611d98565b604080516001808252818301909252600091816020015b6040805180820190915260008082526020820152815260200190600190039081610e6d5790505090508181600081518110610eaa57610eaa613790565b6020026020010151602001906001600160601b031690816001600160601b0316815250508281600081518110610ee257610ee2613790565b60209081029190910101516001600160a01b039091169052610f048482611f2d565b50505050565b610f12611d98565b600c55565b6000828152600560209081526040808320805482518185028101850190935280835284938493929190849084015b82821015610f9457600084815260209081902060408051808201909152908401546001600160a01b0381168252600160a01b90046001600160601b031681830152825260019092019101610f45565b50505050905060008151111561100d5780600081518110610fb757610fb7613790565b60200260200101516000015161271082600081518110610fd957610fd9613790565b6020026020010151602001516001600160601b031686610ff991906137bc565b61100391906137f1565b9250925050611016565b60008092509250505b9250929050565b6001600160a01b03851633148061103957506110398533610a63565b6110555760405162461bcd60e51b8152600401610bf290613805565b61106285858585856120b1565b5050505050565b611071611d98565b600f80546001600160a01b0319166001600160a01b0392909216919091179055565b61109b611d98565b60009182526013602052604090912055565b6003546001600160a01b03163314806110d05750600f546001600160a01b031633145b61110b5760405162461bcd60e51b815260206004820152600c60248201526b1d5b985d5d1a1bdc9a5e995960a21b6044820152606401610bf2565b600081611123576003546001600160a01b0316611130565b600f546001600160a01b03165b90506000816001600160a01b03168460405160006040518083038185875af1925050503d806000811461117f576040519150601f19603f3d011682016040523d82523d6000602084013e611184565b606091505b5050905080610f0457600080fd5b61119a611d98565b6111a261225b565b565b6111ac611d98565b600b55565b606081518351146112165760405162461bcd60e51b815260206004820152602960248201527f455243313135353a206163636f756e747320616e6420696473206c656e677468604482015268040dad2e6dac2e8c6d60bb1b6064820152608401610bf2565b600083516001600160401b0381111561123157611231612fb8565b60405190808252806020026020018201604052801561125a578160200160208202803683370190505b50905060005b84518110156112d2576112a585828151811061127e5761127e613790565b602002602001015185838151811061129857611298613790565b6020026020010151610b8b565b8282815181106112b7576112b7613790565b60209081029190910101526112cb81613854565b9050611260565b509392505050565b6112e2611d98565b81516112f5906010906020850190612ea4565b508051611309906011906020840190612ea4565b505050565b611316611d98565b600855565b611323611d98565b6113098383836122b0565b611336611d98565b6111a260006122f3565b611348611d98565b60125462010000900460ff16156113715760405162461bcd60e51b8152600401610bf29061386f565b6000828152601560209081526040909120825161130992840190612ea4565b611398611d98565b600d55565b6113a5611d98565b6111a2612345565b6113b5611d98565b600e55565b600560205281600052604060002081815481106113d657600080fd5b6000918252602090912001546001600160a01b0381169250600160a01b90046001600160601b0316905082565b60118054610cd8906136c2565b60078054610cd8906136c2565b60125460ff166114615760405162461bcd60e51b815260206004820152600f60248201526e73616c65206e6f742061637469766560881b6044820152606401610bf2565b600081116114a35760405162461bcd60e51b815260206004820152600f60248201526e6d696e74696e6720746f6f2066657760881b6044820152606401610bf2565b600a548111156114f55760405162461bcd60e51b815260206004820152601760248201527f657863656564656420706572206d696e74206c696d69740000000000000000006044820152606401610bf2565b348160095461150491906137bc565b11156115495760405162461bcd60e51b81526020600482015260146024820152731a5b9cdd59999a58da595b9d081c185e5b595b9d60621b6044820152606401610bf2565b60006009548261155991906137bc565b6115639034613898565b9050801561159a57604051339082156108fc029083906000818181858888f19350505050158015611598573d6000803e3d6000fd5b505b6000806115a933600b54610b8b565b905060006115b933600c54610b8b565b905060006115d5600c5460009081526004602052604090205490565b600c54600090815260136020526040902054909150811080156116085750600c5460009081526014602052604090205482105b1561168b576008546040805160208101929092526bffffffffffffffffffffffff193360601b169082015260548101849052607481018390526000906064906094016040516020818303038152906040528051906020012060001c61166d91906138af565b905086600e5461167d91906137bc565b81101561168957600194505b505b83156116bc5761169c600187613898565b95506116bc33600c54600160405180602001604052806000815250612388565b85156117d757600b546000908152601360209081526040808320546004909252909120546116eb9088906138c3565b11156117445760405162461bcd60e51b815260206004820152602260248201527f7374616e6461726420746f6b656e20737570706c792063617020657863656564604482015261195960f21b6064820152608401610bf2565b600b5460009081526014602052604090205461176087856138c3565b11156117ba5760405162461bcd60e51b8152602060048201526024808201527f7374616e6461726420746f6b656e20706572736f6e616c2063617020657863656044820152631959195960e21b6064820152608401610bf2565b6117d733600b548860405180602001604052806000815250612388565b7fc21f2d8cc46e7ab1c5fa22cd2ed0ab74c24f941f667d240b714b978bcc6bea64600b5487600c548761180b57600061180e565b60015b6040805194855260208501939093529183015260ff16606082015233608082015260a00160405180910390a1505050505050565b61184a611d98565b60125462010000900460ff16156118735760405162461bcd60e51b8152600401610bf29061386f565b8051611886906007906020840190612ea4565b507fafa35f42f46f5052816d7c6a2e9406eca98294b20726677862d83b4a7418d8d560076040516118b791906138db565b60405180910390a150565b6118cd3383836124ab565b5050565b60156020526000908152604090208054610cd8906136c2565b606060056000838152602001908152602001600020805480602002602001604051908101604052809291908181526020016000905b8282101561196e57600084815260209081902060408051808201909152908401546001600160a01b0381168252600160a01b90046001600160601b03168183015282526001909201910161191f565b505050509050919050565b60125462010000900460ff16156119a25760405162461bcd60e51b8152600401610bf29061386f565b6119aa611d98565b80516118cd906006906020840190612ea4565b6119c5611d98565b60125462010000900460ff16156119ee5760405162461bcd60e51b8152600401610bf29061386f565b6012805462ff0000191662010000179055565b6000600d5411611a4a5760405162461bcd60e51b8152602060048201526014602482015273195e18da185b99d9481b9bdd08195b98589b195960621b6044820152606401610bf2565b6000611a5833600b54610b8b565b9050600d54811015611aac5760405162461bcd60e51b815260206004820152601760248201527f746f6f20666577207374616e6461726420746f6b656e730000000000000000006044820152606401610bf2565b611abb33600b54600d5461258c565b610cae33600c54600160405180602001604052806000815250612388565b611ae1611d98565b6012805460ff19811660ff91821615908117909255168015611b0b5750601254610100900460ff16155b156111a2576012805461ff001916610100179055565b611b29611d98565b600a55565b60068054610cd8906136c2565b611b43611d98565b6001600160a01b038316611b8b5760405162461bcd60e51b815260206004820152600f60248201526e7a65726f20746f2d6164647265737360881b6044820152606401610bf2565b60008281526013602052604090205415611c0557600082815260136020908152604080832054600490925290912054611bc59083906138c3565b1115611c055760405162461bcd60e51b815260206004820152600f60248201526e1cdd5c1c1b1e48195e18d959591959608a1b6044820152606401610bf2565b611c2083838360405180602001604052806000815250612388565b60408051838152602081018390526001600160a01b0385168183015290517f1daf399549c8b1715feb1d8528ae393bfb7e7b2684f0732357e5a4473422db569181900360600190a1505050565b6001600160a01b038516331480611c895750611c898533610a63565b611ca55760405162461bcd60e51b8152600401610bf290613805565b61106285858585856126a4565b611cba611d98565b6001600160a01b038116611d1f5760405162461bcd60e51b815260206004820152602660248201527f4f776e61626c653a206e6577206f776e657220697320746865207a65726f206160448201526564647265737360d01b6064820152608401610bf2565b610cae816122f3565b611d30611d98565b600955565b611d3d611d98565b6113098383836127dc565b60006001600160e01b03198216636cdb3d1360e11b1480611d7957506001600160e01b031982166303a24d0760e21b145b80610c9757506301ffc9a760e01b6001600160e01b0319831614610c97565b6003546001600160a01b031633146111a25760405162461bcd60e51b815260206004820181905260248201527f4f776e61626c653a2063616c6c6572206973206e6f7420746865206f776e65726044820152606401610bf2565b80516118cd906002906020840190612ea4565b606081611e295750506040805180820190915260018152600360fc1b602082015290565b8160005b8115611e535780611e3d81613854565b9150611e4c9050600a836137f1565b9150611e2d565b6000816001600160401b03811115611e6d57611e6d612fb8565b6040519080825280601f01601f191660200182016040528015611e97576020820181803683370190505b509050815b8515611f2457611ead600182613898565b90506000611ebc600a886137f1565b611ec790600a6137bc565b611ed19088613898565b611edc906030613960565b905060008160f81b905080848481518110611ef957611ef9613790565b60200101906001600160f81b031916908160001a905350611f1b600a896137f1565b97505050611e9c565b50949350505050565b60005b81518110156120a65760006001600160a01b0316828281518110611f5657611f56613790565b6020026020010151600001516001600160a01b03161415611fb95760405162461bcd60e51b815260206004820152601b60248201527f526563697069656e742073686f756c642062652070726573656e7400000000006044820152606401610bf2565b818181518110611fcb57611fcb613790565b6020026020010151602001516001600160601b0316600014156120305760405162461bcd60e51b815260206004820181905260248201527f526f79616c74792076616c75652073686f756c6420626520706f7369746976656044820152606401610bf2565b6000838152600560205260409020825183908390811061205257612052613790565b6020908102919091018101518254600181018455600093845292829020815191909201516001600160601b0316600160a01b026001600160a01b03909116179101558061209e81613854565b915050611f30565b506118cd828261281f565b81518351146120d25760405162461bcd60e51b8152600401610bf290613985565b6001600160a01b0384166120f85760405162461bcd60e51b8152600401610bf2906139cd565b3361210781878787878761285c565b60005b84518110156121ed57600085828151811061212757612127613790565b60200260200101519050600085838151811061214557612145613790565b602090810291909101810151600084815280835260408082206001600160a01b038e1683529093529190912054909150818110156121955760405162461bcd60e51b8152600401610bf290613a12565b6000838152602081815260408083206001600160a01b038e8116855292528083208585039055908b168252812080548492906121d29084906138c3565b92505081905550505050806121e690613854565b905061210a565b50846001600160a01b0316866001600160a01b0316826001600160a01b03167f4a39dc06d4c0dbc64b70af90fd698a233a518aa5d07e595d983b8c0526c8f7fb878760405161223d929190613a5c565b60405180910390a4612253818787878787612872565b505050505050565b6122636129dd565b6003805460ff60a01b191690557f5db9ee0a495bf2e6ff9c91a7834c1ba4fdd244a5e8aa4e537bd38aeae4b073aa335b6040516001600160a01b03909116815260200160405180910390a1565b6001600160a01b0383163314806122cc57506122cc8333610a63565b6122e85760405162461bcd60e51b8152600401610bf290613805565b611309838383612a2d565b600380546001600160a01b038381166001600160a01b0319831681179093556040519116919082907f8be0079c531659141344cd1fd0a4f28419497f9722a3daafe3b4186f6b6457e090600090a35050565b61234d612bc9565b6003805460ff60a01b1916600160a01b1790557f62e78cea01bee320cd4e420270b5ea74000d11b0c9f74754ebdbfc544b05a2586122933390565b6001600160a01b0384166123e85760405162461bcd60e51b815260206004820152602160248201527f455243313135353a206d696e7420746f20746865207a65726f206164647265736044820152607360f81b6064820152608401610bf2565b3360006123f485612c16565b9050600061240185612c16565b90506124128360008985858961285c565b6000868152602081815260408083206001600160a01b038b168452909152812080548792906124429084906138c3565b909155505060408051878152602081018790526001600160a01b03808a1692600092918716917fc3d58168c5ae7397731d063d5bbf3d657854427343f4c083240f7aacaa2d0f62910160405180910390a46124a283600089898989612c61565b50505050505050565b816001600160a01b0316836001600160a01b0316141561251f5760405162461bcd60e51b815260206004820152602960248201527f455243313135353a2073657474696e6720617070726f76616c20737461747573604482015268103337b91039b2b63360b91b6064820152608401610bf2565b6001600160a01b03838116600081815260016020908152604080832094871680845294825291829020805460ff191686151590811790915591519182527f17307eab39ab6107e8899845ad3d59bd9653f200f220920489ca2b5937696c31910160405180910390a3505050565b6001600160a01b0383166125b25760405162461bcd60e51b8152600401610bf290613a8a565b3360006125be84612c16565b905060006125cb84612c16565b90506125eb8387600085856040518060200160405280600081525061285c565b6000858152602081815260408083206001600160a01b038a1684529091529020548481101561262c5760405162461bcd60e51b8152600401610bf290613acd565b6000868152602081815260408083206001600160a01b038b81168086529184528285208a8703905582518b81529384018a90529092908816917fc3d58168c5ae7397731d063d5bbf3d657854427343f4c083240f7aacaa2d0f62910160405180910390a46040805160208101909152600090526124a2565b6001600160a01b0384166126ca5760405162461bcd60e51b8152600401610bf2906139cd565b3360006126d685612c16565b905060006126e385612c16565b90506126f383898985858961285c565b6000868152602081815260408083206001600160a01b038c168452909152902054858110156127345760405162461bcd60e51b8152600401610bf290613a12565b6000878152602081815260408083206001600160a01b038d8116855292528083208985039055908a168252812080548892906127719084906138c3565b909155505060408051888152602081018890526001600160a01b03808b16928c821692918816917fc3d58168c5ae7397731d063d5bbf3d657854427343f4c083240f7aacaa2d0f62910160405180910390a46127d1848a8a8a8a8a612c61565b505050505050505050565b6001600160a01b0383163314806127f857506127f88333610a63565b6128145760405162461bcd60e51b8152600401610bf290613805565b61130983838361258c565b7f3fa96d7b6bcbfe71ef171666d84db3cf52fa2d1c8afdb1cc8e486177f208b7df8282604051612850929190613b11565b60405180910390a15050565b612864612bc9565b612253868686868686612d2b565b6001600160a01b0384163b156122535760405163bc197c8160e01b81526001600160a01b0385169063bc197c81906128b69089908990889088908890600401613b2a565b602060405180830381600087803b1580156128d057600080fd5b505af1925050508015612900575060408051601f3d908101601f191682019092526128fd91810190613b88565b60015b6129ad5761290c613ba5565b806308c379a014156129465750612921613bc1565b8061292c5750612948565b8060405162461bcd60e51b8152600401610bf29190613123565b505b60405162461bcd60e51b815260206004820152603460248201527f455243313135353a207472616e7366657220746f206e6f6e20455243313135356044820152732932b1b2b4bb32b91034b6b83632b6b2b73a32b960611b6064820152608401610bf2565b6001600160e01b0319811663bc197c8160e01b146124a25760405162461bcd60e51b8152600401610bf290613c4a565b600354600160a01b900460ff166111a25760405162461bcd60e51b815260206004820152601460248201527314185d5cd8589b194e881b9bdd081c185d5cd95960621b6044820152606401610bf2565b6001600160a01b038316612a535760405162461bcd60e51b8152600401610bf290613a8a565b8051825114612a745760405162461bcd60e51b8152600401610bf290613985565b6000339050612a978185600086866040518060200160405280600081525061285c565b60005b8351811015612b5c576000848281518110612ab757612ab7613790565b602002602001015190506000848381518110612ad557612ad5613790565b602090810291909101810151600084815280835260408082206001600160a01b038c168352909352919091205490915081811015612b255760405162461bcd60e51b8152600401610bf290613acd565b6000928352602083815260408085206001600160a01b038b1686529091529092209103905580612b5481613854565b915050612a9a565b5060006001600160a01b0316846001600160a01b0316826001600160a01b03167f4a39dc06d4c0dbc64b70af90fd698a233a518aa5d07e595d983b8c0526c8f7fb8686604051612bad929190613a5c565b60405180910390a4604080516020810190915260009052610f04565b600354600160a01b900460ff16156111a25760405162461bcd60e51b815260206004820152601060248201526f14185d5cd8589b194e881c185d5cd95960821b6044820152606401610bf2565b60408051600180825281830190925260609160009190602080830190803683370190505090508281600081518110612c5057612c50613790565b602090810291909101015292915050565b6001600160a01b0384163b156122535760405163f23a6e6160e01b81526001600160a01b0385169063f23a6e6190612ca59089908990889088908890600401613c92565b602060405180830381600087803b158015612cbf57600080fd5b505af1925050508015612cef575060408051601f3d908101601f19168201909252612cec91810190613b88565b60015b612cfb5761290c613ba5565b6001600160e01b0319811663f23a6e6160e01b146124a25760405162461bcd60e51b8152600401610bf290613c4a565b6001600160a01b038516612db25760005b8351811015612db057828181518110612d5757612d57613790565b602002602001015160046000868481518110612d7557612d75613790565b602002602001015181526020019081526020016000206000828254612d9a91906138c3565b90915550612da9905081613854565b9050612d3c565b505b6001600160a01b0384166122535760005b83518110156124a2576000848281518110612de057612de0613790565b602002602001015190506000848381518110612dfe57612dfe613790565b6020026020010151905060006004600084815260200190815260200160002054905081811015612e815760405162461bcd60e51b815260206004820152602860248201527f455243313135353a206275726e20616d6f756e74206578636565647320746f74604482015267616c537570706c7960c01b6064820152608401610bf2565b60009283526004602052604090922091039055612e9d81613854565b9050612dc3565b828054612eb0906136c2565b90600052602060002090601f016020900481019282612ed25760008555612f18565b82601f10612eeb57805160ff1916838001178555612f18565b82800160010185558215612f18579182015b82811115612f18578251825591602001919060010190612efd565b50612f24929150612f28565b5090565b5b80821115612f245760008155600101612f29565b6001600160a01b0381168114610cae57600080fd5b60008060408385031215612f6557600080fd5b8235612f7081612f3d565b946020939093013593505050565b6001600160e01b031981168114610cae57600080fd5b600060208284031215612fa657600080fd5b8135612fb181612f7e565b9392505050565b634e487b7160e01b600052604160045260246000fd5b601f8201601f191681016001600160401b0381118282101715612ff357612ff3612fb8565b6040525050565b600082601f83011261300b57600080fd5b81356001600160401b0381111561302457613024612fb8565b60405161303b601f8301601f191660200182612fce565b81815284602083860101111561305057600080fd5b816020850160208301376000918101602001919091529392505050565b60006020828403121561307f57600080fd5b81356001600160401b0381111561309557600080fd5b6130a184828501612ffa565b949350505050565b600080604083850312156130bc57600080fd5b50508035926020909101359150565b60005b838110156130e65781810151838201526020016130ce565b83811115610f045750506000910152565b6000815180845261310f8160208601602086016130cb565b601f01601f19169290920160200192915050565b602081526000612fb160208301846130f7565b60006020828403121561314857600080fd5b5035919050565b60008060006060848603121561316457600080fd5b83359250602084013561317681612f3d565b915060408401356001600160601b038116811461319257600080fd5b809150509250925092565b60006001600160401b038211156131b6576131b6612fb8565b5060051b60200190565b600082601f8301126131d157600080fd5b813560206131de8261319d565b6040516131eb8282612fce565b83815260059390931b850182019282810191508684111561320b57600080fd5b8286015b84811015613226578035835291830191830161320f565b509695505050505050565b600080600080600060a0868803121561324957600080fd5b853561325481612f3d565b9450602086013561326481612f3d565b935060408601356001600160401b038082111561328057600080fd5b61328c89838a016131c0565b945060608801359150808211156132a257600080fd5b6132ae89838a016131c0565b935060808801359150808211156132c457600080fd5b506132d188828901612ffa565b9150509295509295909350565b6000602082840312156132f057600080fd5b8135612fb181612f3d565b8035801515811461330b57600080fd5b919050565b6000806040838503121561332357600080fd5b82359150613333602084016132fb565b90509250929050565b6000806040838503121561334f57600080fd5b82356001600160401b038082111561336657600080fd5b818501915085601f83011261337a57600080fd5b813560206133878261319d565b6040516133948282612fce565b83815260059390931b85018201928281019150898411156133b457600080fd5b948201945b838610156133db5785356133cc81612f3d565b825294820194908201906133b9565b965050860135925050808211156133f157600080fd5b506133fe858286016131c0565b9150509250929050565b600081518084526020808501945080840160005b838110156134385781518752958201959082019060010161341c565b509495945050505050565b602081526000612fb16020830184613408565b6000806040838503121561346957600080fd5b82356001600160401b038082111561348057600080fd5b61348c86838701612ffa565b935060208501359150808211156134a257600080fd5b506133fe85828601612ffa565b6000806000606084860312156134c457600080fd5b83356134cf81612f3d565b925060208401356001600160401b03808211156134eb57600080fd5b6134f7878388016131c0565b9350604086013591508082111561350d57600080fd5b5061351a868287016131c0565b9150509250925092565b6000806040838503121561353757600080fd5b8235915060208301356001600160401b0381111561355457600080fd5b6133fe85828601612ffa565b6000806040838503121561357357600080fd5b823561357e81612f3d565b9150613333602084016132fb565b600081518084526020808501945080840160005b8381101561343857815180516001600160a01b031688528301516001600160601b031683880152604090960195908201906001016135a0565b602081526000612fb1602083018461358c565b600080604083850312156135ff57600080fd5b823561360a81612f3d565b9150602083013561361a81612f3d565b809150509250929050565b60008060006060848603121561363a57600080fd5b833561364581612f3d565b95602085013595506040909401359392505050565b600080600080600060a0868803121561367257600080fd5b853561367d81612f3d565b9450602086013561368d81612f3d565b9350604086013592506060860135915060808601356001600160401b038111156136b657600080fd5b6132d188828901612ffa565b600181811c908216806136d657607f821691505b602082108114156136f757634e487b7160e01b600052602260045260246000fd5b50919050565b600080845461370b816136c2565b60018281168015613723576001811461373457613763565b60ff19841687528287019450613763565b8860005260208060002060005b8581101561375a5781548a820152908401908201613741565b50505082870194505b5050505083516137778183602088016130cb565b64173539b7b760d91b9101908152600501949350505050565b634e487b7160e01b600052603260045260246000fd5b634e487b7160e01b600052601160045260246000fd5b60008160001904831182151516156137d6576137d66137a6565b500290565b634e487b7160e01b600052601260045260246000fd5b600082613800576138006137db565b500490565b6020808252602f908201527f455243313135353a2063616c6c6572206973206e6f7420746f6b656e206f776e60408201526e195c881b9bdc88185c1c1c9bdd9959608a1b606082015260800190565b6000600019821415613868576138686137a6565b5060010190565b6020808252600f908201526e36b2ba30b230ba3090333937bd32b760891b604082015260600190565b6000828210156138aa576138aa6137a6565b500390565b6000826138be576138be6137db565b500690565b600082198211156138d6576138d66137a6565b500190565b60006020808352600084546138ef816136c2565b80848701526040600180841660008114613910576001811461392457613952565b60ff19851689840152606089019550613952565b896000528660002060005b8581101561394a5781548b820186015290830190880161392f565b8a0184019650505b509398975050505050505050565b600060ff821660ff84168060ff0382111561397d5761397d6137a6565b019392505050565b60208082526028908201527f455243313135353a2069647320616e6420616d6f756e7473206c656e677468206040820152670dad2e6dac2e8c6d60c31b606082015260800190565b60208082526025908201527f455243313135353a207472616e7366657220746f20746865207a65726f206164604082015264647265737360d81b606082015260800190565b6020808252602a908201527f455243313135353a20696e73756666696369656e742062616c616e636520666f60408201526939103a3930b739b332b960b11b606082015260800190565b604081526000613a6f6040830185613408565b8281036020840152613a818185613408565b95945050505050565b60208082526023908201527f455243313135353a206275726e2066726f6d20746865207a65726f206164647260408201526265737360e81b606082015260800190565b60208082526024908201527f455243313135353a206275726e20616d6f756e7420657863656564732062616c604082015263616e636560e01b606082015260800190565b8281526040602082015260006130a1604083018461358c565b6001600160a01b0386811682528516602082015260a060408201819052600090613b5690830186613408565b8281036060840152613b688186613408565b90508281036080840152613b7c81856130f7565b98975050505050505050565b600060208284031215613b9a57600080fd5b8151612fb181612f7e565b600060033d1115613bbe5760046000803e5060005160e01c5b90565b600060443d1015613bcf5790565b6040516003193d81016004833e81513d6001600160401b038160248401118184111715613bfe57505050505090565b8285019150815181811115613c165750505050505090565b843d8701016020828501011115613c305750505050505090565b613c3f60208286010187612fce565b509095945050505050565b60208082526028908201527f455243313135353a204552433131353552656365697665722072656a656374656040820152676420746f6b656e7360c01b606082015260800190565b6001600160a01b03868116825285166020820152604081018490526060810183905260a060808201819052600090613ccc908301846130f7565b97965050505050505056fea26469706673582212200b5bbc38c01c10f27a8b504a6481e1b11564fdb223c70112b01367d806a1e63c64736f6c63430008090033",
  "devdoc": {
    "kind": "dev",
    "methods": {
      "balanceOf(address,uint256)": {
        "details": "See {IERC1155-balanceOf}. Requirements: - `account` cannot be the zero address."
      },
      "balanceOfBatch(address[],uint256[])": {
        "details": "See {IERC1155-balanceOfBatch}. Requirements: - `accounts` and `ids` must have the same length."
      },
      "exists(uint256)": {
        "details": "Indicates whether any token exist with a given id, or not."
      },
      "isApprovedForAll(address,address)": {
        "details": "See {IERC1155-isApprovedForAll}."
      },
      "owner()": {
        "details": "Returns the address of the current owner."
      },
      "paused()": {
        "details": "Returns true if the contract is paused, and false otherwise."
      },
      "renounceOwnership()": {
        "details": "Leaves the contract without owner. It will not be possible to call `onlyOwner` functions anymore. Can only be called by the current owner. NOTE: Renouncing ownership will leave the contract without an owner, thereby removing any functionality that is only available to the owner."
      },
      "safeBatchTransferFrom(address,address,uint256[],uint256[],bytes)": {
        "details": "See {IERC1155-safeBatchTransferFrom}."
      },
      "safeTransferFrom(address,address,uint256,uint256,bytes)": {
        "details": "See {IERC1155-safeTransferFrom}."
      },
      "setApprovalForAll(address,bool)": {
        "details": "See {IERC1155-setApprovalForAll}."
      },
      "supportsInterface(bytes4)": {
        "details": "See {IERC165-supportsInterface}."
      },
      "totalSupply(uint256)": {
        "details": "Total amount of tokens in with a given id."
      },
      "transferOwnership(address)": {
        "details": "Transfers ownership of the contract to a new account (`newOwner`). Can only be called by the current owner."
      }
    },
    "version": 1
  },
  "userdoc": {
    "kind": "user",
    "methods": {},
    "notice": "Developed by: John Whitton (github: johnwhittton), Aaron Li (github: polymorpher)",
    "version": 1
  },
  "storageLayout": {
    "storage": [
      {
        "astId": 8630,
        "contract": "contracts/nft/Mini1155.sol:Mini1155",
        "label": "_balances",
        "offset": 0,
        "slot": "0",
        "type": "t_mapping(t_uint256,t_mapping(t_address,t_uint256))"
      },
      {
        "astId": 8636,
        "contract": "contracts/nft/Mini1155.sol:Mini1155",
        "label": "_operatorApprovals",
        "offset": 0,
        "slot": "1",
        "type": "t_mapping(t_address,t_mapping(t_address,t_bool))"
      },
      {
        "astId": 8638,
        "contract": "contracts/nft/Mini1155.sol:Mini1155",
        "label": "_uri",
        "offset": 0,
        "slot": "2",
        "type": "t_string_storage"
      },
      {
        "astId": 8391,
        "contract": "contracts/nft/Mini1155.sol:Mini1155",
        "label": "_owner",
        "offset": 0,
        "slot": "3",
        "type": "t_address"
      },
      {
        "astId": 8514,
        "contract": "contracts/nft/Mini1155.sol:Mini1155",
        "label": "_paused",
        "offset": 20,
        "slot": "3",
        "type": "t_bool"
      },
      {
        "astId": 10069,
        "contract": "contracts/nft/Mini1155.sol:Mini1155",
        "label": "_totalSupply",
        "offset": 0,
        "slot": "4",
        "type": "t_mapping(t_uint256,t_uint256)"
      },
      {
        "astId": 18236,
        "contract": "contracts/nft/Mini1155.sol:Mini1155",
        "label": "royalties",
        "offset": 0,
        "slot": "5",
        "type": "t_mapping(t_uint256,t_array(t_struct(Part)18179_storage)dyn_storage)"
      },
      {
        "astId": 15668,
        "contract": "contracts/nft/Mini1155.sol:Mini1155",
        "label": "contractURI",
        "offset": 0,
        "slot": "6",
        "type": "t_string_storage"
      },
      {
        "astId": 15670,
        "contract": "contracts/nft/Mini1155.sol:Mini1155",
        "label": "baseUri",
        "offset": 0,
        "slot": "7",
        "type": "t_string_storage"
      },
      {
        "astId": 15672,
        "contract": "contracts/nft/Mini1155.sol:Mini1155",
        "label": "salt",
        "offset": 0,
        "slot": "8",
        "type": "t_bytes32"
      },
      {
        "astId": 15674,
        "contract": "contracts/nft/Mini1155.sol:Mini1155",
        "label": "mintPrice",
        "offset": 0,
        "slot": "9",
        "type": "t_uint256"
      },
      {
        "astId": 15676,
        "contract": "contracts/nft/Mini1155.sol:Mini1155",
        "label": "maxPerMint",
        "offset": 0,
        "slot": "10",
        "type": "t_uint256"
      },
      {
        "astId": 15678,
        "contract": "contracts/nft/Mini1155.sol:Mini1155",
        "label": "standardTokenId",
        "offset": 0,
        "slot": "11",
        "type": "t_uint256"
      },
      {
        "astId": 15680,
        "contract": "contracts/nft/Mini1155.sol:Mini1155",
        "label": "rareTokenId",
        "offset": 0,
        "slot": "12",
        "type": "t_uint256"
      },
      {
        "astId": 15682,
        "contract": "contracts/nft/Mini1155.sol:Mini1155",
        "label": "exchangeRatio",
        "offset": 0,
        "slot": "13",
        "type": "t_uint256"
      },
      {
        "astId": 15684,
        "contract": "contracts/nft/Mini1155.sol:Mini1155",
        "label": "rareProbabilityPercentage",
        "offset": 0,
        "slot": "14",
        "type": "t_uint256"
      },
      {
        "astId": 15686,
        "contract": "contracts/nft/Mini1155.sol:Mini1155",
        "label": "revenueAccount",
        "offset": 0,
        "slot": "15",
        "type": "t_address"
      },
      {
        "astId": 15688,
        "contract": "contracts/nft/Mini1155.sol:Mini1155",
        "label": "name",
        "offset": 0,
        "slot": "16",
        "type": "t_string_storage"
      },
      {
        "astId": 15690,
        "contract": "contracts/nft/Mini1155.sol:Mini1155",
        "label": "symbol",
        "offset": 0,
        "slot": "17",
        "type": "t_string_storage"
      },
      {
        "astId": 15692,
        "contract": "contracts/nft/Mini1155.sol:Mini1155",
        "label": "saleIsActive",
        "offset": 0,
        "slot": "18",
        "type": "t_bool"
      },
      {
        "astId": 15694,
        "contract": "contracts/nft/Mini1155.sol:Mini1155",
        "label": "saleStarted",
        "offset": 1,
        "slot": "18",
        "type": "t_bool"
      },
      {
        "astId": 15696,
        "contract": "contracts/nft/Mini1155.sol:Mini1155",
        "label": "metadataFrozen",
        "offset": 2,
        "slot": "18",
        "type": "t_bool"
      },
      {
        "astId": 15700,
        "contract": "contracts/nft/Mini1155.sol:Mini1155",
        "label": "maxSupply",
        "offset": 0,
        "slot": "19",
        "type": "t_mapping(t_uint256,t_uint256)"
      },
      {
        "astId": 15704,
        "contract": "contracts/nft/Mini1155.sol:Mini1155",
        "label": "maxPersonalCap",
        "offset": 0,
        "slot": "20",
        "type": "t_mapping(t_uint256,t_uint256)"
      },
      {
        "astId": 15708,
        "contract": "contracts/nft/Mini1155.sol:Mini1155",
        "label": "metadataUris",
        "offset": 0,
        "slot": "21",
        "type": "t_mapping(t_uint256,t_string_storage)"
      }
    ],
    "types": {
      "t_address": {
        "encoding": "inplace",
        "label": "address",
        "numberOfBytes": "20"
      },
      "t_address_payable": {
        "encoding": "inplace",
        "label": "address payable",
        "numberOfBytes": "20"
      },
      "t_array(t_struct(Part)18179_storage)dyn_storage": {
        "base": "t_struct(Part)18179_storage",
        "encoding": "dynamic_array",
        "label": "struct LibPart.Part[]",
        "numberOfBytes": "32"
      },
      "t_bool": {
        "encoding": "inplace",
        "label": "bool",
        "numberOfBytes": "1"
      },
      "t_bytes32": {
        "encoding": "inplace",
        "label": "bytes32",
        "numberOfBytes": "32"
      },
      "t_mapping(t_address,t_bool)": {
        "encoding": "mapping",
        "key": "t_address",
        "label": "mapping(address => bool)",
        "numberOfBytes": "32",
        "value": "t_bool"
      },
      "t_mapping(t_address,t_mapping(t_address,t_bool))": {
        "encoding": "mapping",
        "key": "t_address",
        "label": "mapping(address => mapping(address => bool))",
        "numberOfBytes": "32",
        "value": "t_mapping(t_address,t_bool)"
      },
      "t_mapping(t_address,t_uint256)": {
        "encoding": "mapping",
        "key": "t_address",
        "label": "mapping(address => uint256)",
        "numberOfBytes": "32",
        "value": "t_uint256"
      },
      "t_mapping(t_uint256,t_array(t_struct(Part)18179_storage)dyn_storage)": {
        "encoding": "mapping",
        "key": "t_uint256",
        "label": "mapping(uint256 => struct LibPart.Part[])",
        "numberOfBytes": "32",
        "value": "t_array(t_struct(Part)18179_storage)dyn_storage"
      },
      "t_mapping(t_uint256,t_mapping(t_address,t_uint256))": {
        "encoding": "mapping",
        "key": "t_uint256",
        "label": "mapping(uint256 => mapping(address => uint256))",
        "numberOfBytes": "32",
        "value": "t_mapping(t_address,t_uint256)"
      },
      "t_mapping(t_uint256,t_string_storage)": {
        "encoding": "mapping",
        "key": "t_uint256",
        "label": "mapping(uint256 => string)",
        "numberOfBytes": "32",
        "value": "t_string_storage"
      },
      "t_mapping(t_uint256,t_uint256)": {
        "encoding": "mapping",
        "key": "t_uint256",
        "label": "mapping(uint256 => uint256)",
        "numberOfBytes": "32",
        "value": "t_uint256"
      },
      "t_string_storage": {
        "encoding": "bytes",
        "label": "string",
        "numberOfBytes": "32"
      },
      "t_struct(Part)18179_storage": {
        "encoding": "inplace",
        "label": "struct LibPart.Part",
        "members": [
          {
            "astId": 18176,
            "contract": "contracts/nft/Mini1155.sol:Mini1155",
            "label": "account",
            "offset": 0,
            "slot": "0",
            "type": "t_address_payable"
          },
          {
            "astId": 18178,
            "contract": "contracts/nft/Mini1155.sol:Mini1155",
            "label": "value",
            "offset": 20,
            "slot": "0",
            "type": "t_uint96"
          }
        ],
        "numberOfBytes": "32"
      },
      "t_uint256": {
        "encoding": "inplace",
        "label": "uint256",
        "numberOfBytes": "32"
      },
      "t_uint96": {
        "encoding": "inplace",
        "label": "uint96",
        "numberOfBytes": "12"
      }
    }
  }
}