{
  "_format": "hh-sol-artifact-1",
  "contractName": "MiniWallet",
  "sourceName": "contracts/miniWallet/MiniWallet.sol",
  "abi": [
    {
      "inputs": [
        {
          "internalType": "address",
          "name": "from",
          "type": "address"
        },
        {
          "internalType": "address",
          "name": "to",
          "type": "address"
        },
        {
          "internalType": "uint256",
          "name": "amount",
          "type": "uint256"
        },
        {
          "internalType": "uint256",
          "name": "balance",
          "type": "uint256"
        },
        {
          "internalType": "uint256",
          "name": "allowance",
          "type": "uint256"
        },
        {
          "internalType": "string",
          "name": "reason",
          "type": "string"
        }
      ],
      "name": "SendFailed",
      "type": "error"
    },
    {
      "inputs": [
        {
          "internalType": "uint256",
          "name": "amount",
          "type": "uint256"
        },
        {
          "internalType": "enum Enums.TokenType",
          "name": "tokenType",
          "type": "uint8"
        },
        {
          "internalType": "uint256",
          "name": "tokenId",
          "type": "uint256"
        },
        {
          "internalType": "address",
          "name": "tokenAddress",
          "type": "address"
        },
        {
          "internalType": "address",
          "name": "from",
          "type": "address"
        },
        {
          "internalType": "address",
          "name": "to",
          "type": "address"
        },
        {
          "internalType": "string",
          "name": "reason",
          "type": "string"
        }
      ],
      "name": "TransferFailed",
      "type": "error"
    },
    {
      "inputs": [
        {
          "internalType": "address",
          "name": "user",
          "type": "address"
        },
        {
          "internalType": "uint256",
          "name": "amount",
          "type": "uint256"
        },
        {
          "internalType": "uint256",
          "name": "balance",
          "type": "uint256"
        },
        {
          "internalType": "string",
          "name": "reason",
          "type": "string"
        }
      ],
      "name": "WithdrawalFailed",
      "type": "error"
    },
    {
      "anonymous": false,
      "inputs": [
        {
          "indexed": false,
          "internalType": "address",
          "name": "previousAdmin",
          "type": "address"
        },
        {
          "indexed": false,
          "internalType": "address",
          "name": "newAdmin",
          "type": "address"
        }
      ],
      "name": "AdminChanged",
      "type": "event"
    },
    {
      "anonymous": false,
      "inputs": [
        {
          "indexed": true,
          "internalType": "address",
          "name": "owner",
          "type": "address"
        },
        {
          "indexed": true,
          "internalType": "address",
          "name": "spender",
          "type": "address"
        },
        {
          "indexed": false,
          "internalType": "uint256",
          "name": "allowance",
          "type": "uint256"
        }
      ],
      "name": "Approval",
      "type": "event"
    },
    {
      "anonymous": false,
      "inputs": [
        {
          "indexed": true,
          "internalType": "address",
          "name": "beacon",
          "type": "address"
        }
      ],
      "name": "BeaconUpgraded",
      "type": "event"
    },
    {
      "anonymous": false,
      "inputs": [
        {
          "indexed": true,
          "internalType": "address",
          "name": "user",
          "type": "address"
        },
        {
          "indexed": false,
          "internalType": "uint256",
          "name": "amount",
          "type": "uint256"
        },
        {
          "indexed": false,
          "internalType": "uint256",
          "name": "balance",
          "type": "uint256"
        }
      ],
      "name": "DepositSuccessful",
      "type": "event"
    },
    {
      "anonymous": false,
      "inputs": [
        {
          "indexed": false,
          "internalType": "uint256",
          "name": "newGlobalUserAuthLimit",
          "type": "uint256"
        }
      ],
      "name": "GlobalUserAuthLimitChanged",
      "type": "event"
    },
    {
      "anonymous": false,
      "inputs": [
        {
          "indexed": false,
          "internalType": "uint256",
          "name": "newGlobalUserLimit",
          "type": "uint256"
        }
      ],
      "name": "GlobalUserLimitChanged",
      "type": "event"
    },
    {
      "anonymous": false,
      "inputs": [
        {
          "indexed": false,
          "internalType": "uint8",
          "name": "version",
          "type": "uint8"
        }
      ],
      "name": "Initialized",
      "type": "event"
    },
    {
      "anonymous": false,
      "inputs": [
        {
          "indexed": false,
          "internalType": "uint256",
          "name": "newThreshold",
          "type": "uint256"
        }
      ],
      "name": "OperatorThresholdChanged",
      "type": "event"
    },
    {
      "anonymous": false,
      "inputs": [
        {
          "indexed": false,
          "internalType": "address[]",
          "name": "operators",
          "type": "address[]"
        }
      ],
      "name": "OperatorsAdded",
      "type": "event"
    },
    {
      "anonymous": false,
      "inputs": [
        {
          "indexed": false,
          "internalType": "address[]",
          "name": "operators",
          "type": "address[]"
        }
      ],
      "name": "OperatorsRemoved",
      "type": "event"
    },
    {
      "anonymous": false,
      "inputs": [
        {
          "indexed": false,
          "internalType": "address",
          "name": "account",
          "type": "address"
        }
      ],
      "name": "Paused",
      "type": "event"
    },
    {
      "anonymous": false,
      "inputs": [
        {
          "indexed": true,
          "internalType": "bytes32",
          "name": "role",
          "type": "bytes32"
        },
        {
          "indexed": true,
          "internalType": "bytes32",
          "name": "previousAdminRole",
          "type": "bytes32"
        },
        {
          "indexed": true,
          "internalType": "bytes32",
          "name": "newAdminRole",
          "type": "bytes32"
        }
      ],
      "name": "RoleAdminChanged",
      "type": "event"
    },
    {
      "anonymous": false,
      "inputs": [
        {
          "indexed": true,
          "internalType": "bytes32",
          "name": "role",
          "type": "bytes32"
        },
        {
          "indexed": true,
          "internalType": "address",
          "name": "account",
          "type": "address"
        },
        {
          "indexed": true,
          "internalType": "address",
          "name": "sender",
          "type": "address"
        }
      ],
      "name": "RoleGranted",
      "type": "event"
    },
    {
      "anonymous": false,
      "inputs": [
        {
          "indexed": true,
          "internalType": "bytes32",
          "name": "role",
          "type": "bytes32"
        },
        {
          "indexed": true,
          "internalType": "address",
          "name": "account",
          "type": "address"
        },
        {
          "indexed": true,
          "internalType": "address",
          "name": "sender",
          "type": "address"
        }
      ],
      "name": "RoleRevoked",
      "type": "event"
    },
    {
      "anonymous": false,
      "inputs": [
        {
          "indexed": true,
          "internalType": "address",
          "name": "from",
          "type": "address"
        },
        {
          "indexed": true,
          "internalType": "address",
          "name": "to",
          "type": "address"
        },
        {
          "indexed": false,
          "internalType": "uint256",
          "name": "amount",
          "type": "uint256"
        },
        {
          "indexed": false,
          "internalType": "uint256",
          "name": "newBalance",
          "type": "uint256"
        },
        {
          "indexed": false,
          "internalType": "uint256",
          "name": "newAllowance",
          "type": "uint256"
        }
      ],
      "name": "SendSuccessful",
      "type": "event"
    },
    {
      "anonymous": false,
      "inputs": [
        {
          "indexed": false,
          "internalType": "uint256",
          "name": "amount",
          "type": "uint256"
        },
        {
          "indexed": false,
          "internalType": "enum Enums.TokenType",
          "name": "tokenType",
          "type": "uint8"
        },
        {
          "indexed": false,
          "internalType": "uint256",
          "name": "tokenId",
          "type": "uint256"
        },
        {
          "indexed": false,
          "internalType": "address",
          "name": "tokenAddress",
          "type": "address"
        },
        {
          "indexed": true,
          "internalType": "address",
          "name": "from",
          "type": "address"
        },
        {
          "indexed": true,
          "internalType": "address",
          "name": "to",
          "type": "address"
        }
      ],
      "name": "TransferSuccessful",
      "type": "event"
    },
    {
      "anonymous": false,
      "inputs": [
        {
          "indexed": false,
          "internalType": "address",
          "name": "account",
          "type": "address"
        }
      ],
      "name": "Unpaused",
      "type": "event"
    },
    {
      "anonymous": false,
      "inputs": [
        {
          "indexed": true,
          "internalType": "address",
          "name": "implementation",
          "type": "address"
        }
      ],
      "name": "Upgraded",
      "type": "event"
    },
    {
      "anonymous": false,
      "inputs": [
        {
          "indexed": true,
          "internalType": "address",
          "name": "user",
          "type": "address"
        },
        {
          "indexed": false,
          "internalType": "uint256",
          "name": "amount",
          "type": "uint256"
        },
        {
          "indexed": false,
          "internalType": "uint256",
          "name": "balance",
          "type": "uint256"
        }
      ],
      "name": "WithdrawalSuccessful",
      "type": "event"
    },
    {
      "inputs": [],
      "name": "DEFAULT_ADMIN_ROLE",
      "outputs": [
        {
          "internalType": "bytes32",
          "name": "",
          "type": "bytes32"
        }
      ],
      "stateMutability": "view",
      "type": "function"
    },
    {
      "inputs": [],
      "name": "OPERATOR_ROLE",
      "outputs": [
        {
          "internalType": "bytes32",
          "name": "",
          "type": "bytes32"
        }
      ],
      "stateMutability": "view",
      "type": "function"
    },
    {
      "inputs": [],
      "name": "UPGRADER_ROLE",
      "outputs": [
        {
          "internalType": "bytes32",
          "name": "",
          "type": "bytes32"
        }
      ],
      "stateMutability": "view",
      "type": "function"
    },
    {
      "inputs": [
        {
          "internalType": "address[]",
          "name": "operatorAddresses",
          "type": "address[]"
        }
      ],
      "name": "adminAddOperators",
      "outputs": [],
      "stateMutability": "nonpayable",
      "type": "function"
    },
    {
      "inputs": [
        {
          "internalType": "uint256",
          "name": "newGlobalUserAuthLimit",
          "type": "uint256"
        }
      ],
      "name": "adminChangeGlobalUserAuthLimit",
      "outputs": [],
      "stateMutability": "nonpayable",
      "type": "function"
    },
    {
      "inputs": [
        {
          "internalType": "uint256",
          "name": "newGlobalUserLimit",
          "type": "uint256"
        }
      ],
      "name": "adminChangeGlobalUserLimit",
      "outputs": [],
      "stateMutability": "nonpayable",
      "type": "function"
    },
    {
      "inputs": [
        {
          "internalType": "uint256",
          "name": "newThreshold",
          "type": "uint256"
        }
      ],
      "name": "adminChangeOperatorThreshold",
      "outputs": [],
      "stateMutability": "nonpayable",
      "type": "function"
    },
    {
      "inputs": [],
      "name": "adminPauseMiniWallet",
      "outputs": [],
      "stateMutability": "nonpayable",
      "type": "function"
    },
    {
      "inputs": [
        {
          "internalType": "address[]",
          "name": "operatorAddresses",
          "type": "address[]"
        }
      ],
      "name": "adminRemoveOperators",
      "outputs": [],
      "stateMutability": "nonpayable",
      "type": "function"
    },
    {
      "inputs": [],
      "name": "adminUnpauseMiniWallet",
      "outputs": [],
      "stateMutability": "nonpayable",
      "type": "function"
    },
    {
      "inputs": [
        {
          "internalType": "address",
          "name": "owner",
          "type": "address"
        },
        {
          "internalType": "address",
          "name": "spender",
          "type": "address"
        }
      ],
      "name": "allowance",
      "outputs": [
        {
          "internalType": "uint256",
          "name": "",
          "type": "uint256"
        }
      ],
      "stateMutability": "view",
      "type": "function"
    },
    {
      "inputs": [
        {
          "internalType": "address",
          "name": "spender",
          "type": "address"
        },
        {
          "internalType": "uint256",
          "name": "amount",
          "type": "uint256"
        }
      ],
      "name": "approve",
      "outputs": [
        {
          "internalType": "bool",
          "name": "",
          "type": "bool"
        }
      ],
      "stateMutability": "payable",
      "type": "function"
    },
    {
      "inputs": [],
      "name": "deposit",
      "outputs": [],
      "stateMutability": "payable",
      "type": "function"
    },
    {
      "inputs": [
        {
          "internalType": "bytes32",
          "name": "role",
          "type": "bytes32"
        }
      ],
      "name": "getRoleAdmin",
      "outputs": [
        {
          "internalType": "bytes32",
          "name": "",
          "type": "bytes32"
        }
      ],
      "stateMutability": "view",
      "type": "function"
    },
    {
      "inputs": [
        {
          "internalType": "bytes32",
          "name": "role",
          "type": "bytes32"
        },
        {
          "internalType": "uint256",
          "name": "index",
          "type": "uint256"
        }
      ],
      "name": "getRoleMember",
      "outputs": [
        {
          "internalType": "address",
          "name": "",
          "type": "address"
        }
      ],
      "stateMutability": "view",
      "type": "function"
    },
    {
      "inputs": [
        {
          "internalType": "bytes32",
          "name": "role",
          "type": "bytes32"
        }
      ],
      "name": "getRoleMemberCount",
      "outputs": [
        {
          "internalType": "uint256",
          "name": "",
          "type": "uint256"
        }
      ],
      "stateMutability": "view",
      "type": "function"
    },
    {
      "inputs": [],
      "name": "globalUserAuthLimit",
      "outputs": [
        {
          "internalType": "uint256",
          "name": "",
          "type": "uint256"
        }
      ],
      "stateMutability": "view",
      "type": "function"
    },
    {
      "inputs": [],
      "name": "globalUserLimit",
      "outputs": [
        {
          "internalType": "uint256",
          "name": "",
          "type": "uint256"
        }
      ],
      "stateMutability": "view",
      "type": "function"
    },
    {
      "inputs": [
        {
          "internalType": "bytes32",
          "name": "role",
          "type": "bytes32"
        },
        {
          "internalType": "address",
          "name": "account",
          "type": "address"
        }
      ],
      "name": "grantRole",
      "outputs": [],
      "stateMutability": "nonpayable",
      "type": "function"
    },
    {
      "inputs": [
        {
          "internalType": "bytes32",
          "name": "role",
          "type": "bytes32"
        },
        {
          "internalType": "address",
          "name": "account",
          "type": "address"
        }
      ],
      "name": "hasRole",
      "outputs": [
        {
          "internalType": "bool",
          "name": "",
          "type": "bool"
        }
      ],
      "stateMutability": "view",
      "type": "function"
    },
    {
      "inputs": [
        {
          "internalType": "uint8",
          "name": "initialOperatorThreshold",
          "type": "uint8"
        },
        {
          "internalType": "address[]",
          "name": "initialOperators",
          "type": "address[]"
        },
        {
          "internalType": "uint256",
          "name": "globalUserLimit_",
          "type": "uint256"
        },
        {
          "internalType": "uint256",
          "name": "globalUserAuthLimit_",
          "type": "uint256"
        }
      ],
      "name": "initialize",
      "outputs": [],
      "stateMutability": "nonpayable",
      "type": "function"
    },
    {
      "inputs": [],
      "name": "operatorThreshold",
      "outputs": [
        {
          "internalType": "uint8",
          "name": "",
          "type": "uint8"
        }
      ],
      "stateMutability": "view",
      "type": "function"
    },
    {
      "inputs": [],
      "name": "paused",
      "outputs": [
        {
          "internalType": "bool",
          "name": "",
          "type": "bool"
        }
      ],
      "stateMutability": "view",
      "type": "function"
    },
    {
      "inputs": [],
      "name": "proxiableUUID",
      "outputs": [
        {
          "internalType": "bytes32",
          "name": "",
          "type": "bytes32"
        }
      ],
      "stateMutability": "view",
      "type": "function"
    },
    {
      "inputs": [
        {
          "internalType": "address",
          "name": "newAdmin",
          "type": "address"
        }
      ],
      "name": "renounceAdmin",
      "outputs": [],
      "stateMutability": "nonpayable",
      "type": "function"
    },
    {
      "inputs": [
        {
          "internalType": "bytes32",
          "name": "role",
          "type": "bytes32"
        },
        {
          "internalType": "address",
          "name": "account",
          "type": "address"
        }
      ],
      "name": "renounceRole",
      "outputs": [],
      "stateMutability": "nonpayable",
      "type": "function"
    },
    {
      "inputs": [
        {
          "internalType": "bytes32",
          "name": "role",
          "type": "bytes32"
        },
        {
          "internalType": "address",
          "name": "account",
          "type": "address"
        }
      ],
      "name": "revokeRole",
      "outputs": [],
      "stateMutability": "nonpayable",
      "type": "function"
    },
    {
      "inputs": [
        {
          "internalType": "uint256",
          "name": "amount",
          "type": "uint256"
        },
        {
          "internalType": "address",
          "name": "from",
          "type": "address"
        },
        {
          "internalType": "address",
          "name": "to",
          "type": "address"
        }
      ],
      "name": "send",
      "outputs": [],
      "stateMutability": "nonpayable",
      "type": "function"
    },
    {
      "inputs": [
        {
          "internalType": "bytes4",
          "name": "interfaceId",
          "type": "bytes4"
        }
      ],
      "name": "supportsInterface",
      "outputs": [
        {
          "internalType": "bool",
          "name": "",
          "type": "bool"
        }
      ],
      "stateMutability": "view",
      "type": "function"
    },
    {
      "inputs": [
        {
          "internalType": "uint256",
          "name": "amount",
          "type": "uint256"
        },
        {
          "internalType": "enum Enums.TokenType",
          "name": "tokenType",
          "type": "uint8"
        },
        {
          "internalType": "uint256",
          "name": "tokenId",
          "type": "uint256"
        },
        {
          "internalType": "address",
          "name": "tokenAddress",
          "type": "address"
        },
        {
          "internalType": "address",
          "name": "from",
          "type": "address"
        },
        {
          "internalType": "address",
          "name": "to",
          "type": "address"
        }
      ],
      "name": "transfer",
      "outputs": [],
      "stateMutability": "nonpayable",
      "type": "function"
    },
    {
      "inputs": [
        {
          "internalType": "address",
          "name": "newImplementation",
          "type": "address"
        }
      ],
      "name": "upgradeTo",
      "outputs": [],
      "stateMutability": "nonpayable",
      "type": "function"
    },
    {
      "inputs": [
        {
          "internalType": "address",
          "name": "newImplementation",
          "type": "address"
        },
        {
          "internalType": "bytes",
          "name": "data",
          "type": "bytes"
        }
      ],
      "name": "upgradeToAndCall",
      "outputs": [],
      "stateMutability": "payable",
      "type": "function"
    },
    {
      "inputs": [
        {
          "internalType": "address",
          "name": "",
          "type": "address"
        }
      ],
      "name": "userBalances",
      "outputs": [
        {
          "internalType": "uint256",
          "name": "",
          "type": "uint256"
        }
      ],
      "stateMutability": "view",
      "type": "function"
    },
    {
      "inputs": [
        {
          "internalType": "uint256",
          "name": "amount",
          "type": "uint256"
        }
      ],
      "name": "withdraw",
      "outputs": [],
      "stateMutability": "nonpayable",
      "type": "function"
    }
  ],
  "bytecode": "0x60a06040523060805234801561001457600080fd5b50608051612da161004c60003960008181610d7f01528181610dbf015281816111460152818161118601526112150152612da16000f3fe6080604052600436106101f95760003560e01c80635e1fab0f1161010d578063bcca7b1d116100a0578063dd62ed3e1161006f578063dd62ed3e1461058a578063e24814d6146105d1578063e2b0df8f146105fe578063f5b541a614610615578063f72c0d8b1461063757600080fd5b8063bcca7b1d14610522578063ca15c87314610542578063d0e30db014610562578063d547741f1461056a57600080fd5b806391d14854116100dc57806391d14854146104ad578063a19ba036146104cd578063a217fddf146104ed578063b4d89a071461050257600080fd5b80635e1fab0f1461042057806378226fe71461044057806379c0fb6e146104555780639010d07c1461047557600080fd5b80632e1a7d4d116101905780633d0594d41161015f5780633d0594d4146103a95780634f1ef286146103c957806352d1902d146103dc578063562c2d1d146103f15780635c975abb1461040857600080fd5b80632e1a7d4d146103295780632f2ff15d1461034957806336568abe146103695780633659cfe61461038957600080fd5b80631322a2a5116101cc5780631322a2a51461027d578063248a9ca31461029d57806326224c64146102db5780632752a46e1461030957600080fd5b806301ffc9a7146101fe5780630227c93614610233578063095ea7b31461024a5780630c8a263c1461025d575b600080fd5b34801561020a57600080fd5b5061021e6102193660046124df565b61066b565b60405190151581526020015b60405180910390f35b34801561023f57600080fd5b50610248610696565b005b61021e610258366004612525565b6106d0565b34801561026957600080fd5b5061024861027836600461254f565b61087e565b34801561028957600080fd5b506102486102983660046125b4565b6108fa565b3480156102a957600080fd5b506102cd6102b836600461254f565b60009081526097602052604090206001015490565b60405190815260200161022a565b3480156102e757600080fd5b506102cd6102f63660046125f6565b6101616020526000908152604090205481565b34801561031557600080fd5b506102486103243660046125b4565b610a1c565b34801561033557600080fd5b5061024861034436600461254f565b610b9b565b34801561035557600080fd5b50610248610364366004612611565b610ccc565b34801561037557600080fd5b50610248610384366004612611565b610cf6565b34801561039557600080fd5b506102486103a43660046125f6565b610d74565b3480156103b557600080fd5b506102486103c436600461263d565b610e54565b6102486103d736600461268f565b61113b565b3480156103e857600080fd5b506102cd611208565b3480156103fd57600080fd5b506102cd61015f5481565b34801561041457600080fd5b5060335460ff1661021e565b34801561042c57600080fd5b5061024861043b3660046125f6565b6112bb565b34801561044c57600080fd5b50610248611348565b34801561046157600080fd5b5061024861047036600461254f565b611377565b34801561048157600080fd5b50610495610490366004612751565b6113d4565b6040516001600160a01b03909116815260200161022a565b3480156104b957600080fd5b5061021e6104c8366004612611565b6113f3565b3480156104d957600080fd5b506102486104e836600461254f565b61141e565b3480156104f957600080fd5b506102cd600081565b34801561050e57600080fd5b5061024861051d366004612773565b61147b565b34801561052e57600080fd5b5061024861053d3660046127e0565b611657565b34801561054e57600080fd5b506102cd61055d36600461254f565b611930565b610248611947565b34801561057657600080fd5b50610248610585366004612611565b611a43565b34801561059657600080fd5b506102cd6105a536600461284c565b6001600160a01b0391821660009081526101626020908152604080832093909416825291909152205490565b3480156105dd57600080fd5b50610163546105ec9060ff1681565b60405160ff909116815260200161022a565b34801561060a57600080fd5b506102cd6101605481565b34801561062157600080fd5b506102cd600080516020612d2583398151915281565b34801561064357600080fd5b506102cd7f189ab7a9244df0848122154315af71fe140f3db0fe014031783b0946b8c9d2e381565b60006001600160e01b03198216635a05180f60e01b1480610690575061069082611a68565b92915050565b6106a16000336113f3565b6106c65760405162461bcd60e51b81526004016106bd90612876565b60405180910390fd5b6106ce611a9d565b565b60006106da611af7565b338061073a5760405162461bcd60e51b815260206004820152602960248201527f4d696e6957616c6c65743a20617070726f76652066726f6d20746865207a65726044820152686f206164647265737360b81b60648201526084016106bd565b6001600160a01b0384166107a05760405162461bcd60e51b815260206004820152602760248201527f4d696e6957616c6c65743a20617070726f766520746f20746865207a65726f206044820152666164647265737360c81b60648201526084016106bd565b61015f548311156108095760405162461bcd60e51b815260206004820152602d60248201527f4d696e6957616c6c65743a20617070726f76652067726561746572207468616e60448201526c0819db1bd8985b081b1a5b5a5d609a1b60648201526084016106bd565b341561081757610817611947565b6001600160a01b038181166000818152610162602090815260408083209489168084529482529182902087905590518681527f8c5be1e5ebec7d5bd14f71427d1e84f3dd0314c0f7b2291e5b200ac8c7c3b925910160405180910390a35060019392505050565b6108896000336113f3565b6108a55760405162461bcd60e51b81526004016106bd90612876565b6108ae81611b3d565b610163805460ff191660ff929092169190911790556040518181527fdd30dc35fb86c568de39420f82e371835e8392fdbf6828c67e685a87f115a910906020015b60405180910390a150565b6109056000336113f3565b6109215760405162461bcd60e51b81526004016106bd90612876565b60005b818110156109de576000838383818110610940576109406128ad565b905060200201602081019061095591906125f6565b905061096f600080516020612d25833981519152826113f3565b6109b35760405162461bcd60e51b81526020600482015260156024820152743932b6b7bb34b733903737b716b7b832b930ba37b960591b60448201526064016106bd565b6109cb600080516020612d2583398151915282611a43565b50806109d6816128d9565b915050610924565b507fd045926746dab8a5acf225487f413b986460165cf50f6052689a2e471198e0598282604051610a109291906128f4565b60405180910390a15050565b610a276000336113f3565b610a435760405162461bcd60e51b81526004016106bd90612876565b60005b81811015610b69576000838383818110610a6257610a626128ad565b9050602002016020810190610a7791906125f6565b9050610a91600080516020612d25833981519152826113f3565b15610ade5760405162461bcd60e51b815260206004820152601960248201527f616c726561647920686173206f70657261746f7220726f6c650000000000000060448201526064016106bd565b6101635460ff16610afc600080516020612d25833981519152611930565b10610b3e5760405162461bcd60e51b8152602060048201526012602482015271746f6f206d616e79206f70657261746f727360701b60448201526064016106bd565b610b56600080516020612d2583398151915282610ccc565b5080610b61816128d9565b915050610a46565b507f4c022f03c292dfa42133bfa9f90bbf55089da679c2df97df205f337c12ab7b7c8282604051610a109291906128f4565b610ba3611af7565b336000908152610161602052604090205481610bbd578091505b80821115610c305760405163993995bb60e01b8152336004820152602481018390526044810182905260806064820152602560848201527f496e73756666696369656e74206c6f636b65642066756e647320746f2077697460a482015264686472617760d81b60c482015260e4016106bd565b6000610c3c8383612940565b336000818152610161602052604080822084905551929350909185156108fc0291869190818181858888f19350505050158015610c7d573d6000803e3d6000fd5b503360008181526101616020908152604091829020548251878152918201527ffb59733a8f0bd43414922fb86c6ffdd090e44935074086318980ca89221acc56910160405180910390a2505050565b600082815260976020526040902060010154610ce781611b94565b610cf18383611b9e565b505050565b6001600160a01b0381163314610d665760405162461bcd60e51b815260206004820152602f60248201527f416363657373436f6e74726f6c3a2063616e206f6e6c792072656e6f756e636560448201526e103937b632b9903337b91039b2b63360891b60648201526084016106bd565b610d708282611bc0565b5050565b306001600160a01b037f0000000000000000000000000000000000000000000000000000000000000000161415610dbd5760405162461bcd60e51b81526004016106bd90612957565b7f00000000000000000000000000000000000000000000000000000000000000006001600160a01b0316610e06600080516020612d05833981519152546001600160a01b031690565b6001600160a01b031614610e2c5760405162461bcd60e51b81526004016106bd906129a3565b610e3581611be2565b60408051600080825260208201909252610e5191839190611c0c565b50565b610e6c600080516020612d25833981519152336113f3565b610e885760405162461bcd60e51b81526004016106bd906129ef565b610e90611af7565b6001600160a01b0382811660009081526101616020908152604080832054610162835281842094861684529390915290205484610f3d57604051630e05486f60e41b81526001600160a01b0380861660048301528416602482015260448101869052606481018390526084810182905260c060a4820152601a60c48201527f53656e6420616d6f756e742063616e6e6f7420657175616c203000000000000060e4820152610104016106bd565b81851115610fc657604051630e05486f60e41b81526001600160a01b0380861660048301528416602482015260448101869052606481018390526084810182905260c060a4820152602160c48201527f496e73756666696369656e74206c6f636b65642066756e647320746f2073656e60e4820152601960fa1b610104820152610124016106bd565b8085111561105157604051630e05486f60e41b81526001600160a01b0380861660048301528416602482015260448101869052606481018390526084810182905260c060a4820152602360c48201527f496e73756666696369656e7420617070726f7665642066756e647320746f207360e482015262195b9960ea1b610104820152610124016106bd565b600061105d8684612940565b6001600160a01b0386166000908152610161602052604081208290559091506110868784612940565b6001600160a01b03808816600090815261016260209081526040808320938a168084529390915280822084905551929350909189156108fc02918a9190818181858888f193505050501580156110e0573d6000803e3d6000fd5b5060408051888152602081018490529081018290526001600160a01b0380871691908816907f097db31093a1dfbc4fca0de24d2ea0d787b2de44c5fce71552714981745334e29060600160405180910390a350505050505050565b306001600160a01b037f00000000000000000000000000000000000000000000000000000000000000001614156111845760405162461bcd60e51b81526004016106bd90612957565b7f00000000000000000000000000000000000000000000000000000000000000006001600160a01b03166111cd600080516020612d05833981519152546001600160a01b031690565b6001600160a01b0316146111f35760405162461bcd60e51b81526004016106bd906129a3565b6111fc82611be2565b610d7082826001611c0c565b6000306001600160a01b037f000000000000000000000000000000000000000000000000000000000000000016146112a85760405162461bcd60e51b815260206004820152603860248201527f555550535570677261646561626c653a206d757374206e6f742062652063616c60448201527f6c6564207468726f7567682064656c656761746563616c6c000000000000000060648201526084016106bd565b50600080516020612d0583398151915290565b6112c66000336113f3565b6112e25760405162461bcd60e51b81526004016106bd90612876565b336001600160a01b03821614156113325760405162461bcd60e51b815260206004820152601460248201527331b0b73737ba103932b737bab731b29039b2b63360611b60448201526064016106bd565b61133d600082610ccc565b610e51600033610cf6565b6113536000336113f3565b61136f5760405162461bcd60e51b81526004016106bd90612876565b6106ce611d86565b6113826000336113f3565b61139e5760405162461bcd60e51b81526004016106bd90612876565b61015f8190556040518181527fec0d2c2f3a2fec7d9ce81f6f984ece08f0cdf867116717553c179253c65dca00906020016108ef565b600082815260c9602052604081206113ec9083611dbf565b9392505050565b60009182526097602090815260408084206001600160a01b0393909316845291905290205460ff1690565b6114296000336113f3565b6114455760405162461bcd60e51b81526004016106bd90612876565b6101608190556040518181527f0595560a63185cdb6922ec5f6b5279ada789aeea2ab360c554dfc94c0b19cc30906020016108ef565b600054610100900460ff161580801561149b5750600054600160ff909116105b806114b55750303b1580156114b5575060005460ff166001145b6115185760405162461bcd60e51b815260206004820152602e60248201527f496e697469616c697a61626c653a20636f6e747261637420697320616c72656160448201526d191e481a5b9a5d1a585b1a5e995960921b60648201526084016106bd565b6000805460ff19166001179055801561153b576000805461ff0019166101001790555b337fb53127684a568b3173ae13b9f8a6016e243e63b6e8ee1178d6a717850b5d610381905561156b600082611dcb565b6115957f189ab7a9244df0848122154315af71fe140f3db0fe014031783b0946b8c9d2e333611b9e565b610163805460ff191660ff891617905560005b858110156115fb576115e9600080516020612d258339815191528888848181106115d4576115d46128ad565b905060200201602081019061036491906125f6565b806115f3816128d9565b9150506115a8565b505061016083905561015f829055801561164f576000805461ff0019169055604051600181527f7f26b83ff96e1f2b6a682f133852f6798a09c465da95921460cefb38474024989060200160405180910390a15b505050505050565b61166f600080516020612d25833981519152336113f3565b61168b5760405162461bcd60e51b81526004016106bd906129ef565b611693611af7565b60008560038111156116a7576116a7612a30565b14156117c4576040516323b872dd60e01b81526001600160a01b038381166004830152828116602483015260448201889052600091908516906323b872dd90606401602060405180830381600087803b15801561170357600080fd5b505af1158015611717573d6000803e3d6000fd5b505050506040513d601f19601f8201168201806040525081019061173b9190612a46565b9050801561179957816001600160a01b0316836001600160a01b03167ff63704c7d7c4d784274859e7e55c97f42913ac076b3a2efcb8c56a042f78db388989898960405161178c9493929190612a8a565b60405180910390a36117be565b8686868686866040516332ee88b960e11b81526004016106bd96959493929190612abe565b5061164f565b60018560038111156117d8576117d8612a30565b141561189f57604051632142170760e11b81526001600160a01b0383811660048301528281166024830152604482018690528416906342842e0e906064015b600060405180830381600087803b15801561183157600080fd5b505af1158015611845573d6000803e3d6000fd5b50505050806001600160a01b0316826001600160a01b03167ff63704c7d7c4d784274859e7e55c97f42913ac076b3a2efcb8c56a042f78db38888888886040516118929493929190612a8a565b60405180910390a361164f565b60028560038111156118b3576118b3612a30565b141561190b57604051637921219560e11b81526001600160a01b0383811660048301528281166024830152604482018690526064820188905260a06084830152600060a483015284169063f242432a9060c401611817565b8585858585856040516332ee88b960e11b81526004016106bd96959493929190612b2d565b600081815260c96020526040812061069090611dd5565b61194f611af7565b61016054336000908152610161602052604090205461196f903490612b97565b11156119d35760405162461bcd60e51b815260206004820152602d60248201527f4d696e6957616c6c65743a206465706f7369742067726561746572207468616e60448201526c0819db1bd8985b081b1a5b5a5d609a1b60648201526084016106bd565b3360009081526101616020526040812080543492906119f3908490612b97565b90915550503360008181526101616020908152604091829020548251348152918201527f61bb8b82654398e0bdd4e0d489b5e9104b6840211fd89f7264264c96589051fd910160405180910390a2565b600082815260976020526040902060010154611a5e81611b94565b610cf18383611bc0565b60006001600160e01b03198216637965db0b60e01b148061069057506301ffc9a760e01b6001600160e01b0319831614610690565b611aa5611af7565b6033805460ff191660011790557f62e78cea01bee320cd4e420270b5ea74000d11b0c9f74754ebdbfc544b05a258611ada3390565b6040516001600160a01b03909116815260200160405180910390a1565b60335460ff16156106ce5760405162461bcd60e51b815260206004820152601060248201526f14185d5cd8589b194e881c185d5cd95960821b60448201526064016106bd565b60006101008210611b905760405162461bcd60e51b815260206004820152601c60248201527f76616c756520646f6573206e6f742066697420696e203820626974730000000060448201526064016106bd565b5090565b610e518133611ddf565b611ba88282611e43565b600082815260c960205260409020610cf19082611ec9565b611bca8282611ede565b600082815260c960205260409020610cf19082611f45565b7f189ab7a9244df0848122154315af71fe140f3db0fe014031783b0946b8c9d2e3610d7081611b94565b7f4910fdfa16fed3260ed0e7147f7cc6da11a60208b5b9406d12a635614ffd91435460ff1615611c3f57610cf183611f5a565b826001600160a01b03166352d1902d6040518163ffffffff1660e01b815260040160206040518083038186803b158015611c7857600080fd5b505afa925050508015611ca8575060408051601f3d908101601f19168201909252611ca591810190612baf565b60015b611d0b5760405162461bcd60e51b815260206004820152602e60248201527f45524331393637557067726164653a206e657720696d706c656d656e7461746960448201526d6f6e206973206e6f74205555505360901b60648201526084016106bd565b600080516020612d058339815191528114611d7a5760405162461bcd60e51b815260206004820152602960248201527f45524331393637557067726164653a20756e737570706f727465642070726f786044820152681a58589b195555525160ba1b60648201526084016106bd565b50610cf1838383611ff6565b611d8e612021565b6033805460ff191690557f5db9ee0a495bf2e6ff9c91a7834c1ba4fdd244a5e8aa4e537bd38aeae4b073aa33611ada565b60006113ec838361206a565b610d708282611b9e565b6000610690825490565b611de982826113f3565b610d7057611e01816001600160a01b03166014612094565b611e0c836020612094565b604051602001611e1d929190612bf4565b60408051601f198184030181529082905262461bcd60e51b82526106bd91600401612c69565b611e4d82826113f3565b610d705760008281526097602090815260408083206001600160a01b03851684529091529020805460ff19166001179055611e853390565b6001600160a01b0316816001600160a01b0316837f2f8788117e7eff1d82e926ec794901d17c78024a50270940304540a733656f0d60405160405180910390a45050565b60006113ec836001600160a01b038416612230565b611ee882826113f3565b15610d705760008281526097602090815260408083206001600160a01b0385168085529252808320805460ff1916905551339285917ff6391f5c32d9c69d2a47ea670b442974b53935d1edc7fd64eb21e047a839171b9190a45050565b60006113ec836001600160a01b03841661227f565b6001600160a01b0381163b611fc75760405162461bcd60e51b815260206004820152602d60248201527f455243313936373a206e657720696d706c656d656e746174696f6e206973206e60448201526c1bdd08184818dbdb9d1c9858dd609a1b60648201526084016106bd565b600080516020612d0583398151915280546001600160a01b0319166001600160a01b0392909216919091179055565b611fff83612372565b60008251118061200c5750805b15610cf15761201b83836123b2565b50505050565b60335460ff166106ce5760405162461bcd60e51b815260206004820152601460248201527314185d5cd8589b194e881b9bdd081c185d5cd95960621b60448201526064016106bd565b6000826000018281548110612081576120816128ad565b9060005260206000200154905092915050565b606060006120a3836002612c9c565b6120ae906002612b97565b67ffffffffffffffff8111156120c6576120c6612679565b6040519080825280601f01601f1916602001820160405280156120f0576020820181803683370190505b509050600360fc1b8160008151811061210b5761210b6128ad565b60200101906001600160f81b031916908160001a905350600f60fb1b8160018151811061213a5761213a6128ad565b60200101906001600160f81b031916908160001a905350600061215e846002612c9c565b612169906001612b97565b90505b60018111156121e1576f181899199a1a9b1b9c1cb0b131b232b360811b85600f166010811061219d5761219d6128ad565b1a60f81b8282815181106121b3576121b36128ad565b60200101906001600160f81b031916908160001a90535060049490941c936121da81612cbb565b905061216c565b5083156113ec5760405162461bcd60e51b815260206004820181905260248201527f537472696e67733a20686578206c656e67746820696e73756666696369656e7460448201526064016106bd565b600081815260018301602052604081205461227757508154600181810184556000848152602080822090930184905584548482528286019093526040902091909155610690565b506000610690565b600081815260018301602052604081205480156123685760006122a3600183612940565b85549091506000906122b790600190612940565b905081811461231c5760008660000182815481106122d7576122d76128ad565b90600052602060002001549050808760000184815481106122fa576122fa6128ad565b6000918252602080832090910192909255918252600188019052604090208390555b855486908061232d5761232d612cd2565b600190038181906000526020600020016000905590558560010160008681526020019081526020016000206000905560019350505050610690565b6000915050610690565b61237b81611f5a565b6040516001600160a01b038216907fbc7cd75a20ee27fd9adebab32041f755214dbc6bffa90cc0225b39da2e5c2d3b90600090a250565b60606001600160a01b0383163b61241a5760405162461bcd60e51b815260206004820152602660248201527f416464726573733a2064656c65676174652063616c6c20746f206e6f6e2d636f6044820152651b9d1c9858dd60d21b60648201526084016106bd565b600080846001600160a01b0316846040516124359190612ce8565b600060405180830381855af49150503d8060008114612470576040519150601f19603f3d011682016040523d82523d6000602084013e612475565b606091505b509150915061249d8282604051806060016040528060278152602001612d45602791396124a6565b95945050505050565b606083156124b55750816113ec565b8251156124c55782518084602001fd5b8160405162461bcd60e51b81526004016106bd9190612c69565b6000602082840312156124f157600080fd5b81356001600160e01b0319811681146113ec57600080fd5b80356001600160a01b038116811461252057600080fd5b919050565b6000806040838503121561253857600080fd5b61254183612509565b946020939093013593505050565b60006020828403121561256157600080fd5b5035919050565b60008083601f84011261257a57600080fd5b50813567ffffffffffffffff81111561259257600080fd5b6020830191508360208260051b85010111156125ad57600080fd5b9250929050565b600080602083850312156125c757600080fd5b823567ffffffffffffffff8111156125de57600080fd5b6125ea85828601612568565b90969095509350505050565b60006020828403121561260857600080fd5b6113ec82612509565b6000806040838503121561262457600080fd5b8235915061263460208401612509565b90509250929050565b60008060006060848603121561265257600080fd5b8335925061266260208501612509565b915061267060408501612509565b90509250925092565b634e487b7160e01b600052604160045260246000fd5b600080604083850312156126a257600080fd5b6126ab83612509565b9150602083013567ffffffffffffffff808211156126c857600080fd5b818501915085601f8301126126dc57600080fd5b8135818111156126ee576126ee612679565b604051601f8201601f19908116603f0116810190838211818310171561271657612716612679565b8160405282815288602084870101111561272f57600080fd5b8260208601602083013760006020848301015280955050505050509250929050565b6000806040838503121561276457600080fd5b50508035926020909101359150565b60008060008060006080868803121561278b57600080fd5b853560ff8116811461279c57600080fd5b9450602086013567ffffffffffffffff8111156127b857600080fd5b6127c488828901612568565b9699909850959660408101359660609091013595509350505050565b60008060008060008060c087890312156127f957600080fd5b8635955060208701356004811061280f57600080fd5b94506040870135935061282460608801612509565b925061283260808801612509565b915061284060a08801612509565b90509295509295509295565b6000806040838503121561285f57600080fd5b61286883612509565b915061263460208401612509565b6020808252601e908201527f73656e64657220646f65736e277420686176652061646d696e20726f6c650000604082015260600190565b634e487b7160e01b600052603260045260246000fd5b634e487b7160e01b600052601160045260246000fd5b60006000198214156128ed576128ed6128c3565b5060010190565b60208082528181018390526000908460408401835b86811015612935576001600160a01b0361292284612509565b1682529183019190830190600101612909565b509695505050505050565b600082821015612952576129526128c3565b500390565b6020808252602c908201527f46756e6374696f6e206d7573742062652063616c6c6564207468726f7567682060408201526b19195b1959d85d1958d85b1b60a21b606082015260800190565b6020808252602c908201527f46756e6374696f6e206d7573742062652063616c6c6564207468726f7567682060408201526b6163746976652070726f787960a01b606082015260800190565b60208082526021908201527f73656e64657220646f65736e27742068617665206f70657261746f7220726f6c6040820152606560f81b606082015260800190565b634e487b7160e01b600052602160045260246000fd5b600060208284031215612a5857600080fd5b815180151581146113ec57600080fd5b60048110612a8657634e487b7160e01b600052602160045260246000fd5b9052565b84815260808101612a9e6020830186612a68565b60408201939093526001600160a01b039190911660609091015292915050565b868152612ace6020820187612a68565b60408101949094526001600160a01b03928316606085015290821660808401521660a082015260e060c08201819052601690820152754552433230207472616e73666572206661696c75726560501b6101008201526101200192915050565b868152612b3d6020820187612a68565b60408101949094526001600160a01b03928316606085015290821660808401521660a082015260e060c0820181905260119082015270496e76616c696420746f6b656e5479706560781b6101008201526101200192915050565b60008219821115612baa57612baa6128c3565b500190565b600060208284031215612bc157600080fd5b5051919050565b60005b83811015612be3578181015183820152602001612bcb565b8381111561201b5750506000910152565b7f416363657373436f6e74726f6c3a206163636f756e7420000000000000000000815260008351612c2c816017850160208801612bc8565b7001034b99036b4b9b9b4b733903937b6329607d1b6017918401918201528351612c5d816028840160208801612bc8565b01602801949350505050565b6020815260008251806020840152612c88816040850160208701612bc8565b601f01601f19169190910160400192915050565b6000816000190483118215151615612cb657612cb66128c3565b500290565b600081612cca57612cca6128c3565b506000190190565b634e487b7160e01b600052603160045260246000fd5b60008251612cfa818460208701612bc8565b919091019291505056fe360894a13ba1a3210667c828492db98dca3e2076cc3735a920a3ca505d382bbc97667070c54ef182b0f5858b034beac1b6f3089aa2d3188bb1e8929f4fa9b929416464726573733a206c6f772d6c6576656c2064656c65676174652063616c6c206661696c6564a2646970667358221220e7d68946286ca3eb2289bc1ca1dca49ddf75e44f75d01b4f93482f683a7f846264736f6c63430008090033",
  "linkReferences": {},
  "deployedLinkReferences": {}
}